:020000040800F2
:10000000FFFF012095020008650A0008690A000840
:100010006D0A0008710A0008750A00080000000057
:10002000000000000000000000000000790A000845
:100030007D0A000800000000810A0008850A000807
:10004000E5020008E5020008E5020008E5020008F4
:10005000E5020008E5020008890A0008E502000838
:10006000E5020008E5020008E5020008E5020008D4
:10007000E5020008E5020008E5020008E5020008C4
:10008000E5020008E5020008E5020008E5020008B4
:10009000E5020008E5020008E5020008E5020008A4
:1000A000E5020008E5020008E5020008E502000894
:1000B000E5020008E5020008E5020008E502000884
:1000C000E5020008E5020008E5020008E502000874
:1000D000E5020008E5020008E5020008E502000864
:1000E000E5020008E5020008E5020008E502000854
:1000F000E5020008E5020008E5020008E502000844
:10010000E5020008E5020008E5020008E502000833
:10011000E5020008E5020008E5020008E502000823
:10012000E5020008E5020008E5020008E502000813
:10013000E5020008E5020008E5020008E502000803
:10014000E5020008E5020008E5020008E5020008F3
:10015000E5020008E5020008E5020008E5020008E3
:10016000E5020008E5020008E5020008E5020008D3
:10017000E5020008E5020008E502000800000000B2
:10018000E5020008E50200080348044B834202D060
:10019000034B03B118477047740500207405002015
:1001A000000000000548064B1B1AD90F01EBA30104
:1001B000491002D0034B03B1184770477405002063
:1001C000740500200000000010B5064C237843B9E8
:1001D000FFF7DAFF044B13B10448AFF300800123AB
:1001E000237010BD78050020000000002461000885
:1001F00008B5044B1BB104490448AFF30080BDE8C7
:100200000840CFE7000000007C05002024610008C2
:10021000A3F5803A704700BF154B002B08BF114B68
:100220009D46FFF7F5FF00218B460F461148124A05
:10023000121A04F077FE0C4B002B00D098470B4BA2
:10024000002B00D098470020002104000D000B482F
:1002500004F0F0FE04F0B8FE2000290000F07EFB60
:1002600004F0DAFE000008000000000000000000BA
:1002700000000220780500203C09002041500008C1
:10028000306100080000002074050020780500207F
:100290003C090020DFF834D0002103E00C4B5B5810
:1002A000435004310B480C4B42189A42F6D30B4A88
:1002B00002E0002342F8043B094B9A42F9D300F0D4
:1002C00013F804F081FE00F049FB7047FFFF0120A6
:1002D000306100080000002074050020780500202F
:1002E0003C090020FEE700000D4B0E481A68002173
:1002F00042F0010210B41A6099601A680A4C22F0A8
:10030000847222F480321A605C601A6810BC22F495
:1003100080221A604FF00062D9608260704700BF8F
:100320000038024000ED00E010300024164A9368C7
:1003300003F00C03042B25D0082B0AD0134B124AD0
:10034000134892681349C2F30312825CD3400B60D6
:1003500070475368516813F4800F536814BF0E4AF6
:100360000A4AC3F3881301F03F01B2FBF1F202FB2A
:1003700003F3054A5268C2F3014201325200B3FB53
:10038000F2F3DCE7044BDAE7003802400024F40023
:10039000C86000080400002040787D011E4A1F4B01
:1003A000516C30B51E4C41F4805123605164516C46
:1003B00089B001F4805101910199116B182041F02D
:1003C0000101E0611163126B0023C4E90433C4E945
:1003D0000833A360E360A36202F001024FF482736A
:1003E00002926360E02101220523CDE906230298F1
:1003F000039107224FF400730A48E262022503A921
:10040000CDE90455A36100F00DFC204609B0BDE81C
:10041000304000F0BBBE00BF003802400030014059
:10042000980500200000024000B5134B87B01B6800
:100430000093002184468DF8171010488DF80FC0E6
:1004400001230DF117020DF10F0100F0B7FF20B9E4
:100450009DF8170007B05DF804FB084800F0D8FECF
:10046000064801F00FFF0028F2D1FFF797FF9DF833
:10047000170007B05DF804FB080000209805002075
:1004800070B5274C274B226B274928481E4642F05F
:10049000020246F8581F2263226B2549D96588B0AD
:1004A00002F0020200920025009A3322C3E918529A
:1004B0004FF480429A664FF410721223CDE9022362
:1004C00000220223CDE9042302A90423069300F0AD
:1004D000A9FB236C43F400132364236C03F400137F
:1004E0000193019B236A43F400132362236A23F4DC
:1004F000001323622A4629461F2001F0DBFE1F203D
:1005000001F010FF2A462946202001F0D3FE2020CA
:1005100001F008FF304608B0BDE8704002F0DCB9D9
:1005200000380240980500200054004000040240BA
:10053000A0860100004870470000010230B58BB072
:1005400003280DD8DFE800F002392E23204B1A6B68
:1005500042F008021A631B6B03F008030193019B2E
:100560001C4C1D4A04EB800432F8105060680123D3
:10057000022205A9CDE90732CDE9055300F052FB6F
:1005800060680022294600F037FD0BB030BD104BEB
:100590001A6B42F008021A631B6B03F00803049302
:1005A000049BDDE70A4B1A6B42F008021A631B6BCF
:1005B00003F008030393039BD2E7054B1A6B42F049
:1005C00008021A631B6B03F008030293029BC7E740
:1005D0000038024008000020D8600008044B054A9B
:1005E00003EB800332F810105868012200F004BDBC
:1005F00008000020D8600008044B054A03EB800384
:1006000032F810105868002200F0F6BC08000020F4
:10061000D8600008044B054A03EB800332F8101041
:10062000586800F0EDBC00BF08000020D86000084A
:1006300030B589B048B91C4B1A6B42F001021A63FD
:100640001B6B03F001030193019BE1B1012901D070
:1006500009B030BD154B164D03EB800302A9586954
:10066000002202230124CDE90423CDE9024500F054
:10067000D9FA00220F21062001F01CFE062001F00D
:1006800051FE09B030BD094B03EB800300225869CD
:1006900001240223002502A9CDE90245CDE9042366
:1006A00000F0C0FA09B030BD003802400800002058
:1006B0000000111008B5044B03EB800301215869B9
:1006C00000F094FC08BD00BF08000020134B144844
:1006D0001A6B30B542F010021A631B6B89B003F03D
:1006E00010030193002202A9012308240125CDE96A
:1006F0000423CDE90245019B00F094FA0848012249
:10070000082100F079FC074801F0BCFD08B109B0F0
:1007100030BDFFF743FE09B030BD00BF00380240D6
:100720000010024098050020104B11481A6B30B59C
:1007300042F010021A631B6B0E4D89B003F01003D8
:10074000019302A9002202240223CDE90423CDE96A
:100750000245019B00F066FA00220F21072001F0FC
:10076000A9FD072001F0DEFD09B030BD00380240D0
:100770000010024000001110012A70B51546044611
:100780000E4611484FF000024FF0080113D900F057
:1007900033FC46F04000FFF747FE254414F8010BF8
:1007A000FFF742FEAC42F9D1BDE870400648012295
:1007B000082100F021BC00F01FFC3046FFF734FE9A
:1007C000002DEAD1F0E700BF00100240012A70B509
:1007D000154604460E4612484FF000024FF008013D
:1007E00014D900F009FC46F0C000FFF71DFE2544B7
:1007F0000020FFF719FE04F8010BAC42F8D1BDE868
:10080000704007480122082100F0F6BB00F0F4FB1D
:1008100046F08000FFF708FE002DE8D1EFE700BFAB
:1008200000100240184B19481A6B30B542F008020C
:100830001A631B6B89B003F00803019300220223A3
:100840001024012502A9CDE90423CDE90245019B2D
:1008500000F0E8F90E4803F0B7FC88B1002210213F
:100860000A4800F0C9FB052000F064F901221021BC
:10087000064800F0C1FB052000F05CF909B030BD6E
:10088000FFF7FEFDEAE700BF00380240000C02401F
:10089000F0050020704700BF10B5104C86B0A46969
:1008A0000294144601238DF817400DF117040A46EF
:1008B0000193014600940A4802F00EFE08B906B002
:1008C00010BD074802F07EF8054803F07DFC0028C3
:1008D000F5D1FFF7D5FD06B010BD00BF0800002020
:1008E000F005002010B5124C86B00A46A1690291AD
:1008F00084460DF1170100200123CDE900138DF886
:10090000170061460B4802F06DFE18B99DF81700FC
:1009100006B010BD074802F055F8064803F054FC35
:100920000028F3D1FFF7ACFD9DF8170006B010BD0D
:1009300008000020F0050020012800D0704708B50D
:10094000FFF768FE0020FFF765FE0220FFF762FE5A
:10095000BDE808400320FFF75DBE00BF00B595B0BD
:1009600000F0C4F80120FFF7E9FD0020FFF7E6FDE5
:100970000220FFF7E3FD0320FFF7E0FD344A354B8B
:10098000146C44F080541464126C02F08052019292
:10099000019A1A6842F480421A601B680120012102
:1009A00003F48043CDE9080102934FF4800102244F
:1009B000CDE90E41029807210220CDE9120108225B
:1009C0004FF4A87308A81092119303F005FC0028B7
:1009D0003AD10F23CDE903344FF4A05205904FF4E0
:1009E0008053052103A8CDE9062303F0A3FD38BBFE
:1009F00000F0C2F841F20103984204D1164A13688C
:100A000043F480731360124B186B40F001001863BD
:100A10001B6B124803F001030393114B01220024C6
:100A200008A9CDE908230A94039B00F0FBF80620EF
:100A30002246022101F03EFC062001F073FCFEE795
:100A40002046FFF7CBFDFEE72046FFF7C7FDFEE798
:100A50000038024000700040003C024000000240AC
:100A600000002110704700BFFEE700BFFEE700BF97
:100A7000FEE700BFFEE700BF704700BF704700BF42
:100A8000704700BF00F048B8012000F0D5BA00BFA1
:100A9000704700BF704700BF10B5094B4FF0FF32E1
:100AA00000241A621C625A625C621A611C615A61FB
:100AB0005C619A619C61FFF7EDFF204610BD00BFAD
:100AC0000038024010B5044603F0C8FE064BA3FBF5
:100AD0000030800901F052FC214600224FF0FF3027
:100AE00001F0E8FB002010BDD34D621008B5094BA2
:100AF0001A6842F400721A601A6842F480621A603E
:100B0000032001F0C5FB0F20FFF7DCFFFFF7C0FF5C
:100B1000002008BD003C0240024A13680133136004
:100B2000704700BF2C060020014B1868704700BFBB
:100B30002C06002010B582B00190FFF7F5FF0446A7
:100B4000FFF7F2FF019B001B9842F9D302B010BDE2
:100B5000024A136823F002031360704710E000E0BC
:100B6000024A136843F002031360704710E000E08C
:100B70004FF08270704700BF014B1868000C70473F
:100B8000002004E0024B1868C0F30B00704700BF60
:100B9000002004E0024A536843F0010353607047A9
:100BA000002004E0024A536823F0010353607047B9
:100BB000002004E0024A536843F002035360704788
:100BC000002004E0024A536823F002035360704798
:100BD000002004E0024A536843F004035360704766
:100BE000002004E0024A536823F004035360704776
:100BF000002004E0012292FAA2F30349B3FA83F33E
:100C000041F82320704700BF00042742012393FAD4
:100C1000A3F3034AB3FA83F3002142F82310704789
:100C2000000427422DE9F04F00230E68DFF84882C8
:100C30008E4683B0894903E00133102B00F09E807B
:100C400001229A4032EA060402EA060CF4D1DEF8E8
:100C5000045025F0100ABAF1020F00F09280D0F88B
:100C600000B04FEA4309032404FA09F405F003072E
:100C70002BEA040B07FA09F70AF1FF3A47EA0B07D8
:100C8000BAF1010F6FEA0404076040F2A180C7685F
:100C9000DEF808203C4002FA09F22243EF00C2606D
:100CA000CAD5D8F8442042F48042C8F84420D8F885
:100CB000442023F0030404F1804402F4804204F54C
:100CC0009C34019203F00307019AD4F80890BF0006
:100CD0000F22BA4029EA020A614A904229D002F55D
:100CE0008062904200F088805E4A904200F08B80E3
:100CF0005D4A904200F08E805C4A904200F0918004
:100D00005B4A904200F09B805A4A904200F09E80DD
:100D1000DFF86891484500F08B80DFF86491484522
:100D20000CBF4FF008094FF0090909FA07F74AEA22
:100D3000070AC4F808A00A686FEA0C07EC0354BF5E
:100D40003A404CEA02020A604C68AA0354BF3C4095
:100D50004CEA04044C608C68EA0254BF3C404CEA04
:100D600004048C60CA68AC0203F1010354BF3A402A
:100D70004CEA0202102BCA607FF462AF03B0BDE8F8
:100D8000F08F4FEAD30900EB890903F00707D9F880
:100D90002040BF004FF00F0B0BFA07FB24EA0B0AB1
:100DA000DEF81040BC4044EA0A04C9F82040D0F8FC
:100DB00000A04FEA4309032404FA09F405F00307ED
:100DC0002AEA040A07FA09F747EA0A07E443076030
:100DD000876807EA040ADEF80C7007FA09F747EAA1
:100DE0000A078760D0F804A0C5F300172AEA0202B8
:100DF0009F40174347604AE74FF0010909FA07F798
:100E00004AEA070A95E74FF0020909FA07F74AEAA2
:100E1000070A8EE74FF0030909FA07F74AEA070ABB
:100E200087E74FF0040909FA07F74AEA070A80E75B
:100E30004FF0070909FA07F74AEA070A79E74FF07E
:100E4000050909FA07F74AEA070A72E74FF00609A7
:100E500009FA07F74AEA070A6BE700BF003C0140BE
:100E60000000024000080240000C02400010024056
:100E7000001402400018024000380240001C0240EA
:100E8000002002402DE9F04F0023DFF854A1DFF8E5
:100E90005481DFF854B18E4602E00133102B73D039
:100EA000012606FA03F232EA0E01F6D104684FF089
:100EB000030C03FA06F10CFA01F123FA0CF524EA0B
:100EC000010400EB8505046003F00704D5F82090C9
:100ED0000F27A40007FA04F429EA04042C628468AA
:100EE00024EA01048460446824EA02044460C5687A
:100EF00023F0030404F1804425EA010104F59C3445
:100F0000C16003EA0C01A56889008F4050456FEA73
:100F1000020205EA070539D058453CD0294EB042B7
:100F20003CD0294EB0423DD0284EB0423DD0284E54
:100F3000B0423ED0274EB0423FD0274EB04229D0DB
:100F4000264EB0420CBF0826092606FA01F18D4252
:100F5000A3D1A16821EA0707A760D8F800101140C3
:100F6000C8F80010D8F804101140C8F80410D8F8D8
:100F700008101140C8F80810D8F80C1001330A40C6
:100F8000102BC8F80C208BD1BDE8F08F00218D42CA
:100F900083D1DEE7072606FA01F1F8E7022606FA12
:100FA00001F1F4E70CFA01F1F1E7042606FA01F188
:100FB000EDE7052606FA01F1E9E7062606FA01F152
:100FC000E5E700BF00080240000C024000100240AC
:100FD0000014024000180240001C024000200240A1
:100FE00000000240003C0140000402400369194235
:100FF00014BF01200020704702B9090481617047C5
:10100000436959404161704782B04FF48033019386
:10101000019B0B430193019BC361C161019BC361B0
:10102000C3690193C06980F48030C0F3004002B00E
:10103000704700BF704700BF044A5169014200D1A8
:10104000704708B55061FFF777FC08BD003C0140D0
:101050002DE9F04106460D4617461C46FFF764FD94
:1010600080468FB9326801E0611C16D1936835EA79
:101070000303F9D10020BDE8F081B4B1FFF754FDBE
:10108000A0EB0800A0420FD8326801E0631CF4D145
:10109000936835EA0303F9D0ECE734B1FFF744FD78
:1010A000A0EB0800A042DDD932685368B16A23F092
:1010B000E00353601368B1F5005F23F04003136051
:1010C00007D00122002386F8512086F850300320F3
:1010D000D1E7136823F400531360136843F40053FB
:1010E0001360EEE710B5836AB3F5005F82B0044683
:1010F00024D00A23002202212046FFF7A9FF18B1BD
:10110000636D43F0200363652268536823F0020394
:10111000536080210A2301222046FFF799FF18B16E
:10112000636D43F02003636521684B68002223F060
:1011300001034B60E286E28702B010BD0122114636
:101140000A23FFF785FF88B12268D3689BB2ADF808
:101150000630BDF806309368DB06CAD5636D6FF0C4
:10116000100143F0020363659160C2E702460A235F
:1011700001212046FFF76CFF0028E5D0636D43F0A6
:1011800020036365E0E700BF704700BF00283AD046
:1011900070B590F85130044603F0FF0273B3D4E900
:1011A0000135D4E903012B4303436269A0690B4372
:1011B000D4E907611343022584F851502268A56AD7
:1011C00033430B431668010C2B43656A00F400702F
:1011D00001F004010343294326F04006E56A166046
:1011E000136051601561D369002123F40063012568
:1011F000D361616584F85150084670BD80F8502075
:10120000FFF7C2FFCBE70120704700BF704700BF68
:1012100078B10268136810B523F0400304461360E8
:10122000FFF7F4FF0020606584F8500084F8510057
:1012300010BD0120704700BFF0B590F85160012E3D
:1012400083B052D10446F0B200294CD0002A4AD0D3
:101250001D4694F85030012B47D0A66A84F8500000
:10126000122384F85130B6F5005F4FF00003C4E953
:10127000123320682163A286E2866365E36307D1A7
:10128000036823F400530360036843F400530360CE
:10129000A368B3F5004F03D1036843F480430360B0
:1012A00003685B0603D4036843F040030360E3680C
:1012B000F3B96768002F64D0012A0BD170E0236B6B
:1012C000E28E2068591C2163013A1B78C36092B2F8
:1012D000E2863AB32B46002202212046FFF7B8FEF1
:1012E0000028ECD0032003B0F0BD022003B0F0BD15
:1012F0006368002B3BD0012A0BD157E0E28E236BB1
:10130000206833F8021BC160013A92B2E28623637F
:1013100042B12B46002202212046FFF799FE002809
:10132000ECD0DFE7A66AB6F5005F03D1036843F4AB
:10133000805303602B46002202212046FFF788FEDF
:1013400048BB2B46012280212046FFF781FE10BBBF
:10135000A3682BB92368DA6801929B680193019B0B
:101360000122002384F8512084F85030BBE7013A71
:1013700031F8023BC36092B22163E286002AC8D1F1
:10138000D1E74B1C2363013A0B78C36092B2E2862B
:10139000002A9FD1C7E7636D43F020036365A1E78F
:1013A0004A1C22630A78C260E386BCE70B4600222F
:1013B00033F8021BC1602363E286B4E7F0B504464C
:1013C00090F8510083B00128089E02D0C5B2222DAA
:1013D0006ED100296FD0002A6DD0002B6BD094F80D
:1013E0005000012864D094F85100A2630125A8425E
:1013F00004BF322084F85100A06A84F850500022C3
:10140000B0F5005FC4E912226265A3872268E38712
:101410002163A386E38651D015686D0603D4156851
:1014200045F040051560E568B5F5006F656851D079
:10143000002D00F0A980B5F5827F29D129E1276B25
:10144000E58E07EB010CC4F830C0013DD4F800C0B4
:101450003F78CCF80C70ADB2E5864DB9A56AB5F50C
:10146000005F05D1DCF8005045F48055CCF8005001
:10147000FFF7EEFDC8B9A36B2268591CD268A163BF
:101480001A70E38FE28E013BE387002A00F0EC80C4
:101490003346002202212046FFF7DAFD0546334697
:1014A000002201212046002DC9D0032003B0F0BD49
:1014B000022003B0F0BD012003B0F0BD156825F493
:1014C00000551560156845F40055156015686D06E2
:1014D000A9D4A4E7002D00F0B280B5F5827F45D1F4
:1014E000012B43D131F8025BD56000232163E386F1
:1014F000B0F5005F00F0AE803346002201212046A7
:10150000FFF7A6FD0028D0D12368A26BDB6822F884
:10151000023BE38FA263013BE38756E0E58E276B36
:10152000D4F800C037F802EBCCF80CE0013DADB2C6
:10153000E58627634DB9A56AB5F5005F05D1DCF8EE
:10154000005045F48055CCF80050FFF781FD00288D
:10155000ABD12368A26BDB6822F8023BE38FE18EFC
:10156000A263013BE387002900F0A38033460022F9
:1015700002212046FFF76CFD05463346002201217B
:101580002046002DCAD090E74D1C2563013B097809
:10159000D1609BB2E386002B7FF47AAFB0F5005F99
:1015A00003D1136843F480531360334600220121B2
:1015B0002046FFF74DFD00287FF477AF2268A36B2C
:1015C000D2681A70E38F013BE387A36AB3F5005F2B
:1015D00026D03346012280212046FFF739FD00281E
:1015E00061D1A16A2368012284F85120B1F5005F1E
:1015F0009D6811D1E9060FD5616D41F00201616569
:10160000196821F400511960196841F400511960FA
:1016100084F8500010464CE7002384F8503048E727
:101620003346002201212046FFF712FDB8B9236896
:10163000DB689BB2ADF80630BDF80630C9E7013B68
:1016400031F8025BD5609BB22163E386002B3FF447
:101650004FAF8BE7136843F4805313604CE7636D1F
:1016600043F00203636520E76268002AADD1334688
:1016700001212046FFF7ECFC00287FF416AFA36B96
:101680002268591CD268A1631A70E38F013BE3877B
:101690009BE7012B7FF4FCAE4B1C23630B78D360DC
:1016A0000023E3867AE7636D43F02003636503203C
:1016B000FFE66268002A88D1334601212046FFF701
:1016C000C7FC00283FF420AFEFE600BFF0B50446AA
:1016D00090F85100012885B05AD1C5B2002954D0E4
:1016E000002A52D01E4694F85030012B50D0A068EA
:1016F00084F85050222384F85130B0F5004F4FF059
:101700000003C4E91233A163A287E28763656363C0
:1017100004D127683B6823F480433B60A36AB3F598
:10172000005F0CD12768D7F800C02CF4005CC7F824
:1017300000C0D7F800C04CF4005CC7F800C0676870
:10174000B7F5827F40D021680868400603D4086856
:1017500040F040000860E068F0B9012A0CD868E069
:10176000A36B2268591CD268A1631A70E28F013AF8
:1017700092B2012AE2875BD933460022012120463A
:10178000FFF766FC0028EBD00325284605B0F0BD26
:101790000225284605B0F0BD012A0CD821E02168B9
:1017A000A36BCA6823F8022BE28FA363013A92B2BB
:1017B000012AE28714D93346002201212046FFF78F
:1017C00047FC0028EBD0DFE70028BCD184F85000AC
:1017D0001346009620460A46FFF7F0FD0546D4E77B
:1017E000A36AB3F5005F33D03346002201212046BF
:1017F000FFF72EFC0028C7D1E368226813BBA36B58
:10180000D268591CA1631A70E38FA26A013BB2F53A
:10181000005FE38721D0D4E90031B1F5827F2FD07A
:10182000012284F851209B68002584F85050ACE7D1
:10183000A36AB3F5005FD7D12268136843F48053DD
:101840001360D1E7A36BD26823F8022BA363DBE715
:101850000B6843F480530B60C6E733460022012136
:101860002046FFF7F5FB80BBD4E90030D968A26AB7
:1018700089B2ADF80E10B0F5827FBDF80E1006D11A
:10188000A168B1F5004F1BD0B1F5806F18D00121D0
:1018900084F85110B2F5005F9968C5D1CA06C3D566
:1018A000626D42F0020262651A6822F400521A6008
:1018B0001A68002142F400521A6084F8501064E75C
:1018C000196821F040011960E1E7636D43F00203FC
:1018D000636559E730B490F85140012C31D103468B
:1018E000E0B261B35AB393F85040012C29D09C6800
:1018F000214D83F85000196312200021B4F5004FE8
:1019000083F851009A86DA8699645965D963DD6453
:101910001AD09A6AB2F5005F1A6823D0ECB9516800
:1019200041F080015160002083F85000136813F0EB
:10193000400304D1116841F040011846116030BCE9
:101940007047022030BC70471A68986A1168B0F579
:10195000005F41F48041116004D0516841F0A00162
:101960005160E0E7116821F400511160116841F401
:1019700000511160D2E700BF311E000830B490F86A
:101980005140012C09D0E5B24468B4F5827F42D1C0
:101990008468002C3FD1222D3DD100293ED0002A61
:1019A0003CD0002B3AD090F85040012C33D090F826
:1019B00051408263222C1CBF322480F85140012503
:1019C000846A194A80F85050184D0163B4F5005FDD
:1019D0004FF00001C0E9122583860268C386838721
:1019E000C387416507D1136823F40053136013685C
:1019F00043F4005313605168002341F0E00151604B
:101A000080F85030106810F040000AD1136843F09D
:101A10004003136000E0022030BC7047012030BC5E
:101A200070471846F8E700BF15200008311E00086F
:101A300070B490F85160012E38D1F3B2002932D041
:101A4000002A30D090F85060012E04462ED08668CF
:101A500080F85030222380F8513000234365C3645E
:101A60004363B6F5004F1E4B81638287C287836450
:101A700029D01EB94368B3F5827F2AD02268A36AB1
:101A8000B3F5005F16D05168002341F0600151604A
:101A900084F85030116811F0400104D1106840F012
:101AA00040000B461060184670BC70470223184671
:101AB00070BC7047136823F400531360136843F439
:101AC00000531360DFE70268136823F48043136058
:101AD000D5E780F85060134670BC0A46FFF74EBF4A
:101AE000D11F000870B590F85150012D41D1044626
:101AF000E8B200293CD01346002A39D094F850208F
:101B0000012A36D0002284F85000A568E264122031
:101B100084F85100A2646265E26322682163B5F52E
:101B2000004F08BF1068A38608BF40F48040E386DA
:101B300008BF1060A06AB0F5005F1CD0206C124D89
:101B40000564124E124DC6630C32856403F016F81C
:101B50000022236884F850201A68520603D41A68B9
:101B600042F040021A605A6842F002025A600020B5
:101B700070BD022070BD106820F400501060106825
:101B800040F400501060D9E7011E000861200008F1
:101B90004120000870B5044690F85100012809D092
:101BA000C5B26068B0F5827F62D1A06800285FD1BD
:101BB000222D5DD100295DD0002A5BD0002B59D0A9
:101BC00094F85000012853D094F851002163222842
:101BD0001CBF322084F85100A06AA3860021012591
:101BE000B0F5005FC4E91211616584F850502168B6
:101BF000E386A263A387E38707D1086820F4005037
:101C00000860086840F40050086094F851002228E9
:101C100007BF194E194D1A4E1A4D606CC0E90F5688
:101C2000194D85640C3102F0A9FF2268206C5168BF
:101C3000E38E002641F001015160C66394F8511013
:101C4000322918BF35460C32216B856402F096FFAD
:101C5000236884F850601A68520603D41A6842F068
:101C600040021A605A6842F002025A60002070BDB9
:101C7000022070BD012070BD111E0008D92000088F
:101C8000211E0008A1210008412000082DE9F04193
:101C900090F85150012D44D11346EEB20A46002966
:101CA0003CD0002B3AD090F85050012D044638D04B
:101CB000876880F85060222580F85150B7F5004FB2
:101CC0004FF00005C0E9125581638387C3874565DE
:101CD000456333D01FB94568B5F5827F34D021689C
:101CE000A06AB0F5005F20D0606C1A4D05641A4EF2
:101CF0001A4DC6630C31856402F040FF0022236850
:101D000084F850201A68520603D41A6842F0400240
:101D10001A605A6842F001025A6000263046BDE857
:101D2000F08102263046BDE8F081086820F40050BA
:101D30000860086840F400500860D5E7016808684A
:101D400020F480400860CBE780F85070BDE8F04197
:101D5000FFF720BF111E0008D9200008412000080D
:101D600090F85020012A10D00268516821F0020139
:101D700010B4516051680346002421F00101516004
:101D800083F85040204610BC70470220704700BFC7
:101D900090F85020012A10D00268516841F00201E9
:101DA00010B4516051680346002441F001015160B4
:101DB00083F85040204610BC70470220704700BF97
:101DC00010B50446006C08B102F006FF606C08B163
:101DD00002F002FF23685A6822F002025A605A6831
:101DE000012122F001025A6084F85110002010BD38
:101DF000704700BF704700BF704700BF704700BF0B
:101E000008B5806BFFF7FAFF08BD00BF704700BF41
:101E100008B5806BFFF7FAFF08BD00BF704700BF31
:101E200008B5806BFFF7FAFF08BD00BF704700BF21
:101E300010B5C36882B004461BBB036B0268591C13
:101E400001631B78D360E38E013B9BB2E386B3B999
:101E5000A36AB3F5005F1BD00A23002202212046AB
:101E6000FFF7F6F818B1636D43F02003636523684C
:101E70005A6822F080025A605A6852060DD502B0A4
:101E800010BD036B026833F8021BD1600363DAE70D
:101E9000136843F480531360DEE75A6822F020028F
:101EA0005A6080210A2301222046FFF7D1F818B199
:101EB000636D43F020036365A3682BB92368DA6878
:101EC00001929B680193019B636D5BB994F851305B
:101ED000322B4FF0010384F85130204609D0FFF730
:101EE00087FFCCE7012384F851302046FFF79EFF9F
:101EF000C5E7FFF781FFC2E730B5836AB3F5005F3E
:101F000083B004461FD003685A6822F040025A602A
:101F10005A68120615D45A68616822F02002B1F599
:101F2000827F5A603CD0636D002B45D194F85130CC
:101F3000322B4FF0010384F85130204644D0FFF794
:101F400059FF03B030BD0A2300220121FFF780F8BA
:101F500018B1636D43F0200363652368DB680122D9
:101F60009BB2ADF8063011460A232046BDF8065054
:101F7000FFF76EF818B1636D43F0200363652368C3
:101F80009A68D106C0D5626D42F0020262651A6895
:101F900022F400521A601A6842F400521A60B3E741
:101FA000A268B2F5004F02D0B2F5806FBBD11A68BB
:101FB00022F040021A60B6E7012384F8513020462F
:101FC000FFF734FF03B030BDFFF716FF03B030BD9D
:101FD000C36802688BB9836BD268591C81631A701D
:101FE000C38F013B9BB2012BC38701D023B983E789
:101FF000836AB3F5005F06D07047836BD26823F81D
:10200000022B8363ECE70268136843F48053136088
:10201000704700BFC368026853B9836BD268591C0C
:1020200081631A70C38F013B9BB2C38733B1704782
:10203000836BD26823F8022B8363F3E75CE700BF6E
:10204000806B08B5012380F85130436D002243F0C6
:1020500010034365C286C287FFF7E8FE08BD00BFD4
:1020600010B50368846B1A6812F4807282B012D0C3
:10207000A3682BB92368DA6801929B680193019BDE
:10208000636D20461BB1FFF7D1FE02B010BDFFF714
:10209000AFFE02B010BD0A2302212046FEF7D8FF92
:1020A00018B1636D43F0200363652268536823F021
:1020B0000203536080210A2301222046FEF7C8FF55
:1020C00018B1636D43F02003636500220123E286AB
:1020D00084F85130CCE700BF30B50368846B1B68CF
:1020E000D90583B02AD4A368C3B96368B3F5827FE6
:1020F00051D021684B68A06A23F001030022B0F59B
:10210000005F4B60E2871ED0012384F85130636D7D
:102110002046A3B1FFF78AFE03B030BD6268B2F576
:10212000827FE6D1B3F5004F216802D0B3F5806F0E
:10213000E0D10B6823F040030B60DBE72046FFF79C
:1021400059FE03B030BD0A2301212046FEF780FF6F
:1021500018B1636D43F0200363652368DB680122D7
:102160009BB2ADF8063011460A232046BDF8065052
:10217000FEF76EFF18B1636D43F0200363652368BB
:102180009A68D206C0D5626D6FF0100142F002026B
:1021900062659960B8E72046FEF7A4FFB4E700BF88
:1021A00003681B6810B5846BDB0520460AD4FEF774
:1021B00099FF012384F85130636D204613B1FFF776
:1021C00035FE10BDFFF718FE10BD00BF30B5036827
:1021D00099685C689D68C90785B0024603D56106A9
:1021E00001D56D064CD5996858688C0701D5000655
:1021F00038D45968890633D59968CD0606D5516D0E
:102200006FF0100041F002015165986099688C06EA
:102210000AD5516D41F00101516599680191196824
:1022200021F0400119600199996848060CD592F88F
:102230005110122908D0516D41F004015165D9683F
:1022400002919968029102999968C90506D5516D64
:1022500041F0080151659B680393039B536D3BB9A3
:1022600005B030BDD36C104605B0BDE8304018470E
:10227000012382F851301046FFF7D8FD05B030BD7C
:10228000836CF1E790F85100704700BF406D7047D4
:102290000749CA6803024FF6FF0003F4E0630240F7
:1022A000134343F0BF6343F40033CB60704700BF78
:1022B00000ED00E0194BDB68C3F3022330B4C3F137
:1022C0000705042D03F1040428BF0425062C19D9A1
:1022D000033B4FF0FF349C4022EA04024FF0FF34EE
:1022E000AC4021EA04019940002841EA02010CDBDC
:1022F00000F1604000F561400901C9B280F80013A7
:1023000030BC704700221346E8E7054B00F00F0091
:1023100009010344C9B2197630BC704700ED00E0F2
:10232000FCEC00E000F01F01034A400901238B4050
:1023300042F82030704700BF00E100E04309054942
:10234000203300F01F00012202FA00F041F82300C0
:10235000704700BF00E100E0BFF34F8F0549064B17
:10236000CA6802F4E0621343CB60BFF34F8F00BF33
:10237000FDE700BF00ED00E00400FA050138B0F110
:10238000807F0DD2074B10B4074C5860F02084F8C2
:1023900023000022072110469A6010BC1960704784
:1023A0000120704710E000E000ED00E012494378A2
:1023B0008B600278EAB1436870B4CB60C37A057B66
:1023C000847A867B1B0643EA05731343427BC57BF5
:1023D00043EAC44343EA8243447A027A43EA4643E7
:1023E00043EA054343EA042343EA420370BC0B611A
:1023F0007047CA600A61704790ED00E0024BD868F0
:10240000C0F30220704700BF00ED00E0002830B4A8
:1024100023DB00F1604000F5614090F80003000903
:1024200001F00701C1F10705042D01F1040428BFE3
:102430000425062C0FD903394FF0FF348C4020EAD5
:102440000404C8404FF0FF31A94020EA01001060A9
:102450001C6030BC70470024F4E7034C00F00F0010
:102460000444207E0009DBE7FCEC00E04309054959
:10247000403300F01F00012202FA00F041F823006F
:10248000704700BF00E100E04309054A403300F017
:102490001F0052F8233023FA00F000F001007047CB
:1024A00000E100E043090549603300F01F0001220C
:1024B00002FA00F041F82300704700BF00E100E09D
:1024C0004309054A803300F01F0052F8233023FAF5
:1024D00000F000F00100704700E100E0044A1368DA
:1024E00004280CBF43F0040323F004031360704777
:1024F00010E000E0704700BF08B5FFF7FBFF08BD24
:102500002DE9F04107460D461646FEF70DFB8046C5
:102510003C6804E063695A050AD4731C1AD16369E4
:1025200025EA03039BB2002BF4D11846BDE8F081E5
:10253000236843F40073236001226FF48060042158
:1025400000236061B96387F8343087F8352010467E
:10255000BDE8F0812EB1FEF7E7FAA0EB0800B0422B
:10256000D6D90122002387F8352087F8343003209C
:10257000DCE700BF2DE9F04105460C4617461E4634
:10258000FEF7D2FA80469FB9270C296801E0721C39
:1025900020D1012F0CBF4B698B6924EA03039BB246
:1025A000003B18BF0123002BF1D10020BDE8F081D2
:1025B000270C296801E0731C1BD1012F0CBF4A694D
:1025C0008A6924EA020292B2B2FA82F25209002A1D
:1025D000F1D1EAE72EB1FEF7A7FAA0EB0800B0426E
:1025E000D3D90122002385F8352085F83430032023
:1025F000DCE7002EF5D0FEF797FAA0EB0800B0421A
:10260000D7D9EEE7F8B50668356845F480758C468D
:102610001746356013464FF0011100220446654607
:10262000FFF7A8FF20BB2369B3F5804F0ED12368C5
:1026300005F0FE051D610F493A462046FFF760FF91
:1026400018B1A36B042B13D10120F8BDEB11226844
:10265000094903F0060343F0F003136120463A46AC
:10266000FFF74EFF0028ECD12368EDB21D61E2E7D1
:102670000320F8BD02000100080001002DE9F0412F
:1026800005682E6846F480662E602E6846F48076D3
:1026900082B090460F4613462E6000224FF0011183
:1026A0000446FFF767FFA8B92369B3F5804F15D13A
:1026B000236847F00107FFB21F61204942462046C8
:1026C000FFF71EFF38B1A36B042B03D1012002B02A
:1026D000BDE8F081032002B0BDE8F081FD11236860
:1026E000174905F0060545F0F0021A6120464246FA
:1026F000FFF706FF0028E6D123681049FFB21F61EB
:1027000042462046FFF7FCFE0028DCD123685969C9
:102710000191996901910199196841F480711960D9
:10272000024643464FF001112046FFF723FF0028E1
:10273000D0D1236845F0F1051D61BEE7020001001C
:10274000080001002DE9F041066882B03568089F55
:1027500045F4807596469C46356088463B46002287
:102760004FF00111044675466646FFF703FFF0B9C6
:1027700023681B4908F0FE0018613A462046FFF71F
:10278000BFFE024630B1A36B042B10D1012002B072
:10279000BDE8F08123681349586901909B69019352
:1027A00020463B46DDF804C0FFF7E4FE18B10320E5
:1027B00002B0BDE8F081012E0CD0266809494FEA2D
:1027C000152C02463B46C6F810C02046FFF7D2FE45
:1027D0000028ECD12368EDB21D6102B0BDE8F081A4
:1027E00002000100800001002DE9F0410668356813
:1027F00045F48065356082B03768DDF8208047F4A5
:10280000807796469C4637600D46434600224FF03F
:102810000111044676466746FFF7ACFE00BB23680D
:102820002A4905F0FE021A6120464246FFF768FE7B
:10283000EDB2024630B1A36B042B11D1012002B0DE
:10284000BDE8F08123682249586901909B69019392
:1028500020464346DDF804C0FFF78CFE024618B15F
:10286000032002B0BDE8F081012F236809D0300AAF
:102870001861174943462046FFF77CFE0028EFD138
:1028800023681349F6B21E61002243462046FFF733
:1028900071FE02460028E3D121680B6843F480737F
:1028A0000B60204643464FF00111FFF763FE0028FE
:1028B000D6D12368054945F0010542461D612046F1
:1028C000FFF71EFE0028CCD0B5E700BF02000100D4
:1028D00080000100704700BF002868D070B590F8F4
:1028E0003530044603F0FF02002B4BD02268314DF7
:1028F000022384F83530136823F00103136001F0DC
:10290000C7FFD4E900212C4BA3FB00639B0CA94219
:10291000536022D840F6FC7549000133B0FBF1F05A
:102920002842136208BF0420D4E90735D4E90361C3
:10293000D06143EA0500D4E9053531432B431060EB
:102940009160D3601368002143F0010301251360F7
:10295000A16384F83550084670BD4FF49675174E44
:1029600005FB03F3A6FB03539B09A5680133136220
:102970006DB901EB4101B0FBF1F0C0F30B039BB962
:102980000120D1E780F83420FFF7A4FFAEE701EB88
:10299000810101EB8101B0FBF1F0C0F30B03002BCF
:1029A000EED040F44040BFE740F40040BCE70120D7
:1029B000704700BFA086010083DE1B43D34D621029
:1029C000704700BF90B10268022310B580F835301F
:1029D000136823F0010304461360FFF7F1FF0020A2
:1029E000A06384F8340084F8350010BD01207047DE
:1029F0002DE9F04390F835C0BCF1010F83B030D120
:102A000016465FFA8CF70AB11D461BB9384603B06B
:102A1000BDE8F083884642F2107331493A460446D5
:102A2000FFF7A8FD8146E0B994F83430012B18D0A7
:102A3000226884F834701368122023F40063136052
:102A4000414684F835000A9AC4F838902046FFF7CA
:102A5000D9FD58B1A36B84F83490042BD6D003274A
:102A6000D4E70227384603B0BDE8F08323681D4F42
:102A70005A6901929B690193019B0A9B0022394686
:102A80002046FFF777FD6B1E9BB20028E7D1226836
:102A9000317811615069410717D41D460136002D68
:102AA000EBD10A9B0F4900222046FFF763FD074642
:102AB0000028D4D122681368012143F40073136005
:102AC00084F8340084F83510A0E7002BE9D0023DEB
:102AD00073781361ADB20236002DCED1E1E700BFAD
:102AE00002001000800001002DE9F04790F835C089
:102AF00084B0BCF1010F0C9F31D116465FFA8CF8FF
:102B00000AB11D461BB9404604B0BDE8F0878946AE
:102B100042F21073604942460446FFF72BFD82469D
:102B2000E8B994F83430012B19D0226884F8348045
:102B30001368222023F400631360494684F83500AB
:102B40003A462046C4F838A0FFF798FD68B1A36B59
:102B500084F834A0042BD6D04FF00308D3E74FF00D
:102B60000208404604B0BDE8F0872368012D1A68CA
:102B700000F08480022D58D042F480621A605A69B5
:102B800003929B690393039BDFF81481032D3B465B
:102B90004FF00002414620461BD9FFF7EBFC6B1EAD
:102BA00032469BB2023D0028D6D12168096902F85D
:102BB000011B21684869400753D5ADB20B6973709A
:102BC000032D06F102063B464FF000024146204627
:102BD000E3D8012D48D0022D30494FF0000231D00A
:102BE000FFF7C8FC02460028B6D123682B491868B5
:102BF00020F4806018601B69337020463B46FFF765
:102C0000B9FC0028A8D123681A6842F400721A603F
:102C10001B69737023681B69B37001234FF00008B0
:102C200084F8353084F834806DE722F480621A60CD
:102C30001A6842F400621A605A6902929B69029310
:102C4000029BA1E7FFF796FC002885D123681A684C
:102C500042F400721A601B69337023681B69737039
:102C6000DBE71D46164691E70D49FFF783FC002878
:102C70007FF472AF23681B693370CEE722F4806261
:102C80001A605A6901929A690192019A1A6842F48B
:102C900000721A6078E700BF020010000400010013
:102CA000400001002DE9F04190F835C0BCF1010F62
:102CB00082B066D10E465FFA8CF809B115461AB992
:102CC000404602B0BDE8F081424640491F4642F20C
:102CD00010730446FFF74EFC0246002851D194F8C9
:102CE0003430012B4DD0236884F83480186838497B
:102CF00020F400604FF0120C186084F835C0A26315
:102D0000186840F4806018603B462046FFF732FCAC
:102D1000002846D123682269596900919B69009374
:102D2000B2F5404F009B42D0DFF8A8803B4600221E
:102D300041462046FFF71EFC6B1E9BB2002830D197
:102D40002268317811615169490720D41D46013646
:102D5000002DEBD13B4600224FF482312046FFF795
:102D600009FC8046E8B923686FF480625A611A68EA
:102D7000012122F480621A6084F8340084F835104E
:102D80009EE74FF00208404602B0BDE8F081002BFC
:102D9000E0D0023D73781361ADB20236002DC5D18B
:102DA000D8E74FF00308404602B0BDE8F081024684
:102DB00007493B462046FFF7DDFB0028F1D1236899
:102DC0005A6901929B690193019BADE702001000D3
:102DD00002000100800001002DE9F04190F835C0AB
:102DE000BCF1010F82B066D10E465FFA8CF809B1D2
:102DF00015461AB9404602B0BDE8F081424639494D
:102E00001F4642F210730446FFF7B4FB0246002847
:102E100051D194F83430012B4DD0236884F834809C
:102E20001868314920F400604FF0220C186084F8D3
:102E300035C0A263186840F4806018603B462046A5
:102E4000FFF798FB002846D12368DFF8A4805A6971
:102E500000929B690093009B3B460022414620461E
:102E6000FFF788FB6B1E9BB2002834D122681269E1
:102E7000327022685169490723D41D460136002D5E
:102E8000EAD11A493B4600222046FFF773FB8046F1
:102E900008BB23685A6901921A6842F001021A605D
:102EA000019A1A68012122F480621A6084F83400C1
:102EB00084F835109EE74FF00208404602B0BDE8A6
:102EC000F081002BDDD0023D13697370ADB2023684
:102ED000002DC1D1D5E74FF00308404602B0BDE850
:102EE000F08100BF0200100002000100100001008C
:102EF000400001002DE9F04390F83550012D83B0DA
:102F000036D117465FFA85F80AB11E461BB940460E
:102F100003B0BDE8F083894642F210731E49424671
:102F20000446FFF727FB054610BB94F83430012B0D
:102F30001ED0226884F834801368122023F40063C2
:102F40001360494684F835002322A563676226850D
:102F500020466685FFF756FB80B1A36B84F834509A
:102F6000042B18BF4FF00308404603B0BDE8F083C0
:102F70004FF00208404603B0BDE8F08323685A6969
:102F800001929A69019284F83400019A5A6842F4D5
:102F9000E06280465A60BAE7020010002DE9F04373
:102FA00090F83560012E85B035D19046F5B20AB162
:102FB0001F461BB9284605B0BDE8F083894642F29A
:102FC000107332492A460446FFF7D4FA064610BB6E
:102FD00094F83430012B1ED0226884F834501368E2
:102FE000222023F400631360494684F8350023222D
:102FF000A663C4F82480278520466785FFF73EFB3B
:1030000070B1A36B84F83460042B18BF03252846E5
:1030100005B0BDE8F0830225284605B0BDE8F08381
:10302000638D9BB2012B15D0638D9BB2022B23685D
:103030001A681ED042F480621A605A6903929A6933
:103040000392039A002584F834505A6842F4E062EF
:103050005A60AFE723681A6822F480621A605A69DE
:1030600001929A690192019A1A6842F400721A60F8
:10307000E8E722F480621A601A6842F400621A607B
:103080005A6902929A690292029ADBE702001000E2
:1030900090F83530012B2ED170B515460E46DAB2B8
:1030A00001B10DB9104670BD144942F210730446C7
:1030B000FFF760FA0246D8B994F83430012B17D0E4
:1030C00023681968122021F40061196084F8350022
:1030D000A26365851968666241F48061258519607F
:1030E00084F83420596841F4E0615960104670BD9D
:1030F0000222104670BD02221046704702001000E6
:1031000090F83530012B2ED170B515460E46DAB247
:1031100001B10DB9104670BD144942F21073044656
:10312000FFF728FA0246D8B994F83430012B17D0AB
:1031300023681968222021F40061196084F83500A1
:10314000A26365851968666241F48061258519600E
:1031500084F83420596841F4E0615960104670BD2C
:103160000222104670BD0222104670470200100075
:103170002DE9F04390F83560012E83B043D190469D
:10318000F7B20AB11D461BB9384603B0BDE8F0835B
:10319000894642F2107325493A460446FFF7EAF998
:1031A000064680BB94F83430012B2CD0226884F87A
:1031B00034701368E06ADFF878C0DFF878E023F451
:1031C000006342F8103B122384F83530C4F82480A1
:1031D000A6632585658541462B46C0F83CC0C0F8EE
:1031E00048E001F0CBFC494623222046FFF70AFACB
:1031F00070B1A36B84F83460042B18BF03273846E2
:1032000003B0BDE8F0830227384603B0BDE8F08381
:1032100023685A6842F400625A605A6901929B69B5
:103220000193019B84F834000746ADE702001000CB
:10323000293F0008013F00082DE9F04390F8357060
:10324000012F83B041D19046FEB20AB11D461BB991
:10325000304603B0BDE8F083894642F210732A4934
:1032600032460446FFF786F9074670BB94F83430BF
:10327000012B2AD0216884F834600B68206BDFF8BA
:1032800090C023F4006341F8103B222384F83530CA
:103290001E4BA763C4F82480258565854246836458
:1032A000C0F83CC02B4601F069FC49462322204669
:1032B000FFF7E4F970B1A36B84F83470042B18BFE6
:1032C0000326304603B0BDE8F0830226304603B043
:1032D000BDE8F083012D236810D05A6842F4805273
:1032E0005A605A6842F400625A605A6901929B69B6
:1032F00001930026019B84F83460A9E71A6822F440
:1033000080621A60EDE700BF02001000013F000874
:10331000753F00082DE9F04190F83530012B84B05D
:103320005FD10F46DEB209B115461AB9304604B076
:10333000BDE8F081314942F2107332460446FFF78E
:1033400019F9804600284CD194F83430012B48D02C
:10335000226884F834601368E06ADFF8ACC0284E55
:1033600023F4006342F8103B122384F8353067627F
:10337000C4F838802585658539462B46C0F83CC0A1
:10338000866401F0FBFB23681E495A6842F4006220
:103390005A60186840F480601860424642F2107328
:1033A0002046FFF7E7F8064600BB2369B3F5804FD8
:1033B00023681DD05A6902929B6902930246114903
:1033C000029D42F210732046FFF7D4F870B92368CB
:1033D0005A6903929B690393039B002384F834305A
:1033E000A4E70226304604B0BDE8F08103269DE73D
:1033F0005A6901929B690193019BEEE7020010005C
:10340000013F000802000100B53F00082DE9F0412E
:1034100090F83530012B82B04FD10F46DEB209B1A2
:1034200015461AB9304602B0BDE8F081264942F28D
:10343000107332460446FFF79DF8804600283CD1C1
:1034400094F83430012B38D0216884F834600B684C
:10345000206BDFF880C01D4E23F4006341F8103B61
:10346000222384F835306762C4F838802585658565
:103470003A462B46C0F83CC0866401F07FFB2368C7
:1034800013495A6842F400625A60186840F4806038
:103490001860424642F210732046FFF76BF806466A
:1034A00080B923685A6901929B690193019B84F852
:1034B0003400304602B0BDE8F0810226304602B04A
:1034C000BDE8F0810326ADE702001000013F0008CF
:1034D00002000100054000082DE9F04F90F835C0CA
:1034E00083B0BCF1010FBDF834505ED19A460C9BFD
:1034F0005FFA8CF603B11DB9304603B0BDE8F08F1A
:1035000088469146354942F2107332460446FFF729
:1035100031F88346002848D194F83430012B44D048
:10352000D4F800E084F83460DEF800000E9F20F448
:1035300000604FF0320CCEF80000534600974A4628
:1035400084F835C041462046C4F838B0FFF7FAF891
:1035500000283CD1224E0E9B002231462046FFF728
:1035600009F86B1E9BB2002836D10C9922680978A5
:103570001161506941071DD40C9A1D4601320C920D
:10358000002DE8D10E9B164900222046FEF7F2FFDF
:10359000064608BB22681368012143F400731360D8
:1035A00084F8340084F83510A6E70226304603B0CC
:1035B000BDE8F08F002BE5D00C9B5B7813610C9B72
:1035C000023D0233ADB20C93002DC4D1DAE7A36BF8
:1035D00084F834B0042B8FD003268DE7020010004E
:1035E000800001002DE9F04F8BB090F835C0169F98
:1035F000149EBDF854500397BCF1010F3CD15FFA03
:103600008CFB06B11DB958460BB0BDE8F08F88465B
:10361000914668499A465A4642F210730446FEF7AC
:10362000A9FFCDE9040038BB94F83430012B23D036
:10363000D4F800E084F834B0DEF80000039F20F4F2
:103640000060CEF800004FF0420C0097049F84F811
:1036500035C053464A4641462046A763FFF7C4F8A3
:1036600080B1A36B042B17BF059B84F8347084F8DA
:1036700034304FF0030BC6E74FF0020B58460BB047
:10368000BDE8F08F012D236800F08680022D56D012
:103690005A6909929B690993099BDFF82081039B72
:1036A000032D4FF00002414620461BD9FEF762FF72
:1036B0006B1E32469BB2023D00286AD1216809691F
:1036C00002F8011B21684869400757D5ADB20B6964
:1036D0007370032D039B06F102064FF00002414672
:1036E0002046E3D8012D4CD0022D36D0039D32491F
:1036F00000222B46FEF73EFF0246002849D12368F0
:103700002D49186820F4806018601B6933702046CA
:103710002B46FEF72FFF00283BD123681A6842F49E
:1037200000721A601B69737023681B69B3700123F0
:103730004FF0000B84F8353084F834B063E71A6832
:1037400022F480621A601A6842F400621A605A69B0
:1037500008929B690893089B9FE7039B16490022E8
:10376000FEF708FFA8B923681A6842F400721A60CD
:103770001B69337023681B697370D8E71D461646B2
:103780008DE70E49FEF7F6FE18B923681B69337002
:10379000CDE74FF0030B36E71A6822F480621A6017
:1037A0005A6907929A690792079A1A6842F4007256
:1037B0001A6072E7020010000400010040000100DE
:1037C0002DE9F04790F8356082B0012EBDF82C90BD
:1037D00043D11F460A9B5FFA86F813B1B9F1000F77
:1037E00003D1404602B0BDE8F0870D46924622491B
:1037F00042F2107342460446FEF7BCFE064660BB2A
:1038000094F83430012B28D0D4F800C084F83480E8
:10381000DCF8000020F40060CCF800004FF0320E1D
:10382000232029460A9D84F835E06562A4F8289093
:103830003B4600905246A6632046A4F82A90FEF725
:1038400081FF80B1A36B84F83460042B18BF4FF064
:103850000308404602B0BDE8F0874FF0020840463A
:1038600002B0BDE8F087226884F83400536843F45E
:10387000E06380465360B4E7020010002DE9F04792
:1038800090F8357086B0012FBDF83C9041D1984634
:103890000E9BFEB213B1B9F1000F03D1304606B052
:1038A000BDE8F0870D469246374942F21073324622
:1038B0000446FEF75FFE074658BB94F83430012BF0
:1038C00027D0D4F800C084F83460DCF8000020F47D
:1038D0000060CCF800004FF0420E232029460E9DD8
:1038E00084F835E06562A4F828904346009052467B
:1038F000A7632046A4F82A90FEF776FF70B1A36B69
:1039000084F83470042B18BF0326304606B0BDE897
:10391000F0870226304606B0BDE8F087638D9BB283
:10392000012B15D0638D9BB2022B23681A681ED021
:1039300042F480621A605A6905929A690592059A62
:10394000002684F834605A6842F4E0625A60A5E7C1
:1039500023681A6822F480621A605A6903929A698D
:103960000392039A1A6842F400721A60E8E722F49C
:1039700080621A601A6842F400621A605A690492FE
:103980009A690492049ADBE7020010002DE9F047DF
:1039900090F8356082B0012EBDF82C904BD198463E
:1039A0000A9BF7B213B1B9F1000F03D1384602B048
:1039B000BDE8F0870D469246264942F210733A461A
:1039C0000446FEF7D7FD0646002834D194F834307B
:1039D000012B30D0226884F834701368E06A1E49E5
:1039E00023F400634FF0320C42F8103B84F835C0EA
:1039F0000A9BDFF868C06362A663A4F82890A4F865
:103A00002A904B46C163C0F848C00A9901F0B6F845
:103A1000232000904346524629462046FEF792FE58
:103A200070B1A36B84F83460042B18BF03273846A9
:103A300002B0BDE8F0870227384602B0BDE8F08743
:103A40002268536843F400635360074684F83400E7
:103A5000ACE700BF0200100065400008013F00080D
:103A60002DE9F04790F8357084B0012FBDF83490FF
:103A70004BD198460C9BFEB213B1B9F1000F03D1A4
:103A8000304604B0BDE8F0870D4692462E4942F21A
:103A9000107332460446FEF76DFD0746002834D108
:103AA00094F83430012B30D0216884F834600B68EE
:103AB000206BDFF89CC0254A23F4006341F8103BDB
:103AC0004FF0420E0C9B84F835E06362A763A4F8C4
:103AD0002890A4F82A904B468264C0F83CC00C9A07
:103AE00001F04CF8232000904346524629462046D8
:103AF000FEF77AFE70B1A36B84F83470042B18BF04
:103B00000326304604B0BDE8F0870226304604B0F4
:103B1000BDE8F087B9F1010F236810D05A6842F46C
:103B200080525A605A6842F400625A605A6903929D
:103B30009B6903930026039B84F83460A0E71A680E
:103B400022F480621A60EDE702001000013F0008D5
:103B5000B14000082DE9F04F90F83560012E85B096
:103B600005D04FF0020A504605B0BDE8F08F5FFA6D
:103B700086FA884691461D464B4942F210735246DA
:103B80000446FEF7F7FC0028EBD194F83430012B03
:103B9000E7D0226884F834A01368DFF80CB123F46E
:103BA0000063136008F0FE01022384F835300191B0
:103BB000A0630746136843F4807313604FF001114C
:103BC0002B4600222046FEF7D5FC002849D1236869
:103BD000019A1A61FCF7A8FF06462068426943690A
:103BE00094F8351002F0020203F480631343C9B263
:103BF00015D1032913D04FF003085DBB84F835803D
:103C00004169436994F835C001F0020103F480630F
:103C10000B435FFA8CFC02D1BCF1030FEDD10126FE
:103C200084F83560436913F0020F03681FD16FF405
:103C3000806243F4007303605946426142F210739C
:103C400032462046FEF796FC58B901374F4525D23B
:103C50002268AFE7FCF768FF801BA8422068CDD838
:103C6000CEE74FF0030A504605B0BDE8F08F43F4AD
:103C70000073036043690393836903930A49039DB7
:103C800042F2107332462046FEF774FC824600284A
:103C9000E7D184F8356084F8340064E784F835604F
:103CA00084F834005FE700BF02001000704700BFD7
:103CB000704700BF704700BF704700BF704700BF2C
:103CC000704700BF70B503689969CD0782B002469E
:103CD0004ED599694C0720D558695C6859695D686B
:103CE000000601F0040140F18480660540F1818006
:103CF000002940F0D780516A481C50620978196148
:103D0000518D013989B25185528D92B2002A72D1FA
:103D10005A6822F480625A606DE05C695D68596996
:103D20005E68640601F0040167D56C0565D500295D
:103D300065D1418D89B2032951D802390129E7D9CA
:103D40005968446A21F4E06159601B69611C416251
:103D50002370438D013B9BB2438590F83530422B55
:103D60004FF0010380F8353078D1FFF7A9FF42E02A
:103D70005C6959685E699D69A40701F4007107D503
:103D800041B15A6900929B690093009B02B070BDDB
:103D9000F40666D458695C68596915F0040F01F09F
:103DA00004015D6812D0060677D5600575D5002937
:103DB00075D1518D89B2F1B1516A481C50620978B0
:103DC0001961538D013B9BB2538514E046065FD5C4
:103DD00060055DD500295DD1518D89B259B1516A17
:103DE0001B69481C50620B70538D013B9BB253857D
:103DF00001E0002956D102B070BD0029FBD0B50505
:103E0000F9D5518D89B2032966D0518D89B2022925
:103E1000E5D11968506A41F4007119601B69411CB1
:103E200051620370538D516A1068013B9BB25385F8
:103E30000369481C50620B70538D1168013B9BB2A3
:103E400053854B6823F440734B6092F83530422B16
:103E50004FF0010382F83530104686D0FFF728FF77
:103E6000C9E7002996D0596821F4E0615960596981
:103E70000191196841F00101196001991968012443
:103E800021F48061196080F83540FFF715FFB2E733
:103E90000029B0D0A905AED59EE70029ABD0A90571
:103EA000A9D586E7AD05A6D5518D89B2002983D164
:103EB000596821F4E0615960196841F40071196092
:103EC00092F83530322B4FF0010382F8353010462E
:103ED00010D0FFF7EBFE8EE71968506A21F480617D
:103EE00019601B69411C51620370538D013B9BB2E9
:103EF000538580E7FFF7E2FE7DE700BF704700BF14
:103F0000806B0268136810B50121002423F48063DC
:103F10001360448580F83510836B43F0100383638E
:103F2000FFF7ECFF10BD00BF10B5846B10492323D1
:103F300020460022FEF71EFB18B1A36B43F02003BE
:103F4000A36323681A6842F400721A605A6800205A
:103F500022F4006201215A60608584F83510A36B59
:103F6000204613B1FFF7CAFF10BDFFF79FFE10BD3B
:103F700004000100806B03681A6822F4806210B5A7
:103F80001A601A6842F400721A605A6822F4805269
:103F90005A605A680024012122F400625A60448564
:103FA00080F83510836B13B1FFF7A8FF10BDFFF742
:103FB0007FFE10BD10B5846B2323002220464FF4F2
:103FC0008231FEF7D7FA18B1A36B43F02003A36345
:103FD00023686FF480625A611A6822F480621A6062
:103FE0005A68002022F4006201215A60608584F83A
:103FF0003510A36B204613B1FFF780FF10BDFFF70C
:1040000059FE10BD10B5846B154982B0232320469C
:104010000022FEF7AFFA18B1A36B43F02003A363AD
:1040200023685A6901921A6842F001021A60019AE3
:104030001A6822F480621A605A68002022F4006232
:1040400001215A60608584F83510A36B20461BB1AE
:10405000FFF754FF02B010BDFFF72EFE02B010BDF7
:104060001000010010B5846B104923232046002264
:10407000FEF780FA18B1A36B43F02003A363236813
:104080001A6842F400721A605A68002022F4006232
:1040900001215A60608584F83510A36B204613B166
:1040A000FFF72CFF10BDFFF709FE10BD0400010053
:1040B000806B03681A6822F4806210B51A601A686F
:1040C00042F400721A605A6822F480525A605A68A8
:1040D0000024012122F400625A60448580F83510E2
:1040E000836B13B1FFF70AFF10BDFFF7E9FD10BDA9
:1040F00010B503685A695968D40582B001D5CA055C
:1041000045D45A695968940501D5CA0537D45A6906
:104110005968540501D5CA051ED45A695968140551
:1041200001D5CA0503D4826B5AB902B010BD826BA7
:104130006FF4006142F0080282635961826B002AC9
:10414000F3D0012280F835201A6822F400621A6048
:10415000FFF7D4FE02B010BD9C69428D90F8351077
:10416000E40792B2C9B202D40AB9122917D0826BFD
:104170006FF4806142F0040282635961CDE7826B83
:104180006FF4007142F0020282635961BFE7826BF3
:104190006FF4807142F0010282635961B1E75A689D
:1041A00001906FF4806122F4E0625A6059611A68EC
:1041B000012122F480621A6080F83510FFF77AFD41
:1041C00001980368A9E700BF90F83500704700BF69
:1041D000806B7047704700BFF0B50368DE0783B09F
:1041E00004463AD5A3498A6802F00C02042A00F07A
:1041F000F0808A6802F00C02082A03D14A6855024E
:1042000000F1E7809C4B9B4E00221A70FCF78CFC5F
:1042100041F28837054605E0FCF786FC431BBB42AC
:1042200000F2C68033689903F6D4934B22791A7052
:104230006368002B00F00981FCF776FC8D4E054683
:1042400041F2883705E0FCF76FFC401BB84200F2F2
:10425000AF8033689A03F6D523689F072DD5854A2A
:10426000916811F00C0F00F0AA80916801F00C0128
:10427000082900F0A080E368002B00F0D5807F4B78
:104280007C4E01221A60FCF74FFC054605E0FCF766
:104290004BFC401B642800F28B8033689807F6D5EE
:1042A0003168F82292FAA2F22369B2FA82F221F07E
:1042B000F80193400B43336023681A0720D4580752
:1042C00034D4A369CBB16B4DAA6802F00C02082A62
:1042D0007CD0022B6A4B4FF000021A6000F0C580C0
:1042E000FCF722FC2C46054604E0FCF71DFC401BB5
:1042F00064285DD823689B01F7D4002003B0F0BD8B
:104300006369002B6FD05F4B5A4E01221A60FCF795
:104310000BFC054604E0FCF707FC401B642847D86B
:10432000736F9B07F7D523685807CAD5514B564D75
:104330001A6C42F080521A641B6C03F08053019394
:10434000019B2B6843F480732B60FCF7EDFB064662
:1043500004E0FCF7E9FB801B642829D82B68D90509
:10436000F7D54A4B434E00221A70FCF7DDFB41F2B1
:104370008837054604E0FCF7D7FB401BB84217D846
:10438000336F9A07F7D4414B227A1A70A368002B37
:1043900000F0BC80FCF7C8FB364E054641F288377A
:1043A000336F9B078DD4FCF7BFFB401BB842F7D996
:1043B000032003B0F0BD526856023FF55CAF2D4AB2
:1043C000126895071FD5E268012A1CD0012003B0AE
:1043D000F0BD284A126890037FF53FAF6268002A5B
:1043E0007FF43BAFF2E7274A224E1360FCF79CFBB9
:1043F000054604E0FCF798FB401B6428D8D8736F8F
:104400009F07F7D48FE71B4DF821286891FAA1F197
:104410002269B1FA81F120F0F8008A4002432A6053
:104420001A077FF54CAF6BE7144A124E1360FCF786
:104430007BFB054604E0FCF777FB401B6428B7D8FC
:1044400033689907F7D4236837E7FCF76DFB094E0B
:10445000054641F2883704E0FCF766FB401BB84292
:10446000A6D833689B03F7D4F6E6FCF75DFB064657
:1044700013E000BF0038024002380240000047420B
:1044800060004742800E4742007000407038024092
:10449000FCF74AFB801B64288AD82B689901F7D463
:1044A00047F6C07696FAA6F64FF44032B6FA86F68C
:1044B00092FAA2F24FF07061B2FA82F091FAA1F191
:1044C000D4E90972D4E9073C5208E46A07FA06F60F
:1044D00043EA0C03013A82403343B1FA81F104FA12
:1044E00001F11343114A124E0B4301216B6011601D
:1044F000FCF71AFB044605E0FCF716FB001B6428DA
:104500003FF656AF33689A01F6D5F6E6FCF70CFB9A
:10451000074E054641F28837336F98077FF5D1AED5
:10452000FCF702FB401BB842F6D941E76000474266
:10453000003802407D4A136803F00F038B422DE9D7
:10454000F0410C46054609D2CBB21370136803F054
:104550000F038B4259D00120BDE8F08103689A0710
:1045600006D5734980688A6822F0F00202438A60A7
:10457000DF0728D56A68012A7AD0931E012B6C4B7D
:104580001B6840F285809907E5D5694EB36823F032
:1045900003031343B360FCF7C7FA6B68012B0746AC
:1045A0007AD0022B00F08E80032B00F0B58041F210
:1045B000883804E0FCF7B8FAC01B404565D8B368FA
:1045C00013F00C0FF6D1594BE2B21A701B6803F0CE
:1045D0000F03A342BFD12B685A0706D55449E86898
:1045E0008A6822F4E05202438A601B0707D5504ACA
:1045F0002969936823F4604343EAC10393600F2061
:10460000FCF760FA0020BDE8F08103689F0706D53B
:10461000474980688A6822F0F00202438A60DE0718
:10462000DAD56A68012A48D0931E012B404B1B68DB
:1046300040D999078FD53E4CA36823F00303134359
:10464000A360FCF771FA6B68012B064648D0022B79
:1046500054D0032B11D041F2883704E0FCF764FA00
:10466000831BBB4211D8A36813F00C0FF6D1B2E73D
:104670002F4B1B689E0388D46DE741F28835A368F1
:10468000FCF752FA801BA842F9D90320BDE8F0815B
:1046900098013FF57AAF5EE741F2883804E0FCF715
:1046A00043FAC01B4045F0D8B36803F00C03042B59
:1046B000F5D188E79801BED44DE71D4B1B689C03DC
:1046C000B9D448E741F2883804E0FCF72DFAC01B62
:1046D0004045DAD8B36803F00C03082BF5D172E734
:1046E00041F2883704E0FCF71FFA801BB842CCD8AF
:1046F000A36803F00C03042BF5D16CE741F2883773
:1047000004E0FCF711FA801BB842BED8A36803F09E
:104710000C03082BF5D15EE741F28834B368FCF74F
:1047200003FAC01BA042F9D9AFE700BF003C02402A
:104730000038024070B50D4688B01446F8B9214ED5
:10474000326B42F001023263326B02F00102034627
:1047500001924FF48071019A05930793022203910D
:1047600003231948049203A90693FCF75BFAB26885
:1047700022F0EC622A432243B26008B070BD114EB1
:104780001248336B43F004033363336B03F00403C9
:1047900002934FF4007202230299039204930322BE
:1047A000002303A9059307930692FCF73BFAB3682D
:1047B00023F0784343EA050141EAC401B16008B03F
:1047C00070BD00BF003802400000024000080240F7
:1047D000014B01221A6070474C004742014B0022F6
:1047E0001A6070474C004742194A936803F00C0363
:1047F000042B2BD0082B27D15168536801F03F01BF
:1048000013F4800F536847F6C07292FAA2F0B0FA20
:1048100080F003EA020323FA00F314BF0D480E48A8
:10482000B0FBF1F000FB03F0094B4FF440325B6842
:1048300092FAA2F2B2FA82F203F44033D340013387
:104840005B00B0FBF3F070470348704701487047C6
:104850000038024000127A000024F40008B5FFF787
:10486000C3FF084BF0229B6892FAA2F2B2FA82F2DE
:1048700003F0F0030449D340044ACB5CD8401060F5
:1048800008BD00BF00380240E860000804000020B6
:1048900008B5FFF7E3FF074B4FF4E0529B6892FA2D
:1048A000A2F2B2FA82F203F4E053D340024AD35C9C
:1048B000D84008BD00380240E860000808B5FFF79E
:1048C000CDFF074B4FF460429B6892FAA2F2B2FA16
:1048D00082F203F46043D340024AD35CD84008BD5F
:1048E00000380240E86000080F22314B02601A686D
:1048F000520310B44ED5052343602D490B6803F0D5
:104900000103C3600B68F82292FAA2F2B2FA82F2B3
:1049100003F0F803D34003610B6F5B0741D5052318
:104920008360234A536F03F001034361136813F05C
:10493000807F14BF022301238361536803F4800343
:10494000C361536803F03F030362536847F6C074C2
:1049500094FAA4F1B1FA81F12340CB404362536849
:104960004FF4403191FAA1F103F4403303F5803361
:10497000B1FA81F15B00CB40836253684FF0706203
:1049800092FAA2F2B2FA82F203F07063D34010BC42
:10499000C36270471B6813F4803318BF0123436060
:1049A000ABE70B6F13F0010318BF01238360B8E777
:1049B000003802400D4B0F2202609A6802F0030299
:1049C00042609A6802F0F00282609A6802F4E05253
:1049D000C2609B68DB0810B403F4E053044C03612D
:1049E000236810BC03F00F030B60704700380240CF
:1049F000003C0240704700BF08B5054BDB681B0652
:104A000000D408BDFFF7F6FF024B80221A7008BDE4
:104A1000003802400E380240002849D070B4D0E976
:104A200001250346D0E903012A435C699D691E6A9A
:104A300002430A43D86919682243022483F83540A7
:104A40002A4302430D681B4C586A32432C40042809
:104A500042EA04021FD00A604A6922F007021043AA
:104A6000154C4861CAB2103AA4FB02400009134C2D
:104A700021F47F71205C586521F003015F2A4FF01B
:104A800000004FF0010288BF0431D86483F835205C
:104A900070BC19657047D3E90B40044322439D6AFB
:104AA0000A60486920F00700284340F00400D7E777
:104AB000012070473F8010F0ABAAAAAAF860000856
:104AC00000282FD090F83530022B02462AD00368F8
:104AD0001549D8B2103870B4A1FB00611D68134CA1
:104AE000090925F00105665C1D600021212419607B
:104AF00059609960D96019615C6123F47F7323F078
:104B000003035F2888BF04333F240021B440566567
:104B100013659C60D16482F8341082F83510084621
:104B200070BC704701207047ABAAAAAAF8600008C1
:104B300070B490F83440012C1DD004680126022581
:104B400080F8346080F835502568866825F00105C6
:104B500025602068402E20F48020206063600BBF19
:104B6000A260A160E160E260236843F0010323607A
:104B7000002070BC7047022070BC704770B490F881
:104B80003440012C25D004680126022580F83460C9
:104B900080F835502568866825F001052560206875
:104BA000402E20F48020206063600BBFA260A160D3
:104BB000E160E260236843F01E032360636943F011
:104BC00080036361236843F001032360002070BC0D
:104BD0007047022070BC7047026838B5136823F034
:104BE000010313600446FBF79FFF054605E0FBF752
:104BF0009BFF401BB0F57A7F0BD823681B6813F02E
:104C00000103F4D1012284F8343084F835201846A9
:104C100038BDE26C0323002142F02002E26484F8F4
:104C2000341084F83530184638BD00BF2DE9F04FF8
:104C300083B0046D436D00918246904600293DD1BA
:104C400020279F40FBF770FFDFF834B1DFF8349185
:104C500001900821DAF854E001FA0EFC0BFA0EF28A
:104C600009FA0EF00FE026682368256816EA0C0F93
:104C700003EA020305EA000523D15BBB002D3BD10B
:104C8000B8F1FF3F40D123683B42ECD0009B002BA2
:104C900053D13023DAF8002003FA0EF3A36013682F
:104CA000580302D51368190359D411238AF83530F3
:104CB00000208AF8340003B0BDE8F08F10279F4031
:104CC000C0E7DAF84C1041F00101CAF84C10C4F802
:104CD00008C033B1DAF84C3043F00203CAF84C3064
:104CE000A2604DB9042200238AF835208AF83430B6
:104CF000012003B0BDE8F08FDAF84C3043F0040334
:104D0000CAF84C30A060EDE7B8F1000F07D0FBF710
:104D10000BFF019BC01A40454FF008019AD9DAF801
:104D20004C30032243F020030021CAF84C301046D7
:104D30008AF835208AF83410DBE71023DAF80020EF
:104D400003FA0EF3A360106810F4802003D01068FB
:104D500010F400200AD131238AF83530C9E71368EE
:104D60001B03A5D521238AF83530A1E7136813F476
:104D700000231CBF41238AF835300020B9E700BF6B
:104D800001008000040080002DE9F041D0E91453B7
:104D9000082229689A401142044604D001680E682E
:104DA000760700F183805A4A29689A40114203D05D
:104DB00021684869000663D4564A29689A4011421E
:104DC00003D021680868870745D4296810229A40D3
:104DD000114203D021680868060727D429682022D9
:104DE00002FA03F319421FD022681168CF061BD5BF
:104DF00011684E0378D41168C90503D4116821F0F5
:104E000010011160AB60E26CE36BE26411210022DF
:104E100084F8351084F8342033B12046BDE8F041E1
:104E20001847136818036ED4BDE8F0810868400382
:104E300052D40868C00503D4086820F00800086050
:104E40003121AA6084F83510226C002AC6D0204691
:104E50009047636DC2E70868A66C20F00200086006
:104E6000AA60E26C04210A430020E26484F8340062
:104E700084F83510002EA8D02046B047636DA4E713
:104E80004869A66C20F080004861AA60E26C0421A9
:104E900042F002020020E26484F8340084F8351005
:104EA000002E89D02046B047636D85E70E68876C79
:104EB00026F004060E60AA60C26C042142F00102D2
:104EC0000026C26480F8346080F83510002F3FF46B
:104ED0006AAFB847636D66E7AA600A6817030BD428
:104EE000312284F83520AFE7AB6013681D0398D4F6
:104EF000636C002B91D197E70A681603A4D5412271
:104F000084F83520A0E7E36B002B86D18CE700BF47
:104F1000010080000400800090F83500704700BF59
:104F2000C06C7047830730B547D0541E002A3ED06E
:104F3000CAB2034601E0013C39D303F8012B9D07B7
:104F4000F9D1032C2CD9CDB205EB05250F2C05EB9F
:104F5000054535D9A4F1100222F00F0C03F1100E13
:104F6000E6444FEA121C1A46C2E90055C2E902554E
:104F700010327245F8D10CF1010214F00C0F03EB62
:104F8000021204F00F0C13D0ACF1040323F003035E
:104F90000433134442F8045B9342FBD10CF0030446
:104FA0002CB1C9B21C4403F8011BA342FBD130BD94
:104FB00064461346002CF4D1F9E703461446C0E7D3
:104FC0001A46A446E0E700BF70B50F4B0F4DAB4249
:104FD000A3EB050607D0B610002455F8043B0134B6
:104FE0009847A642F9D801F051F8094D094B5E1BCC
:104FF000AB424FEAA60606D0002455F8043B013424
:105000009847A642F9D870BD6805002068050020C1
:10501000680500207005002008B50021044600F056
:1050200023F8034B1B6803B19847204601F02CF886
:10503000FC080020002301461A46184600F076B806
:1050400038B5074D074C2C1BA41005D0013C55F872
:10505000043D9847002CF9D1BDE8384001F01CB858
:1050600074050020700500202DE9F04F294F83B012
:105070003E6801905EB38B464FF000094FF0010887
:105080007468651E23D4013406EB8404BBF1000F61
:1050900020D173682268013BAB420CBF7560C4F835
:1050A00000907AB1D6F88811D6F804A008FA05FC69
:1050B0001CEA010F1AD1904771683A68514522D114
:1050C000B24220D1013D6B1CA4F10404DED103B037
:1050D000BDE8F08FD4F800315B45DAD0013D6A1CA1
:1050E000A4F10404F6D103B0BDE8F08FD6F88C31FA
:1050F000D4F880101CEA030F09D101989047716819
:105100003A685145DCD0002AE1D01646B8E7084697
:105110009047D1E730060020024B13B10248FFF759
:1051200089BF7047000000004150000870B4164D60
:105130002C681CB365681F2D23DC38B9AB1C013506
:10514000656044F82310002070BC704704EB850CA8
:105150000228CCF88820D4F888614FF0010202FAC6
:1051600005F246EA0206C4F88861CCF80831E5D1B8
:10517000D4F88C311343C4F88C31DFE7034C2C6036
:10518000D8E74FF0FF30DFE730060020340600207C
:1051900000207047024A0349034800F00BB900BFE2
:1051A00024000020055C0008380000200C4B4168FA
:1051B000994210B5044601D000F024FDA168094BC6
:1051C000994202D0204600F01DFDE168064B99424D
:1051D00004D02046BDE8104000F014BD10BD00BF53
:1051E000C40700202C0800209408002000207047ED
:1051F0002DE9F8432A4C2B49DFF8AC90DFF8AC805E
:105200002B4FC4F83811002504230822294604F145
:105210005C00284EE360C4E90055C4E90455A5606C
:105220006566A561FFF77EFE234B6367082229466A
:1052300004F1C400C4E90749C4E90987C4E91A555F
:10524000C4E91E552567C4F8CC50C4F88050E66206
:10525000FFF768FE194BC4F8DC30294604F16803F7
:10526000082204F59670C4F88430C4E92298C4E991
:105270002476C4E93455C4E93855C4F8D850C4F884
:105280003451C4F8E850FFF74DFE04F1D003C4E9EF
:105290003C98C4E93E76C4F8EC30BDE8F88300BF22
:1052A000C407002095510008B15C0008D95C0008D3
:1052B000195D00083D5D00080900010012000200B0
:1052C000F8B5254BD3F838310646002B3CD0234F98
:1052D000D7E90134013B04D51DE05A1C04F16804F0
:1052E00019D0B4F90C50013B002DF6D11C4BE360F2
:1052F000C4E90155C4E9045565662560A561082225
:10530000294604F15C00FFF70DFEC4E90C55C4E921
:1053100011552046F8BD3D680DB12F46D8E74FF432
:10532000D671304600F068F8044680B10423C0E925
:1053300000530C302946A0604FF4D0722546FFF789
:10534000F1FD3C602F46C3E7FFF752FFBFE70C2398
:1053500038603360DDE700BFC40700202400002070
:105360000100FFFF436B03B17047044B044AD3F8BD
:1053700038314263002BF7D13AE700BFC407002061
:10538000AD510008704700BF704700BF024A034993
:10539000002000F00FB800BF240000209151000849
:1053A000024A0349002000F005B800BF2400002095
:1053B000ED5100082DE9F8430746884616464FF0A0
:1053C0000009D6E90154013D10D4A389012B08D965
:1053D000B4F90E3001332146384602D0C04749EABD
:1053E0000009013D6B1C04F16804EED13668002E03
:1053F000E7D14846BDE8F8832DE9F04F01F10B05F0
:10540000162D83B0064623D8102900F2AF8000F095
:10541000AFFC102518230220C14F3B44A3F1080222
:105420005C68944200F025816368E268A16823F01B
:105430000303CA602344304691605A6842F0010277
:105440005A6000F097FC0834204603B0BDE8F08FA6
:1054500035F0070500F18A80A94200F2878000F04C
:1054600087FCB5F5FC7FC0F06D816B0A00F082808F
:10547000042B00F22481AB0903F1390003F1380E4B
:10548000C300A74F3B44A3F1080C5C68A44507D1B7
:105490000DE0002AE16880F2E6808C4507D00C46DA
:1054A000636823F003035A1B0F2AF2DD7046DFF80E
:1054B00074823C69444500F0C380636823F0030CA8
:1054C000ACEB05030F2B00F34181002BC7E90488E7
:1054D00080F22C81BCF5007FD7F804E080F0CF800B
:1054E0004FEADC0101314FEA5C1C012303FA0CF3A3
:1054F00057F83120A2604EEA030E07EBC103083BC8
:10550000E360C7F804E047F83140D46083104FF0FF
:10551000010C0CFA03FCF44532D81CEA0E0F08D13A
:1055200020F003004FEA4C0C1CEA0E0F00F10400BF
:10553000F8D007EBC00AD6468146DEF80C300BE007
:10554000596821F003014A1B0F2A1C46DB6800F34F
:10555000C280002A80F2D6809E45F1D109F101096E
:1055600019F0030F0EF1080EE7D118E10C23336098
:10557000002469E74FF4007340204FF03F0E80E7AE
:10558000BC68636823F00309A94503D3A9EB0503AD
:105590000F2B58DCDFF890B1DBF8002004EB090397
:1055A0001032082002EB0508009300F073FBD7F8D7
:1055B00008140131024605D008F1FF388044414209
:1055C00001EA080841463046009200F0D5FBB0F1F0
:1055D000FF3F009A824600F0D48004EB0903834227
:1055E00000F2CD80DBF804104144CBF804100846EB
:1055F00002F1FF3C40F0F5801AEA0C0F40F0F18018
:10560000D7F808A0C84448F00100CAF80400DBF845
:105610002C208A42DBF8302038BFCBF82C108A428D
:1056200038BFCBF83010544620F00308A845A8EB4B
:10563000050301D30F2B06DC304600F09BFB97E7F8
:10564000D7F804E062E7621943F0010345F0010571
:1056500065603046BA60536000F08CFB0834204629
:1056600003B0BDE8F08FA2682344D16030468A6061
:10567000E3E6DC68A3427FF4D7AE023017E7BCF55F
:10568000206F4FEA5C2273D3142A00F20A8102F1E0
:105690005C03DB005B32F918FB580839994203D1EF
:1056A000E6E09B68994204D05A6822F00302624502
:1056B000F7D8D968C4E902318C60DC6026E7142B86
:1056C00062D9542B00F2F6802B0B03F16F0003F12B
:1056D0006E0EC300D5E6D4F808C03046661945F012
:1056E00001056560CCF80C30C3F808C042F0010336
:1056F000C7E90466C6E902887360625000F03AFBAD
:105700000834A1E6214430464A6842F001024A606A
:1057100054F8082FD3609A6000F02CFB94E600BF89
:10572000580100206001002000090020A4443046F8
:10573000DCF8043043F00103CCF8043000F01AFB2D
:10574000083481E6E80805F1080365E6621943F0CC
:10575000010145F0010565603046C7E90422C2E950
:105760000288516044F80C3000F004FB08346BE60A
:105770004FEA9C1202F13903DB0038328BE7BC425E
:1057800028D0BC6860684FE703F15C0003F15B0E52
:10579000C30076E65AF80839534540F0D88010F037
:1057A000030F00F1FF30F5D17B6823EA0C037B6027
:1057B0004FEA4C0C9C453FF6E3AEBCF1000F04D120
:1057C000DEE64FEA4C0C09F104091CEA030FF8D09D
:1057D0004846AEE6DBF804004044CBF8040002F192
:1057E000FF3CD7F8081401316ED004EB0903AAEB93
:1057F00003031844CBF804001AF00703009341D0C8
:10580000C3F108018A44D0440A4408EA0C01521A40
:1058100002EA0C013046019100F0AEFA421C6FD052
:105820000199A0EB0A0000EB0108DBF80420C7F89F
:1058300008A048F001001144BC42CAF80400CBF8AB
:1058400004103FF4E4AEB9F10F0F40D96268A9F13A
:105850000C0020F0070002F0010202436260052301
:1058600022180F28C2E9013352D8DAF80400CEE634
:1058700092104FF0010C0CFA02F24EEA020EC7F839
:1058800004E017E70AEB080101EA0C01521A02EAE8
:105890000C013046019100F06FFA431CC0D1009911
:1058A000C3E7542A17D84FEA1C3202F16F03DB001A
:1058B0006E32F0E6B3F5AA7F17D8EB0B03F1780050
:1058C00003F1770EC300DCE5C7F808A494E70123D1
:1058D000CAF80430B0E6B2F5AA7F23D84FEADC322A
:1058E00002F17803DB007732D5E640F2545293425E
:1058F00023D8AB0C03F17D0003F17C0EC300C0E59F
:10590000009BA3F108029044A8EB0A0800218CE751
:1059100004F10801304600F079F8DBF80410D7F8FC
:1059200008A0A2E740F254539A420CD84FEA9C4296
:1059300002F17D03DB007C32ADE64FF47E737F2005
:105940004FF07E0E9DE54FF47E737E22A3E67B68CA
:105950002EE700BF2DE9F84306460820894600F0EF
:1059600099F9DFF89C800546304600F001FAD8F836
:1059700008305F6827F00307A7F11104A4EB0904BE
:105980002C44B4FBF5F4013C05FB04F4A54208DC0F
:105990000021304600F0F0F9D8F808303B44984236
:1059A00005D0304600F0E6F90020BDE8F8836142FA
:1059B000304600F0E1F901300FD0124AD8F8083033
:1059C0003F1B47F001075F60136830461B1B1360E5
:1059D00000F0D0F90120BDE8F8830021304600F046
:1059E000CBF9D8F80820831A0F2BDADD43F0010336
:1059F0005360054B03491B68C01A0860D1E700BF1C
:105A000058010020040900206005002000297CD0F6
:105A1000F8B50C46064600F0ABF954F8043C764F56
:105A2000A4F1080523F001016818D7F808C04268FE
:105A3000844522F0030200F08380DB07426000EB24
:105A4000020C33D454F8084CDCF804302D1B2144EC
:105A5000AC6807F1080C644503F0010364D0D5F885
:105A60000CE0C4F80CE0CEF80840002B00F0818078
:105A700041F001036B600160B1F5007F22D27868CC
:105A8000CB080122490901338A40024357F83310F9
:105A90007A6007EBC302083AC5E9021247F83350AF
:105AA000CD603046BDE8F84000F064B9DCF8043061
:105AB000DB072BD541F00103B1F5007F44F8043C2E
:105AC0000160DCD3B1F5206F4FEA512353D28B092B
:105AD00003F1390003F13802C300F818FB58083805
