:020000040800F2
:1000000000000220916C0008550A0008590A0008F7
:100010005D0A0008610A0008650A00080000000087
:10002000000000000000000000000000690A000855
:100030006D0A000800000000710A0008750A000837
:10004000E16C0008E16C0008E16C0008E16C00085C
:10005000E16C0008E16C0008790A0008E16C000816
:10006000E16C0008E16C0008E16C0008E16C00083C
:10007000E16C0008E16C0008E16C0008E16C00082C
:10008000E16C0008E16C0008E16C00080000000071
:10009000000000000000000000000000E16C00080B
:1000A000E16C0008E16C0008E16C0008E16C0008FC
:1000B000E16C0008E16C0008E16C0008E16C0008EC
:1000C000E16C0008E16C0008E16C0008E16C0008DC
:1000D000E16C0008E16C0008E16C00080000000021
:1000E000E16C0008E16C0008E16C00080000000011
:1000F000000000000000000000000000E16C0008AB
:1001000000000000E16C0008E16C0008E16C0008F0
:1001100000000000000000000000000000000000DF
:10012000E16C0008E16C0008E16C0008E16C00087B
:10013000E16C00080000000000000000000000006A
:10014000000000000000000000000000E16C00085A
:10015000E16C0008E16C0008E16C0008E16C00084B
:10016000E16C0008E16C00080000000000000000E5
:10017000000000000000000000000000000000007F
:1001800000000000E16C000800000000000000001A
:08019000E16C0008E16C0008BD
:100198000348044B834202D0034B03B1184770470E
:1001A8005805002058050020000000000548064BAF
:1001B8001B1AD90F01EBA301491002D0034B03B15D
:1001C8001847704758050020580500200000000017
:1001D80010B5064C237843B9FFF7DAFF044B13B187
:1001E8000448AFF300800123237010BD5805002098
:1001F800000000006C6D000808B5044B1BB10449F1
:100208000448AFF30080BDE80840CFE700000000D5
:100218005C0500206C6D0008A3F5803A704700BFAC
:10022800154B002B08BF114B9D46FFF7F5FF00212A
:100238008B460F461148124A121A05F07BFC0C4BEC
:10024800002B00D098470B4B002B00D0984700207C
:10025800002104000D000B4805F0F4FC05F0BCFC7F
:100268002000290006F03AFD05F0DEFC0000080039
:1002780000000000000000000000000058050020F9
:100288001C090020595C0008186E000800000020B6
:1002980058050020580500201C0900200D4B0E4869
:1002A8001A68002142F0010210B41A6099601A68B5
:1002B8000A4C22F0847222F480321A605C601A6858
:1002C80010BC22F480221A604FF00062D96082606C
:1002D800704700BF0038024000ED00E010300024F5
:1002E800164A936803F00C03042B25D0082B0AD078
:1002F800134B124A134892681349C2F30312825CE3
:10030800D3400B6070475368516813F4800F5368EB
:1003180014BF0E4A0A4AC3F3881301F03F01B2FB27
:10032800F1F202FB03F3054A5268C2F301420132BB
:100338005200B3FBF2F3DCE7044BDAE70038024083
:100348000024F400AC6D00080400002040787D0112
:100358002DE9F0412A4C2B4B236010210122E16149
:10036800002302260721C4E90462E162C4E90933D3
:100378004FF40071244DA1614FF482716160A36054
:10038800E36023622B6B214F13432B632B6B88B0E5
:1003980013400093009B2B6B13432B632B6B04962A
:1003A800134001932023019903934FF00508032379
:1003B80003A93846CDE90523CDF81C8000F0BEFD21
:1003C800802303A938460393CDF81C80059600F0D6
:1003D800B5FD3846402303A90393059600F0AEFD0A
:1003E8006B6C43F480536B646B6C03F4805302931F
:1003F800029B204608B0BDE8F04101F08BBC00BF6D
:10040800780500200030014000380240000002401A
:1004180000B5104B87B01B680093844601230E4833
:100428008DF80FC00DF117020DF10F0101F08EFDCF
:1004380010B907B05DF804FB074801F0ABFC0648AB
:1004480002F010FD0028F4D1FFF782FF07B05DF835
:1004580004FB00BF08000020780500200048704712
:1004680000090201104B10B51A6B104C42F0010242
:100478001A631B6B88B004EB800403F0010320208F
:100488000121CDE9020101936068002202A902233B
:10049800CDE90423019B00F051FD60680022202172
:1004A80000F03AFF08B010BD0038024008000020F4
:1004B80010B5074C04EB800420216068002200F08E
:1004C8002BFF60682021BDE8104000F061BE00BF2E
:1004D80008000020034B03EB800301225868202109
:1004E80000F01ABF08000020034B03EB8003002232
:1004F8005868202100F010BF08000020034B03EBD0
:1005080080032021586800F00BBF00BF08000020BE
:100518001C4BF0B51A6B42F004021A631B6B89B0CE
:1005280003F004030193019B0B46D9B1012901D0C3
:1005380009B0F0BD144B154F03EB800300249868F5
:10054800049402A94FF40056CDE9026700F0F6FCC6
:1005580022460F21282000F0BFFB282000F0F8FBDE
:1005680009B0F0BD084A02EB8002022490684FF4FB
:10057800005502A9CDE90253CDE9044400F0DEFCA0
:1005880009B0F0BD0038024008000020000021102A
:1005980010B50446282000F0E7FB054800EB84006E
:1005A8004FF40051BDE81040806800F0F1BD00BF75
:1005B8000800002008B5044B03EB80034FF40051FA
:1005C800986800F0A3FE08BD08000020254B2648C7
:1005D8001A6BF0B542F002021A631B6B8BB003F082
:1005E80002030393012203232024012504A9CDE952
:1005F8000623CDE90445039B00F0A0FC1B4802F04C
:1006080031FC58B318481A4F184D0122202100F028
:1006180083FE0A24FF2603E0631E13F0FF041BD0A9
:100628003B6800930DF10B0201230DF10A012846E6
:100638008DF80A6001F08AFC0028EDD0284601F008
:10064800A9FB284602F00EFC0028E5D1FFF780FE42
:10065800631E13F0FF04E3D10BB0F0BDFFF778FE83
:10066800D0E700BF003802400004024078050020AF
:10067800080000200246012A024818BF0022202153
:1006880000F04ABE0004024010B50D4C82B084460A
:100698001346226800920B480A46614601F056FC50
:1006A80008B902B010BD074801F074FB054802F014
:1006B800D9FB0028F5D102B0BDE8104048E600BFDC
:1006C800080000207805002000B5124B87B01B6891
:1006D80000938446012310488DF80FC00DF11702CE
:1006E8000DF10F0101F032FC20B99DF8170007B099
:1006F8005DF804FB084801F04DFB074802F0B2FB27
:100708000028F2D1FFF724FE9DF8170007B05DF826
:1007180004FB00BF08000020780500201C4B00B532
:100728001A6B42F002021A631A6B89B002F00202D5
:100738000092009A1A6B42F001021A631B6B402068
:10074800012103F001030022CDE9020101931148C0
:10075800032302A9CDE90423019B00F0EFFB4FF42A
:1007680000730D48029302A900F0E8FB0948012232
:10077800402100F0D1FD094802F074FB10B109B026
:100788005DF804FBFFF7E4FD09B05DF804FB00BF6A
:1007980000380240000402400000024078050020B2
:1007A80038B50B4D044600222846402100F0B4FD20
:1007B80000224FF40071074800F0AEFD2046FFF715
:1007C80027FE28460122BDE83840402100F0A4BD9C
:1007D800000402400000024038B50B4D04460022D8
:1007E8002846402100F098FD01224FF40071074887
:1007F80000F092FD2046FFF70BFE28460122BDE8D7
:100808003840402100F088BD00040240000002404A
:1008180030B583B000220D46044640211B480192A2
:1008280000F07AFD1A4801224FF4007100F074FDBF
:10083800012D25D0174B1B68A5B104F1020C6119D5
:100848009A689407FCD51CF8012C1A739A689007CB
:10085800FCD51CF8022C1A738C450CF1020201D04D
:100868009446EDE79A681206FCD4DB680193019B75
:1008780006480122402103B0BDE8304000F04CBDDD
:100888002078FFF7C5FD034B1B68EEE70004024024
:10089800000002407805002000F094B90C4B10B518
:1008A8001A6B012422431A631B6B88B02340012072
:1008B8000221CDE902010193002206480694002393
:1008C80002A9CDE90423019B00F038FB08B010BD54
:1008D8000038024000000240D0B500238AB0CDE9BC
:1008E8000233CDE90433CDE90633154A0893116C78
:1008F800144C41F001011164126CA36002F0010272
:100908000192019823614FF08041532240F2E7336E
:100918002046C4E90012E36003F04EFF00B1FEE791
:10092800024660264FF4FA7702A92046CDE902670D
:10093800049204F005F900B1FEE70AB0D0BD00BF8B
:1009480000380240D005002010B592B000230122E3
:10095800CDE90733CDE90133CDE903330B930D938B
:1009680005931023CDE9092302244FF4A8710E93AF
:100978000422072306A8CDE90F1206940C941193BC
:1009880000F0F8FC00B1FEE70F210346CDE90114A1
:100998004FF4805201A82146CDE90332059300F0B7
:1009A8008BFE00B1FEE712B010BD00BF89B330B5B1
:1009B8000368B3F1804F83B004461BD0184D0B0475
:1009C800B5FBF3F3581C023303FB01F1B5FBF1F55A
:1009D8006B1EB3F5803F19D200226060C4E9022380
:1009E8002261204603F0E8FEB0B923686D085D6314
:1009F80003B030BD03F50E331A6C42F001021A64DD
:100A08001B6C03F001030193019BD7E76FF0020011
:100A1800EEE74FF0FF3070476FF00300E8E700BFE4
:100A280000BD010564290AD8C268064B02FB011102
:100A3800A3FB0131026849095163002070474FF058
:100A4800FF3070471F85EB51FEE700BF704700BFBE
:100A5800FEE700BFFEE700BFFEE700BFFEE700BFFE
:100A6800704700BF704700BF704700BF00F09CB8D8
:100A78004FF4005000F070BC1A4B30B51A6B1A4C8A
:100A880042F001021A631A6B8BB002F00102019264
:100A9800019A1A6B42F001021A631A6B02F0010202
:100AA8000292029A1A6C42F400321A641B6C03F424
:100AB8000033039304220223CDE9042307250122EE
:100AC80004A920460223CDE906230895039B00F0DC
:100AD80035FA082304A920460493089500F02EFA55
:100AE8000BB030BD00380240000002400A4B1A6AC1
:100AF80042F4003210B51A621A6A084C22F4003225
:100B0800204604211A6200F043FB20460821BDE874
:100B1800104000F03DBB00BF00380240000002401A
:100B2800704700BF704700BF10B5094B4FF0FF3248
:100B380000241A621C625A625C621A611C615A6162
:100B48005C619A619C61FFF7EDFF204610BD00BF14
:100B58000038024010B5044600F044FF064AA2FBE4
:100B68000020800900F01EF900224FF0FF302146D6
:100B780000F0B2F8002010BDD34D621008B5094B43
:100B88001A6842F400721A601A6842F480621A60A5
:100B9800032000F08FF80F20FFF7DCFFFFF7C0FFFE
:100BA800002008BD003C0240024A1368013313606C
:100BB800704700BF0C060020014B1868704700BF43
:100BC8000C06002010B582B00190FFF7F5FF04462F
:100BD800FFF7F2FF019B001B9842F9D302B010BD4A
:100BE8004FF0E022136923F002031361704700BF3E
:100BF8004FF0E022136943F002031361704700BF0E
:100C08004FF08270704700BF014B1868000C7047A6
:100C1800002004E0024B1868C0F30B00704700BFC7
:100C2800002004E0024A536843F001035360704710
:100C3800002004E0024A536823F001035360704720
:100C4800002004E0024A536843F0020353607047EF
:100C5800002004E0024A536823F0020353607047FF
:100C6800002004E0024A536843F0040353607047CD
:100C7800002004E0024A536823F0040353607047DD
:100C8800002004E0012292FAA2F30349B3FA83F3A5
:100C980041F82320704700BF00042742012393FA3C
:100CA800A3F3034AB3FA83F3002142F823107047F1
:100CB800000427420749CA6803024FF6FF0003F4FD
:100CC800E0630240134343F0BF6343F40033CB6057
:100CD800704700BF00ED00E01B4BDB68C3F3022345
:100CE80000B5C3F1070EBEF1040F03F1040C28BFD1
:100CF8004FF0040EBCF1060F1CD9A3F1030C4FF002
:100D0800FF3303FA0CF322EA03024FF0FF3303FA2E
:100D18000EF321EA030303FA0CF313431B01002823
:100D2800DBB20ADB00F1604000F5614080F8003377
:100D38005DF804FB00229446E7E7044A00F00F0040
:100D4800024413765DF804FB00ED00E0FCEC00E0E3
:100D58004109044A00F01F000123834042F8213072
:100D6800704700BF00E100E04309044900F01F009C
:100D780001222033824041F82320704700E100E03F
:100D8800BFF34F8F0549064BCA6802F4E06213436C
:100D9800CB60BFF34F8F00BFFDE700BF00ED00E061
:100DA8000400FA050138B0F1807F01D301207047B3
:100DB80010B44FF0E023064C58614FF0F00C84F863
:100DC80023C00022072110469A6110BC19617047A0
:100DD80000ED00E017494378C1F89830027822B353
:100DE800436800B5C1F89C30C37A90F80CC090F8FD
:100DF8000FE01B0643EA0C7390F80AC0134343EA5A
:100E0800CC4390F80DC0827B43EA8C4343EA4243CB
:100E180090F809C0027A43EA0E4343EA0C2343EAF6
:100E28004203C1F8A0305DF804FBC1F89C20C1F86A
:100E3800A020704700ED00E0024BD868C0F3022004
:100E4800704700BF00ED00E0002810B426DB00F179
:100E5800604000F5614090F80003000901F00701C7
:100E6800C1F1070CBCF1040F01F1040428BF4FF0D5
:100E7800040C062C10D903394FF0FF348C4020EABB
:100E88000404C8404FF0FF3101FA0CF120EA0100D8
:100E980010601C6010BC70470024F3E7034C00F09E
:100EA8000F000444207E0009D8E700BFFCEC00E0F6
:100EB8004309044900F01F0001224033824041F8F1
:100EC8002320704700E100E04309054A403300F061
:100ED8001F0052F8233023FA00F000F00100704799
:100EE80000E100E04309044900F01F0001226033DB
:100EF800824041F82320704700E100E04309054A99
:100F0800803300F01F0052F8233023FA00F000F07D
:100F18000100704700E100E04FF0E0220428136967
:100F28000CBF43F0040323F004031361704700BFB0
:100F3800704700BF08B5FFF7FBFF08BD2DE9F04F6C
:100F480000230C68DFF820B285B08A4603E001333D
:100F5800102B00F0A580012202FA03F131EA040205
:100F680001EA0407F3D1DAF80420DAF808505E0041
:100F780005FA06FC22F010080325B54002F0030E1E
:100F8800B8F1020F6FEA05050EFA06FE00F08B8035
:100F9800D0F8009008F1FF3809EA050949EA0E0E71
:100FA800B8F1010FC0F800E040F29D80C168294007
:100FB80041EA0C01C160D100C9D56C4D696C41F49E
:100FC80080416964696C01F480410391039923F0BD
:100FD800030101F1804101F59C3103F003068D689E
:100FE800B6004FF00F0C0CFA06FC25EA0C05DFF8EA
:100FF80080C160452DD00CF5806C604500F089807B
:10100800DFF870C1604500F08A80DFF86CC1604588
:1010180000F08B80DFF864C1604500F08C80DFF859
:1010280060C1604500F09380DFF858C1604500F06A
:101038009480DFF854C1604500F08380DFF84CC12C
:1010480060450CBF4FF0080C4FF0090C0CFA06F67F
:1010580035438D60DBF80010FD43D60354BF2940AB
:101068003943CBF80010DBF80410960354BF29402D
:101078003943CBF80410DBF80810D60254BF2940D6
:101088003943CBF80810DBF80C10920203F1010386
:1010980054BF29403943102BCBF80C107FF45BAFB9
:1010A80005B0BDE8F08F4FEAD30900EB890903F0DA
:1010B8000708D9F820700097DAF810704FEA880806
:1010C80007FA08F701970F2707FA08F8009F27EA99
:1010D8000808019F47EA0807C9F8207007682F40E9
:1010E80047EA0E070760876807EA050EDAF80C700A
:1010F800B74047EA0E078760466812099A4026EA11
:1011080001010A434260C2682A4042EA0C02C260F6
:101118001DE74FF0010C0CFA06F6354399E74FF03E
:10112800020C0CFA06F6354393E74FF0030C0CFA61
:1011380006F635438DE74FF0040C0CFA06F63543F6
:1011480087E74FF0070C0CFA06F6354381E74FF0B6
:10115800050C0CFA06F635437BE74FF0060C0CFA43
:1011680006F6354375E700BF003C014000380240F1
:101178000000024000080240000C0240001002403B
:101188000014024000180240001C024000200240E7
:101198002DE9F04F0023DFF84CA1534E01254FF005
:1011A80003094FF00F0802E00133102B74D005FA41
:1011B80003F232EA0104F7D104685F0009FA07F77D
:1011C8004FEAD30C24EA070400EB8C0C046003F00C
:1011D8000704DCF820E0A40008FA04F42EEA04046A
:1011E800CCF82040846824EA07048460446824EA30
:1011F80002044460C46824EA0704C46023F00304BA
:1012080004F1804404F59C3403F00307D4F808C0C3
:10121800BF0008FA07FE50456FEA02020EEA0C0CFE
:101228003CD0DFF8C8B058453CD0DFF8C4B05845CA
:101238003BD0DFF8C0B058453CD0DFF8BCB05845CB
:101248003BD0DFF8B8B058453CD0DFF8B4B05845CB
:101258003DD0DFF8B0B058453ED0DFF8ACB05845C7
:101268000CBF4FF0080B4FF0090B0BFA07F7BC4502
:101278009AD1A76827EA0E07A7603468144034603B
:10128800746814407460B4681440B460F46801333E
:101298002240102BF2608AD1BDE8F08F0027BC45B0
:1012A80082D1E6E705FA07F7F9E74FF0020B0BFAE8
:1012B80007F7F4E709FA07F7F1E74FF0040B0BFA21
:1012C80007F7ECE74FF0050B0BFA07F7E7E74FF0E6
:1012D800060B0BFA07F7E2E74FF0070B0BFA07F7D5
:1012E800DDE700BF00000240003C0140000402406E
:1012F80000080240000C02400010024000140240A6
:1013080000180240001C02400020024003691942F4
:1013180014BF01200020704702B909048161704799
:10132800436959404161704782B04FF4803301935B
:10133800019B0B430193019BC361C161019BC36185
:10134800C3690193C06980F48030C0F3004002B0E3
:10135800704700BF704700BF044A5169014200D17D
:10136800704708B55061FFF7F5FF08BD003C014024
:10137800704700BFF0B50368DE0783B0044638D570
:10138800A0498A6802F00C02042A00F0EE808A68FC
:1013980002F00C02082A03D14A68550200F1E580E0
:1013A800984D0023AB70FFF707FC41F288370646DB
:1013B80005E0FFF701FC831BBB4200F2C5802B68E8
:1013C8009903F6D42379AB706368002B00F00A8187
:1013D800FFF7F2FB8B4E054641F2883705E0FFF731
:1013E800EBFB401BB84200F2AF8033689A03F6D596
:1013F80023689F072DD5834A916811F00C0F00F0E0
:10140800AA80916801F00C01082900F0A080E36827
:10141800002B00F0D6807C4B7A4E01221A60FFF731
:10142800CBFB054605E0FFF7C7FB401B642800F22D
:101438008B8033689807F6D53168F82292FAA2F2C1
:101448002369B2FA82F2934021F0F8021343336021
:1014580023681A071FD4580734D4A369C3B1694D48
:10146800AA6802F00C02082A7CD0022B664B4FF0C7
:1014780000021A6600F0CC80FFF79EFB044604E0E9
:10148800FFF79AFB001B64285ED82B689B01F7D4F2
:10149800002003B0F0BD6369002B70D05A4B594E41
:1014A8000122C3F8802EFFF787FB054604E0FFF70B
:1014B80083FB401B642847D8736F9B07F7D52368C5
:1014C8005807CAD54F4B514D1A6C42F080521A64D6
:1014D8001B6C03F080530193019B2B6843F48073CA
:1014E8002B60FFF769FB064604E0FFF765FB801BEE
:1014F800642829D82B68D905F7D5424D002385F8EB
:101508007030FFF759FB41F28837064604E0FFF7D1
:1015180053FB801BB84217D82B6F9A07F7D4237A4E
:1015280085F87030A368002B00F0B280FFF744FB09
:10153800344E054641F28837336F9B078DD4FFF749
:101548003BFB401BB842F7D9032003B0F0BD5268FB
:1015580056023FF55CAF2B4A1268950720D5E26822
:10156800012A1DD0012003B0F0BD264A126890035D
:101578007FF53FAF6268002A7FF43BAFF2E7224A6B
:10158800204EC2F8803EFFF717FB054604E0FFF740
:1015980013FB401B6428D7D8736F9F07F7D48EE7D7
:1015A800184DF821286891FAA1F12269B1FA81F160
:1015B80020F0F8008A4002432A601A077FF54BAFF3
:1015C80069E7114A0F4E1360FFF7F6FA054604E083
:1015D800FFF7F2FA401B6428B6D833689907F7D4A6
:1015E800236836E7FFF7E8FA064E054641F28837E2
:1015F80004E0FFF7E1FA401BB842A5D833689B0323
:10160800F7D4F5E600380240000047420070004079
:10161800FFF7D2FA064604E0FFF7CEFA801B6428EB
:1016280092D82B689901F7D447F6C07090FAA0F0C9
:101638004FF44036B0FA80F096FAA6F64FF0706193
:10164800B6FA86F691FAA1F1A36A5A08013AB240AD
:10165800D4E907363343666A8640E06AB1FA81F115
:10166800334300FA01F1134311480B4301226B6025
:101678000266FFF7A1FA0F4D044605E0FFF79CFA52
:10168800001B64283FF660AF2B689A01F6D5FFE689
:10169800FFF792FA074E054641F28837336F9807ED
:1016A8007FF5DBAEFFF788FA401BB842F6D94BE767
:1016B80000004742003802407F4A136803F00F03D6
:1016C8008B422DE9F0410C4605465AD2CBB2137035
:1016D800136803F00F038B4202D00120BDE8F081AC
:1016E80003689F0706D5754980688A6822F0F0026A
:1016F80002438A60DE072BD56A68012A00F0A380BE
:10170800931E012B6D4B1B6840F299809907E4D515
:101718006A4CA36823F003031343A360FFF74CFA52
:101728006B68012B064600F0A280022B00F0AD800A
:10173800032B00F0B88041F2883704E0FFF73CFA49
:10174800831BBB4267D8A36813F00C0FF6D12B6834
:101758005A0706D55949E8688A6822F4E0520243D4
:101768008A601B0707D5554A2969936823F46043A3
:1017780043EAC10393600F20FFF7ECF90020BDE8AE
:10178800F08103689A0706D54C4980688A6822F078
:10179800F00202438A60DF0725D56A68012A2DD046
:1017A800931E012B454B1B6838D9990795D5434E95
:1017B800B36823F003031343B360FFF7FDF96B68C5
:1017C800012B07462DD0022B43D0032B1BD041F20F
:1017D800883804E0FFF7F0F9C31B43451BD8B3680A
:1017E80013F00C0FF6D1344BE2B21A701B6803F0F9
:1017F8000F03A3427FF471AF2B68A9E72F4B1B6837
:101808009E03D4D469E741F28834B368FFF7D4F96A
:10181800C01BA042F9D90320BDE8F0819801C6D4C5
:101828005BE741F2883804E0FFF7C6F9C01B404582
:10183800F1D8B36803F00C03042BF5D1D3E7980172
:101848003FF566AF49E71D4B1B689C033FF560AF4A
:1018580043E741F2883804E0FFF7AEF9C01B404582
:10186800D9D8B36803F00C03082BF5D1BBE741F2D4
:10187800883704E0FFF7A0F9831BBB42CBD8A368E5
:1018880003F00C03042BF5D161E741F2883704E03B
:10189800FFF792F9801BB842BDD8A36803F00C0388
:1018A800082BF5D153E741F28835A368FFF784F98F
:1018B800801BA842F9D9AEE7003C0240003802403C
:1018C80070B5224E88B0336B0D461446E8B943F024
:1018D80001033363336B069003F0010300934FF465
:1018E80080720223CDE9022319480022032302A9AA
:1018F800CDE90423009BFFF721FBB36823F0EC63D9
:101908002B432343B36008B070BD43F00403336333
:10191800336B104803F0040301934FF40072022361
:10192800CDE9022300220323CDE9042302A90023E1
:101938000693019AFFF702FBB36823F0784343EA62
:10194800050141EAC401B16008B070BD0038024029
:101958000000024000080240014B0122DA6470478F
:1019680000004742014B0022DA64704700004742FA
:10197800194A936803F00C03042B2AD0082B01D0D2
:101988001648704751685368506801F03F0147F6A0
:10199800C0725B0292FAA2F3B3FA83F300EA020080
:1019A80020FA03F04CBF0E4B0C4BB3FBF1F303FBD7
:1019B80000F0094B4FF440325B6892FAA2F2B2FA97
:1019C80082F203F44033D34001335B00B0FBF3F001
:1019D80070470348704700BF003802400024F400F5
:1019E80000127A0008B5FFF7C3FF084BF0229B6886
:1019F80092FAA2F2B2FA82F203F0F0030449D34059
:101A0800044ACB5CD840106008BD00BF00380240D3
:101A1800C86D00080400002010B50F4CFFF7A8FFA0
:101A2800A368F02292FAA2F2B2FA82F203F0F0036B
:101A38000A49D3400A4ACB5CD8401060A3684FF4E7
:101A4800E05292FAA2F2B2FA82F203F4E053D340DF
:101A5800CB5CD84010BD00BF00380240C86D0008FC
:101A68000400002010B50F4CFFF782FFA368F02296
:101A780092FAA2F2B2FA82F203F0F0030A49D340D2
:101A88000A4ACB5CD8401060A3684FF4604292FACF
:101A9800A2F2B2FA82F203F46043D340CB5CD8409E
:101AA80010BD00BF00380240C86D000804000020C7
:101AB8002D4B2D490F2202601A68520356BF1B682E
:101AC8000523C3F3004343600B6803F00103C360BD
:101AD8000B68F82292FAA2F2B2FA82F203F0F80343
:101AE800D34003610B6F204A5B0756BF0B6F05237A
:101AF80003F001038360536F03F00103436113682C
:101B080013F0807F0CBF012302238361536803F421
:101B18008003C361536803F03F030362536847F6C9
:101B2800C07C9CFAACF1B1FA81F103EA0C03CB401A
:101B3800436253684FF4403191FAA1F103F4403302
:101B480003F58033B1FA81F15B00CB4083625368BF
:101B58004FF0706292FAA2F2B2FA82F203F0706366
:101B6800D340C362704700BF003802400D4B0F22BC
:101B780002609A6802F0030242609A6802F0F0027A
:101B880082609A6802F4E052C2609B68DB0810B475
:101B980003F4E053044C0361236810BC03F00F0303
:101BA8000B60704700380240003C0240704700BF9D
:101BB80010B5054CE3681B0600D410BDFFF7F6FF0F
:101BC8008023A37310BD00BF003802402DE9F04107
:101BD80006460C4617461D46FEF7EEFF8046A7B997
:101BE8003268936834EA030305D0691C19D19368F5
:101BF80034EA0303FBD10020BDE8F081CDB1FEF744
:101C0800DBFFA0EB0800A84212D83268936834EAD8
:101C18000303F0D16B1CF1D1936834EA0303FBD0C2
:101C2800E9E735B1FEF7C8FFA0EB0800A842D7D90D
:101C380032685368B16A23F0E00353601368B1F562
:101C4800005F23F04003136007D0012386F851306A
:101C5800002386F850300320CEE7136823F400539E
:101C68001360136843F400531360EEE710B5836AFA
:101C7800B3F5005F82B0044624D00A230022022173
:101C88002046FFF7A3FF18B1636D43F02003636597
:101C98002068416821F0020141600A230122802165
:101CA8002046FFF793FF18B1636D43F02003636587
:101CB80021684B68002223F001034B60E286E2872B
:101CC80002B010BD01220A231146FFF77FFF88B139
:101CD8002268D3689BB2ADF80630BDF80630936829
:101CE800DB06CAD5636D6FF0100143F0020363652C
:101CF8009160C2E702460A2301212046FFF766FFEA
:101D08000028E5D0636D43F020036365E0E700BF7A
:101D1800704700BF002839D038B590F851300446D4
:101D280003F0FF026BB3D4E90130D4E90312034393
:101D38000B436169E06913430B43216A226802255A
:101D4800034384F851500B43D4E909510B431168FC
:101D5800A06921F040011160010C01F0040100F4B8
:101D6800007003432943E06A136051601061D3692E
:101D7800002023F400630121D361606584F85110C9
:101D880038BD80F85020FFF7C3FFCCE7012070472B
:101D9800704700BF80B10268136810B523F0400394
:101DA80004461360FFF7F4FF0023636584F850309E
:101DB80084F85130184610BD0120704790F851C082
:101DC800BCF1010F7ED1F0B5044683B05FFA8CF008
:101DD800002975D0002A73D01D4694F85030012B85
:101DE80000F0A580122384F8513084F850000023B5
:101DF800A06A6365C4E91233E36362F30F0362F315
:101E08001F43B0F5005F63632163236807D11E6831
:101E180026F400561E601E6846F400561E60A6682A
:101E2800B6F5004F03D11E6846F480461E601E6852
:101E3800760603D41E6846F040061E60E6686768AA
:101E4800002E41D1002F68D0012A0BD178E0216BF8
:101E5800E28E4B1C2363013A23680978D96092B259
:101E6800E28642B12B46002202212046FFF7AEFE51
:101E78000028ECD045E0A06AB0F5005F03D11A68ED
:101E880042F480521A602B46002202212046FFF7B6
:101E98009DFE002831D12B46012280212046FFF7E4
:101EA80095FE50BBA3682BB92368DA6801929B683A
:101EB8000193019B0122002384F8512084F85030BB
:101EC80003B0F0BD02207047EFB1012A0CD130E019
:101ED800E28E216B236831F8020BD860013A92B286
:101EE8002163E286002AC6D02B4600220221204622
:101EF800FFF76CFE0028EBD003E0636D43F020038E
:101F080063650320DCE7013A31F8026BDE6092B2C8
:101F18002163E286002AE7D1AEE74E1C2663013A28
:101F28000978D96092B2E286002A9BD1A4E7022000
:101F3800C6E731F8026BDE6000222163E2869BE788
:101F48004A1C22630A78DA60E68695E7F0B504460B
:101F580090F8510083B00128089D02D0C6B2222E05
:101F68006FD1002900F01A81002A00F01781002B98
:101F780000F0148194F85000012862D094F85100C0
:101F8800A2630126B04208BF32204FF0000208BF0A
:101F980084F8510063F30F02A06A84F8506063F379
:101FA8001F42E2636263B0F5005F4FF00002C4E9CC
:101FB800122262652163226846D01668760603D429
:101FC800166846F040061660E7686668B7F5006F61
:101FD80046D0002E00F09D80B6F5827F24D11CE10A
:101FE800266BE08E7718276337782668013880B229
:101FF800F760E08638B9A06AB0F5005F03D13068B1
:1020080040F4805030602046FFF7E0FDB8B9A36B7C
:102018002268591CD268A1631A70E38FE28E013BD3
:10202800E387002A00F0E4802B46002202212046A4
:10203800FFF7CCFD00222B4601210028D0D0032039
:1020480000E0022003B0F0BD166826F400561660C2
:10205800166846F40056166016687606B4D4AFE7DC
:10206800002E00F0B080B6F5827F46D1012B44D116
:1020780031F8026BD66000232163E386B0F5005F78
:1020880000F0AC802B46002201212046FFF79EFD80
:102098000028D4D12368A26BDB6822F8023BE38FC7
:1020A800A263013BE38754E0E68E276BD4F800C0B7
:1020B80037F802EBCCF80CE0013EB6B220462763B5
:1020C800E6864EB9A66AB6F5005F05D1DCF8006071
:1020D80046F48056CCF80060FFF778FD0028AED1B2
:1020E8002368A26BDB6822F8023BE38FE18EA263D0
:1020F800013BE387002900F09F802B460022022144
:102108002046FFF763FD00222B4601210028CBD093
:1021180095E74E1C2663013B0978D1609BB2E386A4
:10212800002B81D1B0F5005F03D1136843F48053CD
:1021380013602B46002201212046FFF747FD0028A7
:102148007FF47DAF2268A36BD2681A70E38F013BDE
:10215800E387A36AB3F5005F26D02B4601228021CE
:102168002046FFF733FD002861D1012184F8511082
:10217800A16A2268B1F5005F956811D1E9060FD50B
:10218800616D41F002016165116821F4005111602F
:10219800116841F40051116084F85000012051E7A2
:1021A800002384F850304DE72B46002201212046B9
:1021B800FFF70CFDB8B92368DB689BB2ADF80630B1
:1021C800BDF80630C9E7013B31F8026BD6609BB217
:1021D8002163E386002B3FF451AF8EE7136843F485
:1021E800805313604EE7636D43F00203636526E78F
:1021F8006268002AADD12B4601212046FFF7E6FC94
:1022080000287FF41CAFA36B2268591CD268A16315
:102218001A70E38F013BE3879BE7012B7FF404AF40
:102228004B1C23630B78D3600023E3867AE7636D46
:1022380043F02003636502E76268002A89D12B46D0
:1022480001212046FFF7C2FC00283FF423AFF6E641
:10225800F0B5044690F85100012885B04AD100290C
:1022680000F0F280002A00F0EF801D46C3B294F817
:10227800500001283ED084F85030222384F8513091
:10228800A668A1630023C4E912336365636362F33C
:102298000F0362F31F43B6F5004FE363A36A5FD0F1
:1022A800B3F5005F4ED06068B0F5827F3ED02068FD
:1022B8000168490603D4016841F040010160E16802
:1022C800E1B9012A0CD17FE0A36B2268591CD268BE
:1022D800A1631A70E28F013A92B2012AE28772D999
:1022E8002B46002201212046FFF770FC0028EBD086
:1022F800032600E00226304605B0F0BD012A0CD1C5
:1023080039E02068A36BC26823F8022BE28FA3632D
:10231800013A92B2012AE2872CD92B4600220121E8
:102328002046FFF753FC0028EBD0E1E7002EBED192
:1023380084F85060134600950A462046FFF706FECB
:102348000646D8E72768386820F4005038603868AF
:1023580040F4005038606068B0F5827FA7D1E5E7A7
:1023680020680768B3F5005F27F4804707600746D1
:102378009ED1E8E7A36AB3F5005F67D02B46002239
:1023880001212046FFF722FC06460028B0D122682A
:10239800E168A36BD26801BB591CA1631A70E38F73
:1023A800A26A013BB2F5005FE3871AD0D4E9003195
:1023B800B1F5827F29D0012284F851209B6800233F
:1023C80084F8503097E7A36AB3F5005FD6D1226846
:1023D800136843F480531360D0E723F8022BA363F8
:1023E800DDE72B46002201212046FFF7EFFB0028FE
:1023F80036D1D4E90031DA6892B2ADF80E20B1F5E1
:10240800827FBDF80E20A26A06D1A168B1F5004FFF
:1024180021D0B1F5806F1ED0012184F85110B2F59A
:10242800005F9968CBD1CA06C9D5626D42F0020235
:1024380062651A6822F400521A601A68002142F490
:1024480000521A6084F85010012654E7036843F4D8
:102458008053036092E7196821F040011960DBE7B7
:10246800636D43F00203636542E700BF90F851C013
:10247800BCF1010F39D103465FFA8CF0002933D043
:10248800002A31D030B493F85040012C4CD00024AD
:1024980012251963214662F30F0183F851509D6894
:1024A80083F8500062F31F415963B5F5004F1F4987
:1024B8001A68986A5C659C64DC63D96417D0B0F5C7
:1024C800005F28D015BB516841F0800151600021A0
:1024D80083F8501013685B0603D4136843F0400375
:1024E8001360002030BC70477047022070471168A5
:1024F800B0F5005F41F48041116007D1116821F403
:1025080000511160116841F400511160516841F0A7
:10251800A0015160DBE7116821F4005111601168D6
:1025280041F400511160CDE70220DBE7252A0008BD
:1025380010B590F851C0BCF1010F0BD04468B4F548
:10254800827F48D18468002C45D15FFA8CFEBEF1A9
:10255800220F40D1002940D0002A3ED0002B3CD089
:1025680090F850C0BCF1010F35D00124016300215F
:1025780063F30F0180F8504090F8514063F31F4116
:10258800222CC0E90E21826A154BC3641CBF322479
:1025980080F85140134B83640024B2F5005F036850
:1025A8004465416307D11A6822F400521A601A6818
:1025B80042F400521A605A68002142F0E0025A6060
:1025C80080F850101A68520603D41A6842F0400284
:1025D8001A60002010BD022010BD012010BD00BFF0
:1025E800252A0008012C000870B590F85130012BFD
:1025F8003FD15FFA83FE002939D0002A37D090F8FE
:102608005030012B844634D000231D4662F30F0559
:1026180062F31F45C5638568234E80F850E0B5F521
:10262800004F4FF0220E80F851E08163C36443638A
:10263800866443652AD01DB94368B3F5827F2BD0E1
:10264800DCF80030DCF82820B2F5005F15D05A68B5
:10265800002142F060025A608CF850101A68520645
:1026680003D41A6842F040021A604FF0000E704618
:1026780070BD4FF0020E704670BD1A6822F4005209
:102688001A601A6842F400521A60E0E703681A6890
:1026980022F480421A60D5E780F850501346BDE80E
:1026A80070400A46FFF744BFC12B000890F851C09C
:1026B800BCF1010F40D138B504465FFA8CF000290F
:1026C80039D01346002A36D094F85020012A43D036
:1026D8000022122584F85000A06884F85150C4E9FB
:1026E80012226265E26363F30F0263F31F42B0F5DF
:1026F800004F62632163226829D0A06AB0F5005FA9
:102708001CD0206C154D0564154DC563154D8564A9
:102718000C3203F045F80022236884F850201A6828
:10272800520603D41A6842F040021A605A6842F00E
:10273800020200205A6038BD02207047106820F459
:1027480000501060106840F400501060D9E710681D
:1027580040F480401060D0E7022038BDF529000819
:10276800492C0008292C000870B5044690F851003F
:1027780001280BD05FFA80FC6068B0F5827F69D1D0
:10278800A068002866D1BCF1220F63D1002963D06C
:10279800002A61D0002B5FD094F85000012859D04E
:1027A800012084F8500094F85100216322281CBFAE
:1027B800322084F851000020C4E91200002160652D
:1027C800A06A63F30F0163F31F41B0F5005FC4E92A
:1027D8000D12E163216807D1086820F400500860F1
:1027E800086840F40050086094F851001B4E1C4DD6
:1027F80022281C4818BF06461B4818BF0546606CAF
:10280800C0E90F56194D85640C3102F0C9FF2268E2
:10281800206C5368216B002643F001035360C663A4
:1028280094F85130322B18BF3546E38E85640C324C
:1028380002F0B6FF236884F850601A68520603D481
:102848001A6842F040021A605A6842F002020020F8
:102858005A6070BD022070BD012070BD052A0008B5
:10286800C12C0008152A0008892D0008292C000809
:1028780070B590F851C0BCF1010F4AD10D465FFA0E
:102888008CFE002943D01346002A40D090F85020EF
:10289800012A04463DD00022164663F30F0663F36F
:1028A8001F46C663866880F850E04FF0220CB6F5E4
:1028B800004F80F851C0C0E912228163426342652B
:1028C80034D01EB94268B2F5827F35D02168A26A39
:1028D800B2F5005F21D0606C2A461B4D05641B4D84
:1028E800C5631B4D85640C3102F05AFF0022236832
:1028F80084F850201A68520603D41A6842F040023D
:102908001A605A6842F001024FF0000E5A60704691
:1029180070BD4FF0020E704670BD0A6822F4005276
:102928000A600A6842F400520A60D4E701680A683B
:1029380022F480420A60CAE780F85060BDE870401F
:102948000A46FFF711BF00BF052A0008C12C00087E
:10295800292C000890F85020012A03460ED002685E
:10296800516821F00201516051684FF0000C21F0CC
:1029780001015160604683F850C0704702207047DB
:1029880090F85020012A03460ED00268516841F0A1
:102998000201516051684FF0000C41F00101516093
:1029A800604683F850C070470220704710B504464F
:1029B800006C08B102F022FF606C08B102F01EFF43
:1029C80023685A6822F002025A605A68012122F0EC
:1029D80001025A6084F85110002010BD704700BFF2
:1029E800704700BF704700BF704700BF08B5806BD5
:1029F800FFF7FAFF08BD00BF704700BF08B5806B3E
:102A0800FFF7FAFF08BD00BF704700BF08B5806B2D
:102A1800FFF7FAFF08BD00BF704700BF10B5C168D7
:102A2800036B026882B0044609BB591C01631B781A
:102A3800D360E38E013B9BB2E386B3B9A36AB3F5D7
:102A4800005F19D00A23002202212046FFF7BEF8B2
:102A580018B1636D43F0200363652268536823F05F
:102A68008003536053685B060BD502B010BD33F882
:102A7800021BD1600363DCE7136843F480531360DF
:102A8800E0E7516821F0200151600A2301228021EA
:102A98002046FFF79BF818B1636D43F02003636588
:102AA800A3682BB92368DA6801929B680193019B9C
:102AB800636D5BB994F85130322B4FF0010384F801
:102AC8005130204609D0FFF789FFCEE7012384F86B
:102AD80051302046FFF7A0FFC7E7FFF783FFC4E7A1
:102AE80010B5836AB3F5005F82B004461FD003684F
:102AF8005A6822F040025A605A68120615D45A6879
:102B0800616822F02002B1F5827F5A603CD0636D83
:102B1800002B45D194F85130322B4FF0010384F843
:102B28005130204644D0FFF75BFF02B010BD0A23A6
:102B380000220121FFF74AF818B1636D43F0200322
:102B480063652368D968012289B2ADF806100A23A3
:102B580011462046BDF806C0FFF738F818B1636D76
:102B680043F02003636523689A68D106C0D5626D77
:102B780042F0020262651A6822F400521A601A686A
:102B880042F400521A60B3E7A268B2F5004F02D0CF
:102B9800B2F5806FBBD11A6822F040021A60B6E71E
:102BA800012384F851302046FFF736FF02B010BDEC
:102BB800FFF718FF02B010BD0268C168836BD268C6
:102BC80079B9591C81631A70C38F013B9BB2012BE1
:102BD800C38701D023B983E7836AB3F5005F04D0C4
:102BE800704723F8022B8363EEE70268136843F407
:102BF80080531360704700BF0268C168836BD26856
:102C080041B9591C81631A70C38F013B9BB2C387BA
:102C180023B1704723F8022B8363F5E760E700BF11
:102C2800806B08B5012380F85130436D002243F0D2
:102C38001003C286C2874365FFF7EEFE08BD00BFDA
:102C480010B50368846B1A6812F4807282B012D0CF
:102C5800A3682BB92368DA6801929B680193019BEA
:102C6800636D20461BB1FFF7D7FE02B010BDFFF71A
:102C7800B5FE02B010BD0A2302212046FEF7A6FFCA
:102C880018B1636D43F0200363652068416821F043
:102C9800020141600A23012280212046FEF796FFA7
:102CA80018B1636D43F02003636500220123E286B7
:102CB80084F85130CCE700BF10B50368846B1B68FB
:102CC800D90582B01FD4D4E90123BBB1B2F5827F04
:102CD800216845D04B68A06A23F001030022B0F5B3
:102CE800005F4B60E28713D0012384F85130636D95
:102CF80020464BB1FFF790FE02B010BDB2F5827FBF
:102D080036D02168E6E72046FFF76AFE02B010BD1C
:102D18000A2301212046FEF759FF18B1636D43F0DD
:102D2800200363652368D968012289B2ADF80610CB
:102D38000A2311462046BDF806C0FEF747FF18B122
:102D4800636D43F02003636523689A68D206CBD588
:102D5800626D6FF0100142F0020262659960C3E78C
:102D6800B3F5004F08D10B6823F040030B60B1E7BF
:102D78002046FEF77BFFB7E7B3F5806FF3D0A9E7EE
:102D880003681B6810B5846BDB0520460AD4FEF780
:102D98006DFF012384F85130636D204613B1FFF7AE
:102DA8003BFE10BDFFF71EFE10BD00BF30B5036827
:102DB80099685C689D68C90785B0024603D56106B5
:102DC80001D56D064CD5996858688C0701D5000661
:102DD80038D45968890633D59968CD0606D5516D1A
:102DE8006FF0100041F002015165986099688C06F7
:102DF8000AD5516D41F00101516599680191196831
:102E080021F0400119600199996848060CD592F89B
:102E18005110122908D0516D41F004015165D9684B
:102E280002919968029102999968C90506D5516D70
:102E380041F0080151659B680393039B536D3BB9AF
:102E480005B030BDD36C104605B0BDE8304018471A
:102E5800012382F851301046FFF7DEFD05B030BD82
:102E6800836CF1E790F85100704700BF406D7047E0
:102E7800036A23F001030362036A30B44468826979
:102E88000D6822F073022A438D6823F002032B4356
:102E98000E4DA8420AD005F58065A84206D04968BB
:102EA8004460826130BC416303627047CD6823F09F
:102EB80008032B43D1E905C524F440744CEA050CFA
:102EC80023F004034CEA0404E9E700BF00000140D2
:102ED800036A23F480730362036A30B44468C269E6
:102EE8000D6822F073022A438D6823F4007343EAC5
:102EF80005230F4DA8420AD005F58065A84206D0E3
:102F080049684460C26130BCC16303627047CD68E0
:102F180023F4006343EA0523D1E905C524F44054AA
:102F28004CEA050C23F4806344EA0C14E8E700BF7C
:102F380000000140036A23F480530362036A30B43B
:102F48004468C2690D6822F4E64242EA05228D68A7
:102F580023F4005343EA0533094DA8420AD005F586
:102F68008065A84206D049684460C26130BC0164EB
:102F7800036270474D6924F4804444EA8514F2E7FB
:102F88000000014002684868936823F0700330B479
:102F980003430C6823F0070323436028936035D06C
:102FA80016D8402823D050281FD1146A136A0D69F7
:102FB800886823F001031362936924F00A0123F05F
:102FC800F00343EA05130143936130BC1162704773
:102FD80070280AD1D1E902530C6990682B4320F478
:102FE8007F4143EA04230B43936030BC7047106A67
:102FF800136A096923F001031362936923F0F0034C
:1030080043EA0113936130BC10627047136A0C697C
:10301800886823F0100313629169136A21F47041E0
:1030280023F0A00341EA043143EA0013916130BC64
:1030380013627047704700BF704700BF02220368E1
:1030480010B580F83920196A41F21112114204466C
:1030580008D1196A40F24442114203D11A6822F099
:1030680001021A602046FFF7E7FF002084F83900C4
:1030780084F8380010BD00BF0168022280F83920AA
:103088000A6803464FF0010C42EA0C020A6000206D
:1030980083F839C0704700BF0222036880F83920DE
:1030A800196A41F21112114208D1196A40F24442D8
:1030B800114203D11A6822F001021A60012380F834
:1030C80039300020704700BF034600201B68DA68CB
:1030D80042F00102DA601A6842F001021A60704791
:1030E8000368DA6822F00102DA601A6A41F2111103
:1030F8000A4208D1196A40F24442114203D11A68BF
:1031080022F001021A600020704700BF10B590F845
:1031180039C0BCF1020F04465FFA8CF01CD013468C
:1031280094F83920012AD0B203D1B1B1022284F82F
:103138003920E0690A4AC2630A4A826422682C324A
:1031480002F02EFB2368DA6842F48072DA601A68AB
:1031580042F0010200201A6010BD002BE6D010BD1D
:10316800054400084D4600080368DA6822F48072B6
:10317800DA601A6A41F211110A4208D1196A40F25A
:103188004442114203D11A6822F001021A60012355
:1031980080F8393000207047704700BF704700BF83
:1031A8000222036810B580F83920196A41F2111219
:1031B8001142044608D1196A40F24442114203D12F
:1031C8001A6822F001021A602046FFF7E7FF002084
:1031D80084F8390084F8380010BD00BF0368012264
:1031E800186A02FA01F120EA01001862186A0A4A0C
:1031F80001439342196209D002F58062934205D0D7
:103208001A6842F0010200201A6070475A6C42F4B2
:1032180000425A64F4E700BF00000140036801203F
:103228001A6A884022EA00021A62144A196A196264
:10323800934213D002F5806293420FD0196A41F28B
:103248001112114208D1196A40F24442114203D1C5
:103258001A6822F001021A6000207047196A41F2C8
:1032680011121142EAD1196A40F244421142E5D1E1
:103278005A6C22F400425A64E0E700BF00000140A3
:1032880003680C290CD8DFE801F0070B0B0B310B96
:103298000B0B2C0B0B0B2700DA6842F00202DA60EA
:1032A800186A012202FA01F120EA01001862186A7C
:1032B800114A01439342196209D002F58062934290
:1032C80005D01A6842F0010200201A6070475A6C53
:1032D80042F400425A64F4E7DA6842F01002DA6015
:1032E800DEE7DA6842F00802DA60D9E7DA6842F025
:1032F8000402DA60D4E700BF0000014003680C292B
:103308000CD8DFE801F0070B0B0B440B0B0B3F0B42
:103318000B0B3A00DA6822F00202DA601A6A01201E
:1033280000FA01F122EA01021A621B4A196A1962BB
:10333800934213D002F5806293420FD0196A41F28A
:103348001112114208D1196A40F24442114203D1C4
:103358001A6822F001021A6000207047196A41F2C7
:1033680011121142EAD1196A40F244421142E5D1E0
:103378005A6C22F400425A64E0E7DA6822F010023C
:10338800DA60CBE7DA6822F00802DA60C6E7DA68C2
:1033980022F00402DA60C1E70000014070B590F83D
:1033A8003940022C0546E0B236D00E46114695F853
:1033B8003920012AD0B23AD02C680C2E16D8DFE872
:1033C80006F0071515154B1515155A1515153C005A
:1033D800286A04F13402314CC463314C846402F02D
:1033E800DFF92C68E36843F40073E360226A012381
:1033F80003FA06F122EA01022262226A294B1143EA
:103408009C42216209D003F580639C4205D0236861
:1034180043F001030020236070BD636C43F4004354
:103428006364236843F0010300202360F4E7002964
:1034380030D0022285F83920BEE7E86A04F140025C
:10344800164CC463164C846402F0AAF92C68E3682D
:1034580043F48053E360C9E7686A04F138020F4C0B
:10346800C4630F4C846402F09BF92C68E36843F44E
:103478008063E360BAE7A86A04F13C02074CC463BE
:10348800074C846402F08CF92C68E36843F4006309
:10349800E360ABE7002BCCD070BD00BF81440008CF
:1034A8004D4600080000014003680C290CD8DFE8ED
:1034B80001F0070B0B0B480B0B0B430B0B0B3E00E0
:1034C800DA6822F40072DA601A6A4FF0010C0CFA1A
:1034D80001F122EA01021A621C4A196A196293422E
:1034E80016D002F58062934212D0196A41F2111285
:1034F800114208D1196A40F24442114203D11A68B4
:1035080022F001021A60012380F839300020704748
:10351800196A41F211121142E7D1196A40F2444284
:103528001142E2D15A6C22F400425A64DDE7DA68AB
:1035380022F48052DA60C7E7DA6822F40062DA60BF
:10354800C2E7DA6822F48062DA60BDE70000014071
:10355800704700BF704700BF0222036810B580F8AB
:103568003920196A41F211121142044608D1196A28
:1035780040F24442114203D11A6822F001021A6053
:103588002046FFF7E7FF002084F8390084F8380068
:1035980010BD00BF03680122186A02FA01F120EA8F
:1035A80001001862186A0A4A01439342196209D055
:1035B80002F58062934205D01A6842F001020020A9
:1035C8001A6070475A6C42F400425A64F4E700BF2C
:1035D8000000014003684FF0010C1A6A0CFA01FC64
:1035E80022EA0C021A62154A196A1962934216D025
:1035F80002F58062934212D0196A41F21112114207
:1036080008D1196A40F24442114203D11A6822F0E3
:1036180001021A60012380F8393000207047196AC6
:1036280041F211121142E7D1196A40F244421142A3
:10363800E2D15A6C22F400425A64DDE700000140EE
:10364800FFF71EBEFFF75ABEFFF7A8BEFFF72CBF55
:10365800704700BF704700BF0222036810B580F8AA
:103668003920196A41F211121142044608D1196A27
:1036780040F24442114203D11A6822F001021A6052
:103688002046FFF7E7FF002084F8390084F8380067
:1036980010BD00BF03680122186A02FA01F120EA8E
:1036A800010018621A6A114319621A6842F001028D
:1036B80000201A60704700BF036801201A6A88401A
:1036C80022EA00021A621A6A1A62196A41F211128F
:1036D800114208D1196A40F24442114203D11A68D2
:1036E80022F001021A600020704700BF03680C290D
:1036F8000CD8DFE801F0070B0B0B250B0B0B200B8D
:103708000B0B1B00DA6842F00202DA60186A012229
:1037180002FA01F120EA010018621A6A11431962DB
:103728001A6842F0010200201A607047DA6842F015
:103738001002DA60EAE7DA6842F00802DA60E5E7E0
:10374800DA6842F00402DA60E0E700BF03680C2997
:103758000CD8DFE801F0070B0B0B2E0B0B0B290B1A
:103768000B0B2400DA6822F00202DA601A6A0120E0
:1037780000FA01F122EA01021A621A6A1A62196A47
:1037880041F21112114208D1196A40F24442114221
:1037980003D11A6822F001021A6000207047DA6823
:1037A80022F01002DA60E1E7DA6822F00802DA6053
:1037B800DCE7DA6822F00402DA60D7E770B590F83F
:1037C8003940022C0546E0B22ED00E4695F8391045
:1037D8000129C8B229D02C680C2E16D8DFE806F0CB
:1037E800071515153A151515491515152B00286ACD
:1037F80004F13401284CC463284C846401F0D0FFE0
:103808002C68E36843F40073E360226A012303FA37
:1038180006F122EA01022262236A1943216223681F
:1038280043F001030020236070BD002A30D002213C
:1038380085F83910CFE7E86A04F14001164CC463F3
:10384800164C846401F0ACFF2C68E36843F48053A1
:10385800E360DAE7686A04F138010F4CC4630F4C7F
:10386800846401F09DFF2C68E36843F48063E3609F
:10387800CBE7A86A04F13C01074CC463074C846495
:1038880001F08EFF2C68E36843F40063E360BCE753
:10389800002BCCD070BD00BF1D4400084D46000869
:1038A80003680C290CD8DFE801F0070B0B0B320B6F
:1038B8000B0B2D0B0B0B2800DA6822F40072DA6070
:1038C8001A6A4FF0010C0CFA01F122EA01021A629D
:1038D8001A6A1A62196A41F21112114208D1196A58
:1038E80040F24442114203D11A6822F001021A60E0
:1038F800012380F8393000207047DA6822F48052BA
:10390800DA60DDE7DA6822F40062DA60D8E7DA68BC
:1039180022F48062DA60D3E7704700BF704700BFC7
:103928000222036810B580F83920196A41F2111291
:103938001142044608D1196A40F24442114203D1A7
:103948001A6822F001021A602046FFF7E7FF0020FC
:1039580084F8390084F8380010BD00BF03680F49A7
:103968001A6A22F001021A621A6A42F001021A6205
:103978001A6A22F010021A621A6A8B4242F0100286
:103988001A6204D0064A934201D0002070475A6C4C
:1039980042F400425A640020704700BF0000014012
:1039A80000040140036818491A6A22F001021A62E9
:1039B8001A6A1A621A6A22F010021A621A6A1A62DB
:1039C8008B4212D0114A93420FD0196A41F2111258
:1039D800114208D1196A40F24442114203D11A68CF
:1039E80022F001021A6000207047196A41F2111290
:1039F8001142EAD1196A40F244421142E5D15A6CA7
:103A080022F400425A64E0E700000140000401404B
:103A180003681349DA6842F00202DA60DA6842F0B1
:103A28000402DA601A6A22F001021A621A6A42F083
:103A380001021A621A6A22F010021A621A6A8B428A
:103A480042F010021A6204D0064A934201D00020C4
:103A580070475A6C42F400425A640020704700BF15
:103A6800000001400004014003681C49DA6822F0A4
:103A78000202DA60DA6822F00402DA601A6A22F0D6
:103A880001021A621A6A1A621A6A22F010021A628B
:103A98001A6A1A628B4212D0114A93420FD0196ADD
:103AA80041F21112114208D1196A40F244421142FE
:103AB80003D11A6822F001021A6000207047196ABF
:103AC80041F211121142EAD1196A40F244421142FC
:103AD800E5D15A6C22F400425A64E0E70000014044
:103AE80000040140704700BF704700BF022203680E
:103AF80010B580F83920196A41F2111211420446B2
:103B080008D1196A40F24442114203D11A6822F0DE
:103B180001021A602046FFF7E7FF002084F8390009
:103B280084F8380010BD00BF0368C1B104290DD165
:103B38001A6A22F010021A621A6A42F010021A6215
:103B48001A6842F0010200201A6070471A6A22F0CF
:103B580001021A621A6A42F001021A62E8E71A6A56
:103B680022F001021A621A6A42F001021A62E7E7B9
:103B78000368F1B1042915D11A6A22F010021A62F9
:103B88001A6A1A62196A41F21112114208D1196AA5
:103B980040F24442114203D11A6822F001021A602D
:103BA800002070471A6A22F001021A621A6A1A6221
:103BB800E2E71A6A22F001021A621A6A1A62E1E757
:103BC800036800292CD0042911D11A6A22F01002A6
:103BD8001A621A6A42F010021A62DA6842F00402A3
:103BE800DA601A6842F0010200201A6070471A6A07
:103BF80022F001021A621A6A42F001021A621A6A73
:103C080022F010021A621A6A42F010021A62DA6886
:103C180042F00202DA60DA6842F00402DA60E0E7B1
:103C28001A6A22F001021A621A6A42F001021A6242
:103C3800DA6842F00202DA60D3E700BF03681A6A62
:103C4800D9B922F001021A621A6A1A62DA6822F0F5
:103C58000202DA60196A41F21112114208D1196A96
:103C680040F24442114203D11A6822F001021A605C
:103C7800012380F8393000207047042913D022F03E
:103C880001021A621A6A1A621A6A22F010021A6289
:103C98001A6A1A62DA6822F00202DA60DA6822F036
:103CA8000402DA60D6E722F010021A621A6A1A626F
:103CB800DA6822F00402DA60CCE700BF2DE9F041AF
:103CC80090F839C0BDF81850BCF1020F04465FFAED
:103CD8008CF028D094F839C0BCF1010F1E465FFA69
:103CE8008CF056D004295BD018291ED0D1B9206A8F
:103CF8003D4B2168C3633D4B836434312B4601F04F
:103D08004FFD2368DA6842F40072DA601A6842F0FC
:103D180001021A601A6A22F001021A621A6A42F053
:103D280001021A620020BDE8F0812168206ADFF8EC
:103D3800B8802E4FC0F83C8034312B46876401F0A0
:103D48002FFD606A2168C0F83C802B4632468764A4
:103D5800383101F025FD23681A6842F001021A6023
:103D68001A6A22F001021A621A6A42F001021A6201
:103D78001A6A22F010021A621A6A42F010021A62D3
:103D8800DA6842F40072DA60DA6842F48062DA6073
:103D9800C8E712B30BB3022384F839300429A3D13E
:103DA800606A114B2168C363104B836432462B460B
:103DB800383101F0F5FC2368DA6842F48062DA6091
:103DC8001A6842F001021A601A6A22F010021A6296
:103DD8001A6A42F010021A62A4E7002DA3D1022346
:103DE80084F83930DAE700BF1D4400084D46000862
:103DF80003681A6AD9B922F001021A621A6A1A62A9
:103E0800DA6822F40072DA60196A41F2111211427A
:103E180008D1196A40F24442114203D11A6822F0CB
:103E280001021A60012380F8393000207047042904
:103E380013D022F001021A621A6A1A621A6A22F070
:103E480010021A621A6A1A62DA6822F40072DA60D8
:103E5800DA6822F48062DA60D6E722F010021A6289
:103E68001A6A1A62DA6822F48062DA60CCE700BF64
:103E7800F8B50F46194690F83930069E022B0446CD
:103E8800D8B227D094F83930012B1546D8B22FD0A4
:103E9800B5F5006F226833D01DD8B5F5007F3BD04B
:103EA800B5F5806F34D0B5F5807F0AD1E069204B35
:103EB8004C32C3631F4B8364330A013301F070FC37
:103EC80022683E439664D36801212B43D3600020C7
:103ED80084F83910F8BDB5F5005F21D0B5F5804FED
:103EE80012D0B5F5805FECD1E06A134B4C32E0E7B5
:103EF800D1B10223B5F5006F226884F83930CBD1EF
:103F0800A06A0D4B4C32D4E7606B0C4B4C32D0E7B7
:103F1800606A094B4C32CCE7206A074B4C32C8E741
:103F2800206B074B4C32C4E7002EE2D0F8BD00BF2F
:103F3800054400084D460008814400083946000839
:103F480029560008B1F5006F38B50C46054628D04B
:103F580012D8B1F5007F2CD0B1F5806F1DD0B1F526
:103F6800807F02D1C06901F049FC2A68D36823EA3E
:103F780004030020D36038BDB1F5005F15D0B1F55A
:103F8800804F06D0B1F5805FEFD1C06A01F036FCF2
:103F9800EBE7406B01F032FCE7E7406A01F02EFCEA
:103FA800E3E7806A01F02AFCDFE7006B01F026FCFA
:103FB800DBE7006A01F022FCD7E700BFF8B5154639
:103FC8001A4690F83930069E022B0446D8B227D0FC
:103FD80094F83930012B0F46D8B22FD0B5F5006FC1
:103FE800216833D01DD8B5F5007F3BD0B5F5806F7B
:103FF80034D0B5F5807F0AD1E069204B4C31C363DA
:104008001F4B8364330A013301F0CAFB21683E4326
:104018008E64CB6801222B43CB60002084F83920C2
:10402800F8BDB5F5005F21D0B5F5804F12D0B5F5D4
:10403800805FECD1E06A134B4C31E0E7D2B1022348
:10404800B5F5006F216884F83930CBD1A06A0D4BE3
:104058004C31D4E7606B0C4B4C31D0E7606A094BAC
:104068004C31CCE7206A074B4C31C8E7206B074B33
:104078004C31C4E7002EE2D0F8BD00BF054400086B
:104088004D4600081D440008394600082956000816
:10409800FFF758BF90F83820012A03460ED0006871
:1040A8004FF0020C83F839C000224FF0010C416137
:1040B800104683F839C083F83820704702207047CB
:1040C800034690F83800012845D0022030B483F820
:1040D8003900486801280CD11C68A06820F47F4C7E
:1040E800D1E9025028430D6940EA052040EA0C0056
:1040F800A0600C2A0FD8DFE802F0070E0E0E1E0E85
:104108000E0E260E0E0E160009681A6829B391695C
:1041180041F0800191610020012283F8392083F861
:10412800380030BC704709681A6801B3D16941F496
:104138000041D161EFE709681A6899B1916941F4C2
:1041480000419161E7E709681A68A9B1D16941F0AE
:104158008001D161DFE702207047916921F0800179
:104168009161D8E7916921F400419161D3E7D16960
:1041780021F40041D161CEE7D16921F08001D161FC
:10418800C9E700BF90F83820012A70D003460268BA
:1041980030B40220012483F8384083F8390090684D
:1041A8000C6820F47F4020F07700502C906000F0DD
:1041B80093800ED8202C00F0888029D8002C7DD040
:1041C800102C1DD1916821F0700141F01701916008
:1041D80016E0B4F5805F65D036D8602C49D0702CD5
:1041E8000ED1D1E9015094682843CD6824F47F4169
:1041F80040EA052008439060916841F0770191609A
:104208000020012283F8392083F8380030BC704739
:10421800302C4CD0402CF3D14868CC68116A21F07E
:104228000A010843116A21F001011162916921F024
:10423800F00141EA041191611062916821F0700166
:1042480041F047019160DBE7B4F5005FD8D1D1E9CF
:10425800015094682843CD6824F47F4140EA052042
:1042680008439060916841F480419160C8E702205A
:1042780070474C68CD68116A21F01001116290698D
:10428800116A20F4704021F0A00141EA041140EACB
:10429800053090611162916821F0700141F0670169
:1042A8009160ADE7916821F007019160A8E79168F6
:1042B80021F0700141F037019160A1E7916821F088
:1042C800700141F0070191609AE7916821F070014F
:1042D80041F02701916093E74868CC68116A21F0A2
:1042E8000A010843116A21F001011162916921F064
:1042F800F00141EA041191611062916821F07001A6
:1043080041F0570191607BE70268536823F080030E
:104318000B4300205360704790F83830012B18D0B9
:1043280010B50223044680F83930FEF72BFE2368C7
:10433800DA6822F04002DA60DA6800214FF0010CF6
:1043480022F48042DA6084F839C084F838100846CC
:1043580010BD0220704700BF90F83830012B18D0EC
:1043680010B50223044680F83930FEF70BFE2368A7
:10437800DA6842F04002DA60DA6800214FF0010C96
:1043880022F48042DA6084F839C084F8381008468C
:1043980010BD0220704700BF90F83820012A03465C
:1043A80027D00C2908D8DFE801F0120707071807FB
:1043B80007071E0707070C000022002083F8382093
:1043C80070470268106C002283F838207047026832
:1043D800506B002283F8382070470268906B0022E7
:1043E80083F8382070470268D06B002283F83820A1
:1043F80070470220704700BF704700BF08B5806B48
:10440800012380F83930FFF7F7FF08BD704700BF78
:10441800704700BF10B5846B226A0123824284F87A
:10442800393017D0636A83420BD0A36A834218D00D
:10443800E36A83420DD02046FFF7EAFF0023237684
:1044480010BD022323762046FFF7E2FF00232376E0
:1044580010BD082323762046FFF7DAFF00232376D2
:1044680010BD042323762046FFF7D2FF00232376CE
:1044780010BD00BF704700BF10B5846B226A0123CE
:10448800824284F8393017D0636A83420BD0A36A1A
:10449800834218D0E36A83420DD02046FFF7EAFF33
:1044A8000023237610BD022323762046FFF7E2FF80
:1044B8000023237610BD082323762046FFF7DAFF72
:1044C8000023237610BD042323762046FFF7D2FF6E
:1044D8000023237610BD00BF704700BF03681A6928
:1044E800910710B5044602D5DA6892075FD41A69B5
:1044F800500702D5DA68510746D41A69120702D55F
:10450800DA6810072ED41A69D20602D5DA68D006FE
:1045180018D41A69D10702D5DA68D2075DD41A69A6
:10452800100602D5DA6811065FD41A69520602D558
:10453800DA68500661D41A69910602D5DA689206DB
:1045480043D410BD6FF01001082219612276DB698F
:1045580013F4407F204664D0FFF75AFF00222368F7
:104568002276D6E76FF00801042219612276DB690A
:104578009907204652D1FFF749FF2046FFF77AFFF7
:10458800002223682276BEE76FF004010222196137
:1045980022769B6913F4407F20463CD1FFF736FF13
:1045A8002046FFF767FF002223682276A5E76FF011
:1045B80002010122196102769B699B0725D0FFF74A
:1045C80027FF00222368227691E76FF02002204619
:1045D8001A61BDE8104001F021B86FF001021A61BC
:1045E8002046FFF709FF236899E76FF080021A61F8
:1045F800204601F01DF8236897E76FF040021A6122
:104608002046FFF769FF236895E7FFF7FFFE20467E
:10461800FFF730FFD5E7FFF7FBFEC4E7FFF7F8FE2B
:10462800AEE7FFF7F3FE2046FFF724FF96E700BF4B
:1046380008B5806B012380F83930FFF74DFF08BDBE
:10464800704700BF08B5806B012380F83930FFF749
:10465800F7FF08BD90F83900704700BF90F839009F
:10466800704700BF90F83900704700BF90F83900D4
:10467800704700BF90F83900704700BF90F83900C4
:10468800704700BF30B42D4D8C6803680A68A84293
:1046980039D0B0F1804F27D0A5F57C45A84223D06A
:1046A80005F58065A8421FD005F58065A8421BD096
:1046B80005F57845A84226D0214DA84218D005F521
:1046C8008065A84214D005F58065A84210D0A5F5EC
:1046D8009835A84228D005F58065A84208D005F588
:1046E8008065A84208D103E04D6823F070032B438E
:1046F800C96823F440730B430360C46282620123D8
:1047080030BC436170474D6823F070032B43CD687C
:1047180023F440732B430360C46282620B69036312
:10472800012330BC43617047C96823F440731943BF
:10473800044B1960DC629A62E1E700BF00000140A7
:104748000040014000180040C0B110B590F8393061
:10475800044603F0FF0263B12146022384F839308E
:1047680051F8040BFFF78EFF012384F8393000203D
:1047780010BD80F83820FEF75DFCEDE7012070479A
:10478800C0B110B590F83930044603F0FF0263B1A8
:104798002146022384F8393051F8040BFFF772FFE1
:1047A800012384F83930002010BD80F83820FEF746
:1047B800F3FCEDE701207047C0B110B590F839302F
:1047C800044603F0FF0263B12146022384F839301E
:1047D80051F8040BFFF756FF012384F83930002005
:1047E80010BD80F83820FEF7B3FEEDE701207047D2
:1047F800C0B110B590F83930044603F0FF0263B138
:104808002146022384F8393051F8040BFFF73AFFA8
:10481800012384F83930002010BD80F83820FEF7D5
:1048280017FFEDE70120704710B338B590F839301D
:104838000D46044603F0FF02ABB12146022384F87B
:10484800393051F8040BFFF71DFF036823F0080304
:10485800036003684FF0010C2B430360002284F8C7
:1048680039C0104638BD80F83820FFF755F8E4E71E
:1048780001221046704700BF002846D070B590F856
:1048880039300C46054603F0FF02002B38D0294684
:10489800022385F8393051F8040B836823F00703A5
:1048A8008360FFF7EFFE81688369A669A26823F435
:1048B800407323F0030342EA06221A432369E66998
:1048C8001B0143EA0623E6683343066A26F0AA0C6E
:1048D800266A22F47C4222F0FC0243EA06331343A0
:1048E80066696268246842EA06122143816042EAE6
:1048F8000C0201218361026285F83910002070BD25
:1049080080F83820FFF7EEF8C1E70120704700BFB4
:1049180070B4046A1A4E24F001040462B042846937
:10492800056A1FD0B0F1804F1CD0A6F57C46B04276
:1049380018D006F58066B04214D006F58066B042FD
:1049480010D006F57846B0420CD006F57056B04245
:1049580008D0A6F59436B04204D024F0030242F001
:10496800010202E024F00304224325F00A0401F0C6
:104978000A01214363F30712826170BC0162704728
:104988000000014090F83830012B79D070B502232F
:104998000D461646012280F8382080F83930044642
:1049A800D1E900120068EB683EB3042EAD682FD041
:1049B800082E4AD0066A26F480560662C66926F48E
:1049C800407646EA022663F30F36036AC661090396
:1049D80023F4204301F4204119430162C36923F4FD
:1049E8004063C361C36943EA0523C361002001230F
:1049F80084F8393084F8380070BDFFF789FF83697F
:104A0800AA6823F00C038361836913438361EDE78C
:104A1800066A26F010060662866926F4407646EA9B
:104A2800022663F30F36036A8661090123F0A003A7
:104A380001F0A00119430162836923F44063836193
:104A4800836943EA05238361D0E7066A26F4807602
:104A58000662C66926F00306164363F30716036A5F
:104A6800C661090223F4206301F42061194301623D
:104A7800C36923F00C03C361C3692B43C361B5E762
:104A880002207047036A23F010030362036A30B4FC
:104A9800446882690D6822F4E64242EA05228D687C
:104AA80023F0200343EA05130E4DA8420AD005F56A
:104AB8008065A84206D049684460826130BC816341
:104AC80003627047CD6823F0800343EA0513D1E9F8
:104AD80005C524F440644CEA050C23F0400344EA7D
:104AE8008C04E8E70000014090F83830012B25D00D
:104AF800022310B5044680F839300C2A0BD8DFE8B9
:104B080002F0070A0A0A150A0A0A190A0A0A11000B
:104B18000068FEF7ADF90020012384F8393084F8E5
:104B2800380010BD0068FEF705FAF4E70068FFF7E3
:104B3800A9FFF0E70068FEF7CBF9ECE70220704721
:104B480038B590F83830012B70D00D46022301217A
:104B5800044680F8381080F839300C2A18D8DFE875
:104B680002F007171717361717174E1717171E00D3
:104B780000682946FEF77CF983692A6943F008032F
:104B88008361836923F00403836183691343836129
:104B98000020012384F8393084F8380038BD0068D3
:104BA8002946FEF7C7F9C3692A6943F40063C3615C
:104BB800C36923F48063C361C36943EA0223C36101
:104BC8000020012384F8393084F83800E6E70068CB
:104BD8002946FFF757FF83692A6943F40063836115
:104BE800836923F480638361836943EA02238361D1
:104BF8000020012384F8393084F83800CEE70068B3
:104C08002946FEF765F9C3692A6943F00803C361B9
:104C1800C36923F00403C361C3691343C36100205C
:104C2800012384F8393084F83800B7E7022038BD0A
:104C38009A427BD070B51D4690F83830012B88B069
:104C4800064675D0012380F83830022380F83930C1
:104C58004B6802934B6907938B680393CB68049363
:104C68000B6801930B6906930C46002A3DD0042A71
:104C780003D1006801A9FFF705FF002D3BD0042DE3
:104C88002BD13368206A196A21F01001D4E906256E
:104C98001962996921F4407141EA052160F30F31E5
:104CA800186A9961120102F0A00220F0A0010A43DB
:104CB8001A629A6922F440629A619A6822F0700234
:104CC8009A609A6842F060029A609A6822F0070235
:104CD8009A609A6842F006029A600020012386F8DA
:104CE800393086F8380008B070BD006801A9FEF7B1
:104CF800BFF8002DC3D13068A169D4E90723FFF7B5
:104D080007FE836923F00C038361836823F0700333
:104D18008360836843F050038360836823F007034C
:104D28008360836843F006038360D6E701207047F9
:104D3800022008B070BD00BF036A4FF0010C0CFAE6
:104D480001FC23EA0C030362036A8A401A430262E5
:104D5800704700BF704700BF00284CD030B5022311
:104D680089B0044680F839300D46FFF7F3FF214635
:104D780051F8040BFFF786FCAB682968206803220A
:104D8800FFF7C6FD206869688369EA6823F00C03A9
:104D9800836183690B438361436843F08003436005
:104DA8008368029223F070038360836843F04003B2
:104DB8008360836823F007038360836843F00403F8
:104DC8008360002501A970230193CDE90555CDE93C
:104DD80003550795FFF756FE23685A6822F07002BC
:104DE8005A605A680121284642F050025A6084F8F5
:104DF800391009B030BD0120704700BF704700BFAF
:104E08000222036810B580F83920196A41F211129C
:104E18001142044608D1196A40F24442114203D1B2
:104E28001A6822F001021A602046FFF7E7FF002007
:104E380084F8390084F8380010BD00BF10B5044666
:104E4800012200680021FFF777FF2268136843F00A
:104E580001030020136010BD002210B5044611465E
:104E68000068FFF769FF2368196A41F211121142BD
:104E780008D1196A40F24442114203D11A6822F05B
:104E880001021A60002010BD10B504460068C3680E
:104E980043F00203C36001220021FFF74DFF22689F
:104EA800136843F001030020136010BD002210B501
:104EB800044611460068FFF73FFF2368DA6822F0CE
:104EC8000202DA601A6A41F211110A4208D1196A1B
:104ED80040F24442114203D11A6822F001021A60DA
:104EE800002010BD70B590F839C0BCF1020F04461F
:104EF8005FFA8CF024D00D4694F839100129164633
:104F0800C8B203D1EDB1022384F8393020680122F8
:104F18000021FFF711FF206A21680B4A0B4BC2637F
:104F280083642A463346343100F03AFC2368DA6851
:104F380042F40072DA601A6842F0010200201A6036
:104F480070BD002ADFD070BD1D4400084D46000822
:104F5800002210B5044611460068FFF7EDFE2368ED
:104F6800DA6822F40072DA601A6A41F211110A4210
:104F780008D1196A40F24442114203D11A6822F05A
:104F880001021A60002010BD03680422186A02FAA0
:104F980001F120EA010018621A6A114319625A6C79
:104FA80042F400425A641A6842F0010200201A6072
:104FB800704700BF036804201A6A884022EA00028A
:104FC8001A621A6A1A62196A41F21112114204D15C
:104FD800196A40F2444211420FD0196A41F2111283
:104FE800114208D1196A40F24442114203D11A68A9
:104FF80022F001021A60002070475A6C22F4004225
:105008005A64EAE703680C290CD8DFE801F0070BBB
:105018000B0B2D0B0B0B280B0B0B2300DA6842F044
:105028000202DA60D86840F08000D860186A04226A
:1050380002FA01F120EA010018621A6A11431962A2
:105048005A6C42F400425A641A6842F00102002085
:105058001A607047DA6842F01002DA60E2E7DA684C
:1050680042F00802DA60DDE7DA6842F00402DA604A
:10507800D8E700BF03680C290CD8DFE801F0070B5C
:105088000B0B460B0B0B410B0B0B3C00DA6822F0A9
:105098000202DA601A6A042000FA01F122EA010227
:1050A8001A621A6A1A62196A40F24442114203D11A
:1050B800DA6822F08002DA60196A41F211121142AC
:1050C80004D1196A40F2444211420FD0196A41F2E0
:1050D8001112114208D1196A40F24442114203D117
:1050E8001A6822F001021A60002070475A6C22F4F4
:1050F80000425A64EAE7DA6822F01002DA60C9E787
:10510800DA6822F00802DA60C4E7DA6822F00402FA
:10511800DA60BFE770B590F83940022C0546E0B276
:1051280033D00E46114695F83920012AD0B22DD039
:105138002C680C2E16D8DFE806F0071515153E1555
:1051480015154D1515152F00286A04F134022A4C3F
:10515800C4632A4C846400F023FB2C68E36843F49E
:105168000073E360226A042303FA06F122EA0102CB
:105178002262236A19432162636C43F40043636427
:10518800236843F001030020236070BD002930D05C
:10519800022285F83920CBE7E86A04F14002164C70
:1051A800C463164C846400F0FBFA2C68E36843F48B
:1051B8008053E360D6E7686A04F138020E4CC46392
:1051C8000E4C846400F0ECFA2C68E36843F48063C6
:1051D800E360C7E7A86A04F13C02074CC463074CC4
:1051E800846400F0DDFA2C68E36843F40063E3604C
:1051F800B8E7002BCCD070BD814400084D460008AC
:1052080003680C290CD8DFE801F0070B0B0B410BE6
:105218000B0B3C0B0B0B3700DA6822F40072DA60D8
:105228001A6A4FF0040C0CFA01F122EA01021A6220
:105238001A6A1A62196A41F21112114204D1196AE2
:1052480040F24442114212D0196A41F2111211423D
:1052580008D1196A40F24442114203D11A6822F077
:1052680001021A60012380F83930002070475A6C17
:1052780022F400425A64E7E7DA6822F48052DA60DE
:10528800CEE7DA6822F40062DA60C9E7DA6822F465
:105298008062DA60C4E700BF03680422186A02FA71
:1052A80001F120EA010018621A6A114319625A6C66
:1052B80042F400425A641A6842F0010200201A605F
:1052C800704700BF036804201A6A884022EA000277
:1052D8001A621A6A1A62196A41F21112114204D149
:1052E800196A40F2444211420FD0196A41F2111270
:1052F800114208D1196A40F24442114203D11A6896
:1053080022F001021A60002070475A6C22F4004211
:105318005A64EAE7FFF776BEFFF7ACBEFFF7FABEBE
:10532800FFF76EBF03680422186A02FA01F120EA47
:10533800010018621A6A114319625A6C42F4004259
:1053480000205A64704700BF036804201A6A884026
:1053580022EA00021A621A6A1A62196A41F21112E2
:10536800114204D1196A40F2444211420FD0196A1D
:1053780041F21112114208D1196A40F24442114215
:1053880003D11A6822F001021A60002070475A6C93
:1053980022F400425A64EAE70368D86840F0020041
:1053A800D860042202FA01F1DA6842F00402DA60F5
:1053B8001A6A22EA01021A621A6A114319625A6CBD
:1053C80042F4004200205A64704700BF0368D8685E
:1053D80020F00200D86004228A40D96821F0040134
:1053E800D960196A21EA020119621A6A1A621A6AEC
:1053F80041F21110024204D1196A40F244421142AA
:105408000FD0196A41F21112114208D1196A40F2FB
:105418004442114203D11A6822F001021A600020A6
:1054280070475A6C22F400425A64EAE790F8383020
:10543800012B27D00123202900B5844680F8383075
:10544800036817D014D831F0100013D0596841F010
:1054580001015960596821F00401596059684FF0F9
:10546800000E0A435A608CF838E070465DF804FB79
:105478003029EBD1986820F0700098609868014353
:105488009960E3E70220704790F83830012B2BD061
:105498000123202900B5844680F8383003681BD0E2
:1054A80018D831F0100017D0596841F0010159603F
:1054B800596821F00401596059680A435A60DA684A
:1054C8004FF0000E42F02002DA608CF838E07046A7
:1054D8005DF804FB3029E7D1986820F070009860E7
:1054E800986801439960DFE70220704790F83830E8
:1054F800012B30D00123202910B4844680F838309D
:10550800036820D01DD831F010001CD05968DCF891
:105518003000124C41F001015960596821F0040132
:10552800596059680A435A60DA68C46300210C4C10
:10553800846442F40052DA608CF83810084610BCD3
:1055480070473029E2D1986820F070009860986818
:1055580001439960DAE70220704700BF2956000826
:105568004D46000890F83830012B1FD002460368DA
:10557800022030B582F8390058680D684C6820F070
:1055880070005860586828435860996821F0800175
:10559800996099684FF0000C21434FF0010E996013
:1055A80082F839E082F838C0604630BD0220704782
:1055B80090F83830012B1DD0022330B480F83930F0
:1055C800D1E900340246886823430343D1E9034004
:1055D8002343D1E9055403432B4310680021234397
:1055E8004FF0010C436482F839C082F8381008463D
:1055F80030BC70470220704790F83830012B0BD030
:10560800D0F800C000230122CCF8501080F83920CF
:1056180080F838301846704702207047704700BF3E
:1056280008B5806B012380F83930FFF7F7FF08BD14
:10563800704700BF90F83900704700BF00284AD073
:1056480030B4D0E901240346D0E9031022430A43C9
:105658005C6919680243986922430243D3E9074009
:105668000225224383F8355002430D68586A1B4CC3
:10567800042804EA050442EA04021FD00A604A69C1
:1056880022F0070210435FFA81FC154A4861ACF129
:10569800100CA2FB0C42134812096FF30901825C3B
:1056A8005A650020BCF15F0F4FF0010288BF04313A
:1056B800D86483F8352030BC19657047D3E90B04EA
:1056C80020431043086048699A6A20F00700104395
:1056D80040F00400D7E70120704700BF3F8010F07A
:1056E800ABAAAAAAD86D000800282DD090F83520BA
:1056F800022A034628D002681449D0B2103830B4C0
:10570800A1FB004109091468114D24F001046D5CE6
:1057180014600021116051609160D16011612121F4
:1057280051615F286FF3090288BF04323F200021CE
:10573800A8405D651A659060D96483F8341083F8D1
:105748003510084630BC704701207047ABAAAAAA9A
:10575800D86D000830B490F83440012C1DD00124D5
:1057680080F83440022480F8354004688568206851
:1057780020F0010020602068402D20F48020206067
:1057880063600BBFA260A160E160E260236843F040
:1057980001030020236030BC7047022030BC7047F2
:1057A80030B490F83440012C25D0012480F83440DE
:1057B800022480F8354004688568206820F00100DC
:1057C80020602068402D20F48020206063600BBF9B
:1057D800A260A160E160E260236843F01E032360D9
:1057E800636943F080036361236843F00103002089
:1057F800236030BC7047022030BC7047026838B55F
:10580800136823F0010313600446FBF7D5F9054636
:1058180005E0FBF7D1F9401BB0F57A7F0BD8236878
:105828001B6813F00103F4D1012284F8343084F8A2
:105838003520184638BDE26C032342F020020021CF
:10584800E26484F8341084F83530184638BD00BF57
:105858002DE9F04F83B0D0E9144782469046009175
:10586800002958D1202303FA07F7FBF7A5F9DFF839
:1058780024B101904FF00809DAF854E0464B09FAD0
:105888000EF00BFA0EF103FA0EF20DE02668256809
:10589800236806400D40134046EA050C5CEA030CF9
:1058A8001ED1B8F1FF3F42D123683B42EED0009AA7
:1058B800DAF80030002A50D1302202FA0EF2A26043
:1058C8001A68550302D51A6814035BD411238AF8A1
:1058D800353000238AF83430002003B0BDE8F08F5B
:1058E80036B1DAF84C6046F00106CAF84C60A060A0
:1058F80035B1DAF84C0040F00200CAF84C00A1605B
:105908006BB9042200238AF835208AF83430012044
:1059180003B0BDE8F08F102303FA07F7A5E7DAF81C
:105928004C3043F00403CAF84C30A260E9E7B8F100
:10593800000F05D0FBF740F9019BC01A40459BD9E1
:10594800DAF84C30032043F020030022CAF84C3028
:105958008AF834208AF83500DAE7102202FA0EF2C3
:10596800A2601A68510309D51A68120306D51B6884
:105978001B03B1D541238AF83530ADE731238AF8C6
:105988003530A9E71B681803A3D521238AF83530D9
:105998009FE700BF010080000400800070B5D0E9D7
:1059A8001453082229689A401142044604D0016819
:1059B8000E68760700F18380594A29689A40114297
:1059C80003D021684869060663D4564A29689A4074
:1059D800114203D021680868800744D4296810223E
:1059E8009A40114203D021680868060726D429681E
:1059F800202202FA03F319421FD022681168C9064F
:105A08001BD511684E0378D41168C90503D41168F1
:105A180021F010011160AB60E36BE06CE0641122CF
:105A2800002184F8341084F8352033B12046BDE8CD
:105A380070401847136818036ED470BD0868400397
:105A480053D40868C00503D4086820F0080008602B
:105A58003121AA6084F83510226C002AC7D020466C
:105A68009047636DC3E7086820F002000860AA60E9
:105A7800E26CA16C42F00402E2640420002284F883
:105A8800350084F834200029A8D020468847636D63
:105A9800A4E7486920F080004861AA60E26CA16C24
:105AA80042F00202E2640420002284F8350084F8FF
:105AB8003420002989D020468847636D85E70E6821
:105AC80026F004060E60AA60C26C42F00102C264AD
