:020000040800F2
:100000000000022011420008D1080008D5080008AD
:10001000D9080008DD080008E10800080000000019
:10002000000000000000000000000000E5080008DB
:10003000E908000800000000ED080008F1080008C9
:100040006142000861420008614200086142000804
:100050006142000861420008F5080008614200089A
:1000600061420008614200086142000861420008E4
:1000700061420008614200086142000861420008D4
:10008000614200086142000861420008000000006F
:1000900000000000000000000000000061420008B5
:1000A00061420008614200086142000861420008A4
:1000B0006142000861420008614200086142000894
:1000C0006142000861420008614200086142000884
:1000D000614200086142000861420008000000001F
:1000E000614200086142000861420008000000000F
:1000F0000000000000000000000000006142000855
:1001000000000000614200086142000861420008EE
:1001100000000000000000000000000000000000DF
:100120006142000861420008614200086142000823
:100130006142000800000000000000000000000014
:100140000000000000000000000000006142000804
:1001500061420008614200086142000861420008F3
:100160006142000861420008000000000000000039
:10017000000000000000000000000000000000007F
:1001800000000000614200080000000000000000C4
:08019000614200086142000811
:100198000348044B834202D0034B03B1184770470E
:1001A8005805002058050020000000000548064BAF
:1001B8001B1AD90F01EBA301491002D0034B03B15D
:1001C8001847704758050020580500200000000017
:1001D80010B5064C237843B9FFF7DAFF044B13B187
:1001E8000448AFF300800123237010BD5805002098
:1001F800000000000443000808B5044B1BB1044983
:100208000448AFF30080BDE80840CFE700000000D5
:100218005C05002004430008A3F5803A704700BF3E
:10022800154B002B08BF114B9D46FFF7F5FF00212A
:100238008B460F461148124A121A02F03BFF0C4B2C
:10024800002B00D098470B4B002B00D0984700207C
:10025800002104000D000B4802F0B4FF02F07CFFFF
:100268002000290003F0FAFF02F09EFF00000800BA
:1002780000000000000000000000000058050020F9
:10028800E0080020D9310008B04300080000002031
:100298005805002058050020E00800200D4B0E48A6
:1002A8001A68002142F0010210B41A6099601A68B5
:1002B8000A4C22F0847222F480321A605C601A6858
:1002C80010BC22F480221A604FF00062D96082606C
:1002D800704700BF0038024000ED00E010300024F5
:1002E800164A936803F00C03042B25D0082B0AD078
:1002F800134B124A134892681349C2F30312825CE3
:10030800D3400B6070475368516813F4800F5368EB
:1003180014BF0E4A0A4AC3F3881301F03F01B2FB27
:10032800F1F202FB03F3054A5268C2F301420132BB
:100338005200B3FBF2F3DCE7044BDAE70038024083
:100348000024F400444300080400002040787D01A4
:100358002DE9F0412A4C2B4B236010210122E16149
:10036800002302260721C4E90462E162C4E90933D3
:100378004FF40071244DA1614FF482716160A36054
:10038800E36023622B6B214F13432B632B6B88B0E5
:1003980013400093009B2B6B13432B632B6B04962A
:1003A800134001932023019903934FF00508032379
:1003B80003A93846CDE90523CDF81C8000F064FB7D
:1003C800802303A938460393CDF81C80059600F0D6
:1003D8005BFB3846402303A90393059600F054FBC2
:1003E8006B6C43F480536B646B6C03F4805302931F
:1003F800029B204608B0BDE8F04100F0F9BD00BFFF
:10040800780500200030014000380240000002401A
:1004180000B5104B87B01B680093844601230E4833
:100428008DF80FC00DF117020DF10F0100F0F8FE65
:1004380010B907B05DF804FB074800F01BFE06483A
:1004480001F052FE0028F4D1FFF782FF07B05DF8F3
:1004580004FB00BF08000020780500200048704712
:1004680000090201104B10B51A6B104C42F0010242
:100478001A631B6B88B004EB800403F0010320208F
:100488000121CDE9020101936068002202A902233B
:10049800CDE90423019B00F0F7FA606800222021CF
:1004A80000F0DCFC08B010BD003802400800002055
:1004B80010B5074C04EB800420216068002200F08E
:1004C800CDFC60682021BDE8104000F00DBC00BFE5
:1004D80008000020034B03EB800301225868202109
:1004E80000F0BCBC08000020034B03EB8003002293
:1004F8005868202100F0B2BC08000020034B03EB31
:1005080080032021586800F0ADBC00BF080000201F
:100518001C4BF0B51A6B42F004021A631B6B89B0CE
:1005280003F004030193019B0B46D9B1012901D0C3
:1005380009B0F0BD144B154F03EB800300249868F5
:10054800049402A94FF40056CDE9026700F09CFA22
:1005580022460F21282001F0DFFD282001F014FE9B
:1005680009B0F0BD084A02EB8002022490684FF4FB
:10057800005502A9CDE90253CDE9044400F084FAFC
:1005880009B0F0BD0038024008000020000021102A
:1005980010B50446282001F003FE054800EB84004E
:1005A8004FF40051BDE81040806800F09DBB00BFCB
:1005B8000800002008B5044B03EB80034FF40051FA
:1005C800986800F045FC08BD08000020254B264827
:1005D8001A6BF0B542F002021A631B6B8BB003F082
:1005E80002030393012203232024012504A9CDE952
:1005F8000623CDE90445039B00F046FA1B4801F0A9
:1006080073FD58B318481A4F184D0122202100F0E5
:1006180025FC0A24FF2603E0631E13F0FF041BD009
:100628003B6800930DF10B0201230DF10A012846E6
:100638008DF80A6000F0F4FD0028EDD0284600F09F
:1006480019FD284601F050FD0028E5D1FFF780FE8E
:10065800631E13F0FF04E3D10BB0F0BDFFF778FE83
:10066800D0E700BF003802400004024078050020AF
:10067800080000200246012A024818BF0022202153
:1006880000F0ECBB0004024010B50D4C82B084466B
:100698001346226800920B480A46614600F0C0FDE6
:1006A80008B902B010BD074800F0E4FC054801F0A5
:1006B8001BFD0028F5D102B0BDE8104048E600BF98
:1006C800080000207805002000B5124B87B01B6891
:1006D80000938446012310488DF80FC00DF11702CE
:1006E8000DF10F0100F09CFD20B99DF8170007B02F
:1006F8005DF804FB084800F0BDFC074801F0F4FC75
:100708000028F2D1FFF724FE9DF8170007B05DF826
:1007180004FB00BF08000020780500201C4B00B532
:100728001A6B42F002021A631A6B89B002F00202D5
:100738000092009A1A6B42F001021A631B6B402068
:10074800012103F001030022CDE9020101931148C0
:10075800032302A9CDE90423019B00F095F94FF486
:1007680000730D48029302A900F08EF9094801228E
:10077800402100F073FB094801F0B6FC10B109B044
:100788005DF804FBFFF7E4FD09B05DF804FB00BF6A
:1007980000380240000402400000024078050020B2
:1007A80038B50B4D044600222846402100F056FB80
:1007B80000224FF40071074800F050FB2046FFF775
:1007C80027FE28460122BDE83840402100F046BBFC
:1007D800000402400000024038B50B4D04460022D8
:1007E8002846402100F03AFB01224FF400710748E7
:1007F80000F034FB2046FFF70BFE28460122BDE837
:100808003840402100F02ABB0004024000000240AA
:1008180030B583B000220D46044640211B480192A2
:1008280000F01CFB1A4801224FF4007100F016FB7F
:10083800012D25D0174B1B68A5B104F1020C6119D5
:100848009A689407FCD51CF8012C1A739A689007CB
:10085800FCD51CF8022C1A738C450CF1020201D04D
:100868009446EDE79A681206FCD4DB680193019B75
:1008780006480122402103B0BDE8304000F0EEBA3E
:100888002078FFF7C5FD034B1B68EEE70004024024
:10089800000002407805002000F07EB8011E11DD3E
:1008A80082B0002040F67A420190019B934205DC19
:1008B800019B01330193019B9342F9DD0139F3D187
:1008C80002B07047704700BF704700BFFEE700BF27
:1008D800FEE700BFFEE700BFFEE700BF704700BFAE
:1008E800704700BF704700BF00F048B84FF4005091
:1008F80000F0D4BA704700BF704700BF10B5094B6D
:100908004FF0FF3200241A621C625A625C621A615C
:100918001C615A615C619A619C61FFF7EDFF20469A
:1009280010BD00BF0038024010B5044602F05EF862
:10093800064BA3FB0030800901F052FC214600223F
:100948004FF0FF3001F0E8FB002010BDD34D6210DE
:1009580008B5094B1A6842F400721A601A6842F422
:1009680080621A60032001F0C5FB0F20FFF7DCFF4F
:10097800FFF7C0FF002008BD003C0240024A136890
:1009880001331360704700BFD0050020014B186881
:10099800704700BFD005002010B582B00190FFF766
:1009A800F5FF0446FFF7F2FF019B001B9842F9D3BD
:1009B80002B010BD024A136823F0020313607047A7
:1009C80010E000E0024A136843F002031360704726
:1009D80010E000E04FF08270704700BF014B1868CC
:1009E800000C7047002004E0024B1868C0F30B00AD
:1009F800704700BF002004E0024A536843F0010337
:100A080053607047002004E0024A536823F0010352
:100A180053607047002004E0024A536843F0020321
:100A280053607047002004E0024A536823F0020331
:100A380053607047002004E0024A536843F00403FF
:100A480053607047002004E0024A536823F004030F
:100A580053607047002004E0012292FAA2F3034990
:100A6800B3FA83F341F82320704700BF00042742FC
:100A7800012393FAA3F3034AB3FA83F3002142F85C
:100A880023107047000427422DE9F04F00230E6819
:100A9800DFF848828E4683B0894903E00133102B82
:100AA80000F09E8001229A4032EA060402EA060C0F
:100AB800F4D1DEF8045025F0100ABAF1020F00F064
:100AC8009280D0F800B04FEA4309032404FA09F4ED
:100AD80005F003072BEA040B07FA09F70AF1FF3AB6
:100AE80047EA0B07BAF1010F6FEA0404076040F206
:100AF800A180C768DEF808203C4002FA09F22243C8
:100B0800EF00C260CAD5D8F8442042F48042C8F841
:100B18004420D8F8442023F0030404F1804402F46C
:100B2800804204F59C34019203F00307019AD4F83B
:100B38000890BF000F22BA4029EA020A614A90428F
:100B480029D002F58062904200F088805E4A904287
:100B580000F08B805D4A904200F08E805C4A9042A3
:100B680000F091805B4A904200F09B805A4A904284
:100B780000F09E80DFF86891484500F08B80DFF830
:100B8800649148450CBF4FF008094FF0090909FA6C
:100B980007F74AEA070AC4F808A00A686FEA0C07C8
:100BA800EC0354BF3A404CEA02020A604C68AA03BC
:100BB80054BF3C404CEA04044C608C68EA0254BFC1
:100BC8003C404CEA04048C60CA68AC0203F101039F
:100BD80054BF3A404CEA0202102BCA607FF462AF5D
:100BE80003B0BDE8F08F4FEAD30900EB890903F0A1
:100BF8000707D9F82040BF004FF00F0B0BFA07FB8F
:100C080024EA0B0ADEF81040BC4044EA0A04C9F89A
:100C18002040D0F800A04FEA4309032404FA09F45D
:100C280005F003072AEA040A07FA09F747EA0A0758
:100C3800E4430760876807EA040ADEF80C7007FADD
:100C480009F747EA0A078760D0F804A0C5F3001738
:100C58002AEA02029F40174347604AE74FF001091A
:100C680009FA07F74AEA070A95E74FF0020909FA6D
:100C780007F74AEA070A8EE74FF0030909FA07F768
:100C88004AEA070A87E74FF0040909FA07F74AEA28
:100C9800070A80E74FF0070909FA07F74AEA070A3F
:100CA80079E74FF0050909FA07F74AEA070A72E7F0
:100CB8004FF0060909FA07F74AEA070A6BE700BF87
:100CC800003C01400000024000080240000C0240C5
:100CD8000010024000140240001802400038024090
:100CE800001C0240002002402DE9F04F0023DFF8ED
:100CF80054A1DFF85481DFF854B18E4602E0013385
:100D0800102B73D0012606FA03F232EA0E01F6D14F
:100D180004684FF0030C03FA06F10CFA01F123FA08
:100D28000CF524EA010400EB8505046003F00704D0
:100D3800D5F820900F27A40007FA04F429EA040440
:100D48002C62846824EA01048460446824EA02046A
:100D58004460C56823F0030404F1804425EA0101D6
:100D680004F59C34C16003EA0C01A56889008F4032
:100D780050456FEA020205EA070539D058453CD0CC
:100D8800294EB0423CD0294EB0423DD0284EB04208
:100D98003DD0284EB0423ED0274EB0423FD0274EDD
:100DA800B04229D0264EB0420CBF0826092606FAC2
:100DB80001F18D42A3D1A16821EA0707A760D8F8FD
:100DC80000101140C8F80010D8F804101140C8F8F5
:100DD8000410D8F808101140C8F80810D8F80C10FA
:100DE80001330A40102BC8F80C208BD1BDE8F08FD6
:100DF80000218D4283D1DEE7072606FA01F1F8E7E4
:100E0800022606FA01F1F4E70CFA01F1F1E70426EB
:100E180006FA01F1EDE7052606FA01F1E9E70626EB
:100E280006FA01F1E5E700BF00080240000C0240A5
:100E3800001002400014024000180240001C02404A
:100E48000020024000000240003C01400004024033
:100E58000369194214BF01200020704702B9090430
:100E680081617047436959404161704782B04FF4CE
:100E780080330193019B0B430193019BC361C161C3
:100E8800019BC361C3690193C06980F48030C0F3DA
:100E9800004002B0704700BF704700BF044A516964
:100EA800014200D1704708B55061FFF7F5FF08BD52
:100EB800003C01402DE9F04106460D4617461C4608
:100EC800FFF764FD80468FB9326801E0611C16D1D6
:100ED800936835EA0303F9D10020BDE8F081B4B185
:100EE800FFF754FDA0EB0800A0420FD8326801E0DC
:100EF800631CF4D1936835EA0303F9D0ECE734B105
:100F0800FFF744FDA0EB0800A042DDD93268536822
:100F1800B16A23F0E00353601368B1F5005F23F072
:100F28004003136007D00122002386F8512086F879
:100F380050300320D1E7136823F40053136013687B
:100F480043F400531360EEE710B5836AB3F5005F0E
:100F580082B0044624D00A23002202212046FFF74B
:100F6800A9FF18B1636D43F02003636522685368D5
:100F780023F00203536080210A2301222046FFF751
:100F880099FF18B1636D43F02003636521684B68CE
:100F9800002223F001034B60E286E28702B010BD15
:100FA800012211460A23FFF785FF88B12268D3681A
:100FB8009BB2ADF80630BDF806309368DB06CAD59B
:100FC800636D6FF0100143F0020363659160C2E73F
:100FD80002460A2301212046FFF76CFF0028E5D0CE
:100FE800636D43F020036365E0E700BF704700BF0F
:100FF80000283AD070B590F85130044603F0FF024B
:1010080073B3D4E90135D4E903012B43034362697F
:10101800A0690B43D4E907611343022584F85150B2
:101028002268A56A33430B431668010C2B43656A93
:1010380000F4007001F004010343294326F0400640
:10104800E56A1660136051601561D369002123F4C5
:1010580000630125D361616584F85150084670BD6D
:1010680080F85020FFF7C2FFCBE70120704700BF90
:10107800704700BF78B10268136810B523F04003C9
:1010880004461360FFF7F4FF0020606584F8500001
:1010980084F8510010BD0120704700BFF0B590F8EA
:1010A8005160012E83B052D10446F0B200294CD0D1
:1010B800002A4AD01D4694F85030012B47D0A66A22
:1010C80084F85000122384F85130B6F5005F4FF0D1
:1010D8000003C4E9123320682163A286E2866365AF
:1010E800E36307D1036823F400530360036843F400
:1010F80000530360A368B3F5004F03D1036843F4BA
:101108008043036003685B0603D4036843F040032D
:101118000360E368F3B96768002F64D0012A0BD134
:1011280070E0236BE28E2068591C2163013A1B781A
:10113800C36092B2E2863AB32B46002202212046CF
:10114800FFF7B8FE0028ECD0032003B0F0BD022062
:1011580003B0F0BD6368002B3BD0012A0BD157E0E8
:10116800E28E236B206833F8021BC160013A92B209
:10117800E286236342B12B46002202212046FFF774
:1011880099FE0028ECD0DFE7A66AB6F5005F03D128
:10119800036843F4805303602B4600220221204653
:1011A800FFF788FE48BB2B46012280212046FFF727
:1011B80081FE10BBA3682BB92368DA6801929B688B
:1011C8000193019B0122002384F8512084F85030B8
:1011D800BBE7013A31F8023BC36092B22163E28671
:1011E800002AC8D1D1E74B1C2363013A0B78C360AE
:1011F80092B2E286002A9FD1C7E7636D43F02003CD
:101208006365A1E74A1C22630A78C260E386BCE7EB
:101218000B46002233F8021BC1602363E286B4E761
:10122800F0B5044690F8510083B00128089E02D01A
:10123800C5B2222D6ED100296FD0002A6DD0002BA7
:101248006BD094F85000012864D094F85100A26340
:101258000125A84204BF322084F85100A06A84F80E
:1012680050500022B0F5005FC4E912226265A387DE
:101278002268E3872163A386E38651D015686D064B
:1012880003D4156845F040051560E568B5F5006FAD
:10129800656851D0002D00F0A980B5F5827F29D16D
:1012A80029E1276BE58E07EB010CC4F830C0013D3E
:1012B800D4F800C03F78CCF80C70ADB2E5864DB9D3
:1012C800A56AB5F5005F05D1DCF8005045F48055F6
:1012D800CCF80050FFF7EEFDC8B9A36B2268591C83
:1012E800D268A1631A70E38FE28E013BE387002A7C
:1012F80000F0EC803346002202212046FFF7DAFD99
:1013080005463346002201212046002DC9D003207E
:1013180003B0F0BD022003B0F0BD012003B0F0BD62
:10132800156825F400551560156845F400551560D5
:1013380015686D06A9D4A4E7002D00F0B280B5F5B4
:10134800827F45D1012B43D131F8025BD560002360
:101358002163E386B0F5005F00F0AE8033460022DB
:1013680001212046FFF7A6FD0028D0D12368A26BF3
:10137800DB6822F8023BE38FA263013BE38756E078
:10138800E58E276BD4F800C037F802EBCCF80CE0F8
:10139800013DADB2E58627634DB9A56AB5F5005F95
:1013A80005D1DCF8005045F48055CCF80050FFF723
:1013B80081FD0028ABD12368A26BDB6822F8023BD1
:1013C800E38FE18EA263013BE387002900F0A3804D
:1013D8003346002202212046FFF76CFD05463346BE
:1013E800002201212046002DCAD090E74D1C25631C
:1013F800013B0978D1609BB2E386002B7FF47AAF7A
:10140800B0F5005F03D1136843F48053136033468B
:10141800002201212046FFF74DFD00287FF477AF19
:101428002268A36BD2681A70E38F013BE387A36A33
:10143800B3F5005F26D03346012280212046FFF70E
:1014480039FD002861D1A16A2368012284F851205E
:10145800B1F5005F9D6811D1E9060FD5616D41F0C6
:1014680002016165196821F400511960196841F495
:101478000051196084F8500010464CE7002384F8A6
:10148800503048E73346002201212046FFF712FD7D
:10149800B8B92368DB689BB2ADF80630BDF80630F2
:1014A800C9E7013B31F8025BD5609BB22163E38653
:1014B800002B3FF44FAF8BE7136843F4805313605E
:1014C8004CE7636D43F00203636520E76268002A16
:1014D800ADD1334601212046FFF7ECFC00287FF40C
:1014E80016AFA36B2268591CD268A1631A70E38FE8
:1014F800013BE3879BE7012B7FF4FCAE4B1C236386
:101508000B78D3600023E3867AE7636D43F020030A
:1015180063650320FFE66268002A88D1334601210B
:101528002046FFF7C7FC00283FF420AFEFE600BFD6
:10153800F0B5044690F85100012885B05AD1C5B2DB
:10154800002954D0002A52D01E4694F85030012B5E
:1015580050D0A06884F85050222384F85130B0F558
:10156800004F4FF00003C4E91233A163A287E2875A
:101578006365636304D127683B6823F480433B6059
:10158800A36AB3F5005F0CD12768D7F800C02CF424
:10159800005CC7F800C0D7F800C04CF4005CC7F87E
:1015A80000C06768B7F5827F40D0216808684006A8
:1015B80003D4086840F040000860E068F0B9012AE8
:1015C8000CD868E0A36B2268591CD268A1631A7012
:1015D800E28F013A92B2012AE2875BD933460022B0
:1015E80001212046FFF766FC0028EBD0032528469A
:1015F80005B0F0BD0225284605B0F0BD012A0CD87B
:1016080021E02168A36BCA6823F8022BE28FA36349
:10161800013A92B2012AE28714D933460022012105
:101628002046FFF747FC0028EBD0DFE70028BCD1B5
:1016380084F850001346009620460A46FFF7F0FD4E
:101648000546D4E7A36AB3F5005F33D033460022DA
:1016580001212046FFF72EFC0028C7D1E368226845
:1016680013BBA36BD268591CA1631A70E38FA26ADB
:10167800013BB2F5005FE38721D0D4E90031B1F531
:10168800827F2FD0012284F851209B68002584F89E
:101698005050ACE7A36AB3F5005FD7D1226813684E
:1016A80043F480531360D1E7A36BD26823F8022B6D
:1016B800A363DBE70B6843F480530B60C6E733464C
:1016C800002201212046FFF7F5FB80BBD4E900305A
:1016D800D968A26A89B2ADF80E10B0F5827FBDF85C
:1016E8000E1006D1A168B1F5004F1BD0B1F5806F7F
:1016F80018D0012184F85110B2F5005F9968C5D15E
:10170800CA06C3D5626D42F0020262651A6822F405
:1017180000521A601A68002142F400521A6084F8D4
:10172800501064E7196821F040011960E1E7636D22
:1017380043F00203636559E730B490F85140012C37
:1017480031D10346E0B261B35AB393F85040012C4B
:1017580029D09C68214D83F850001963122000217C
:10176800B4F5004F83F851009A86DA869964596572
:10177800D963DD641AD09A6AB2F5005F1A6823D07B
:10178800ECB9516841F080015160002083F85000A5
:10179800136813F0400304D1116841F04001184662
:1017A800116030BC7047022030BC70471A68986AD4
:1017B8001168B0F5005F41F48041116004D05168B0
:1017C80041F0A0015160E0E7116821F40051116077
:1017D800116841F400511160D2E700BF9D1C000858
:1017E80030B490F85140012C09D0E5B24468B4F502
:1017F800827F42D18468002C3FD1222D3DD100291F
:101808003ED0002A3CD0002B3AD090F85040012C12
:1018180033D090F851408263222C1CBF322480F8C8
:1018280051400125846A194A80F85050184D0163C7
:10183800B4F5005F4FF00001C0E912258386026805
:10184800C3868387C387416507D1136823F4005390
:101858001360136843F4005313605168002341F088
:10186800E001516080F85030106810F040000AD153
:10187800136843F04003136000E0022030BC704757
:10188800012030BC70471846F8E700BF811E0008E9
:101898009D1C000870B490F85160012E38D1F3B245
:1018A800002932D0002A30D090F85060012E04462A
:1018B8002ED0866880F85030222380F851300023DB
:1018C8004365C3644363B6F5004F1E4B816382874B
:1018D800C287836429D01EB94368B3F5827F2AD0B2
:1018E8002268A36AB3F5005F16D05168002341F05F
:1018F8006001516084F85030116811F0400104D142
:10190800106840F040000B461060184670BC7047E5
:101918000223184670BC7047136823F40053136001
:10192800136843F400531360DFE70268136823F475
:1019380080431360D5E780F85060134670BC0A46B0
:10194800FFF74EBF3D1E000870B590F85150012DAD
:1019580041D10446E8B200293CD01346002A39D0C8
:1019680094F85020012A36D0002284F85000A56847
:10197800E264122084F85100A2646265E26322687E
:101988002163B5F5004F08BF1068A38608BF40F46F
:101998008040E38608BF1060A06AB0F5005F1CD0E5
:1019A800206C124D0564124E124DC6630C328564CC
:1019B80001F0ACF90022236884F850201A68520616
:1019C80003D41A6842F040021A605A6842F00202D0
:1019D8005A60002070BD022070BD106820F40050CD
:1019E8001060106840F400501060D9E76D1C0008C2
:1019F800CD1E0008AD1E000870B5044690F85100D1
:101A0800012809D0C5B26068B0F5827F62D1A068AC
:101A180000285FD1222D5DD100295DD0002A5BD03E
:101A2800002B59D094F85000012853D094F8510055
:101A3800216322281CBF322084F85100A06AA386A3
:101A480000210125B0F5005FC4E91211616584F831
:101A580050502168E386A263A387E38707D108680B
:101A680020F400500860086840F40050086094F8BA
:101A78005100222807BF194E194D1A4E1A4D606C95
:101A8800C0E90F56194D85640C3101F03FF9226801
:101A9800206C5168E38E002641F001015160C66355
:101AA80094F85110322918BF35460C32216B8564E1
:101AB80001F02CF9236884F850601A68520603D4A0
:101AC8001A6842F040021A605A6842F002025A60EC
:101AD800002070BD022070BD012070BD7D1C000873
:101AE800451F00088D1C00080D200008AD1E0008C9
:101AF8002DE9F04190F85150012D44D11346EEB232
:101B08000A4600293CD0002B3AD090F85050012DBD
:101B1800044638D0876880F85060222580F85150F4
:101B2800B7F5004F4FF00005C0E912558163838770
:101B3800C3874565456333D01FB94568B5F5827FCE
:101B480034D02168A06AB0F5005F20D0606C1A4DCF
:101B580005641A4E1A4DC6630C31856401F0D6F837
:101B68000022236884F850201A68520603D41A68A1
:101B780042F040021A605A6842F001025A60002698
:101B88003046BDE8F08102263046BDE8F08108689D
:101B980020F400500860086840F400500860D5E759
:101BA8000168086820F480400860CBE780F850702E
:101BB800BDE8F041FFF720BF7D1C0008451F000865
:101BC800AD1E000890F85020012A10D00268516814
:101BD80021F0020110B4516051680346002421F03D
:101BE8000101516083F85040204610BC7047022024
:101BF800704700BF90F85020012A10D00268516841
:101C080041F0020110B4516051680346002441F0CC
:101C18000101516083F85040204610BC70470220F3
:101C2800704700BF10B50446006C08B101F09CF87D
:101C3800606C08B101F098F823685A6822F0020233
:101C48005A605A68012122F001025A6084F8511042
:101C5800002010BD704700BF704700BF704700BF2D
:101C6800704700BF08B5806BFFF7FAFF08BD00BFDB
:101C7800704700BF08B5806BFFF7FAFF08BD00BFCB
:101C8800704700BF08B5806BFFF7FAFF08BD00BFBB
:101C9800704700BF10B5C36882B004461BBB036B16
:101CA8000268591C01631B78D360E38E013B9BB229
:101CB800E386B3B9A36AB3F5005F1BD00A230022F9
:101CC80002212046FFF7F6F818B1636D43F02003B0
:101CD800636523685A6822F080025A605A6852067F
:101CE8000DD502B010BD036B026833F8021BD1603A
:101CF8000363DAE7136843F480531360DEE75A6836
:101D080022F020025A6080210A2301222046FFF790
:101D1800D1F818B1636D43F020036365A3682BB94C
:101D28002368DA6801929B680193019B636D5BB934
:101D380094F85130322B4FF0010384F8513020468B
:101D480009D0FFF787FFCCE7012384F851302046FC
:101D5800FFF79EFFC5E7FFF781FFC2E730B5836A4B
:101D6800B3F5005F83B004461FD003685A6822F0B9
:101D780040025A605A68120615D45A68616822F0FF
:101D88002002B1F5827F5A603CD0636D002B45D1AB
:101D980094F85130322B4FF0010384F8513020462B
:101DA80044D0FFF759FF03B030BD0A2300220121B8
:101DB800FFF780F818B1636D43F02003636523686B
:101DC800DB6801229BB2ADF8063011460A23204693
:101DD800BDF80650FFF76EF818B1636D43F02003A5
:101DE800636523689A68D106C0D5626D42F0020225
:101DF80062651A6822F400521A601A6842F40052A6
:101E08001A60B3E7A268B2F5004F02D0B2F5806F4E
:101E1800BBD11A6822F040021A60B6E7012384F8A1
:101E280051302046FFF734FF03B030BDFFF716FFEF
:101E380003B030BDC36802688BB9836BD268591C84
:101E480081631A70C38F013B9BB2012BC38701D0FA
:101E580023B983E7836AB3F5005F06D07047836BC5
:101E6800D26823F8022B8363ECE70268136843F413
:101E780080531360704700BFC368026853B9836B0F
:101E8800D268591C81631A70C38F013B9BB2C38708
:101E980033B17047836BD26823F8022B8363F3E76F
:101EA8005CE700BF806B08B5012380F85130436DB3
:101EB800002243F010034365C286C287FFF7E8FE9D
:101EC80008BD00BF10B50368846B1A6812F48072ED
:101ED80082B012D0A3682BB92368DA6801929B6894
:101EE8000193019B636D20461BB1FFF7D1FE02B041
:101EF80010BDFFF7AFFE02B010BD0A230221204635
:101F0800FEF7D8FF18B1636D43F0200363652268BC
:101F1800536823F00203536080210A2301222046DC
:101F2800FEF7C8FF18B1636D43F020036365002214
:101F38000123E28684F85130CCE700BF30B503684E
:101F4800846B1B68D90583B02AD4A368C3B96368B6
:101F5800B3F5827F51D021684B68A06A23F0010352
:101F68000022B0F5005F4B60E2871ED0012384F8A1
:101F78005130636D2046A3B1FFF78AFE03B030BD30
:101F88006268B2F5827FE6D1B3F5004F216802D0CE
:101F9800B3F5806FE0D10B6823F040030B60DBE7FB
:101FA8002046FFF759FE03B030BD0A230121204621
:101FB800FEF780FF18B1636D43F020036365236863
:101FC800DB6801229BB2ADF8063011460A23204691
:101FD800BDF80650FEF76EFF18B1636D43F020039D
:101FE800636523689A68D206C0D5626D6FF01001E8
:101FF80042F0020262659960B8E72046FEF7A4FF46
:10200800B4E700BF03681B6810B5846BDB05204686
:102018000AD4FEF799FF012384F85130636D2046F6
:1020280013B1FFF735FE10BDFFF718FE10BD00BF56
:1020380030B5036899685C689D68C90785B0024631
:1020480003D5610601D56D064CD5996858688C078B
:1020580001D5000638D45968890633D59968CD0664
:1020680006D5516D6FF0100041F00201516598607E
:1020780099688C060AD5516D41F00101516599683E
:102088000191196821F04001196001999968480681
:102098000CD592F85110122908D0516D41F0040165
:1020A8005165D96802919968029102999968C905A0
:1020B80006D5516D41F0080151659B680393039B58
:1020C800536D3BB905B030BDD36C104605B0BDE8C3
:1020D80030401847012382F851301046FFF7D8FDE9
:1020E80005B030BD836CF1E790F85100704700BF30
:1020F800406D70470749CA6803024FF6FF0003F4B2
:10210800E0630240134343F0BF6343F40033CB6002
:10211800704700BF00ED00E0194BDB68C3F30223F2
:1021280030B4C3F10705042D03F1040428BF0425C6
:10213800062C19D9033B4FF0FF349C4022EA0402D5
:102148004FF0FF34AC4021EA04019940002841EAED
:1021580002010CDB00F1604000F561400901C9B2E1
:1021680080F8001330BC704700221346E8E7054B9F
:1021780000F00F0009010344C9B2197630BC70475A
:1021880000ED00E0FCEC00E000F01F01034A40090C
:1021980001238B4042F82030704700BF00E100E087
:1021A80043090549203300F01F00012202FA00F01C
:1021B80041F82300704700BF00E100E0BFF34F8FF4
:1021C8000549064BCA6802F4E0621343CB60BFF3CB
:1021D8004F8F00BFFDE700BF00ED00E00400FA05E7
:1021E8000138B0F1807F0DD2074B10B4074C58600E
:1021F800F02084F823000022072110469A6010BCC2
:10220800196070470120704710E000E000ED00E021
:10221800124943788B600278EAB1436870B4CB60A6
:10222800C37A057B847A867B1B0643EA05731343CE
:10223800427BC57B43EAC44343EA8243447A027A39
:1022480043EA464343EA054343EA042343EA420395
:1022580070BC0B617047CA600A61704790ED00E07E
:10226800024BD868C0F30220704700BF00ED00E0C1
:10227800002830B423DB00F1604000F5614090F89D
:102288000003000901F00701C1F10705042D01F160
:10229800040428BF0425062C0FD903394FF0FF3456
:1022A8008C4020EA0404C8404FF0FF31A94020EADE
:1022B800010010601C6030BC70470024F4E7034C38
:1022C80000F00F000444207E0009DBE7FCEC00E08E
:1022D80043090549403300F01F00012202FA00F0CB
:1022E80041F82300704700BF00E100E04309054AB8
:1022F800403300F01F0052F8233023FA00F000F0BA
:102308000100704700E100E043090549603300F02F
:102318001F00012202FA00F041F82300704700BFB5
:1023280000E100E04309054A803300F01F0052F83D
:10233800233023FA00F000F00100704700E100E0CC
:10234800044A136804280CBF43F0040323F0040371
:102358001360704710E000E0704700BF08B5FFF752
:10236800FBFF08BD704700BFF0B50368DE0783B008
:1023780004463AD5A3498A6802F00C02042A00F000
:10238800F0808A6802F00C02082A03D14A685502D4
:1023980000F1E7809C4B9B4E00221A70FEF7F6FA7C
:1023A80041F28837054605E0FEF7F0FA431BBB42C9
:1023B80000F2C68033689903F6D4934B22791A70D9
:1023C8006368002B00F00981FEF7E0FA8D4E0546A0
:1023D80041F2883705E0FEF7D9FA401BB84200F20F
:1023E800AF8033689A03F6D523689F072DD5854AB1
:1023F800916811F00C0F00F0AA80916801F00C01AF
:10240800082900F0A080E368002B00F0D5807F4BFE
:102418007C4E01221A60FEF7B9FA054605E0FEF780
:10242800B5FA401B642800F28B8033689807F6D50C
:102438003168F82292FAA2F22369B2FA82F221F004
:10244800F80193400B43336023681A0720D45807D8
:1024580034D4A369CBB16B4DAA6802F00C02082AE8
:102468007CD0022B6A4B4FF000021A6000F0C58046
:10247800FEF78CFA2C46054604E0FEF787FA401B67
:1024880064285DD823689B01F7D4002003B0F0BD11
:102498006369002B6FD05F4B5A4E01221A60FEF71A
:1024A80075FA054604E0FEF771FA401B642847D820
:1024B800736F9B07F7D523685807CAD5514B564DFC
:1024C8001A6C42F080521A641B6C03F0805301931B
:1024D800019B2B6843F480732B60FEF757FA06467E
:1024E80004E0FEF753FA801B642829D82B68D90525
:1024F800F7D54A4B434E00221A70FEF747FA41F2CD
:102508008837054604E0FEF741FA401BB84217D861
:10251800336F9A07F7D4414B227A1A70A368002BBD
:1025280000F0BC80FEF732FA364E054641F2883795
:10253800336F9B078DD4FEF729FA401BB842F7D9B1
:10254800032003B0F0BD526856023FF55CAF2D4A38
:10255800126895071FD5E268012A1CD0012003B034
:10256800F0BD284A126890037FF53FAF6268002AE1
:102578007FF43BAFF2E7274A224E1360FEF706FAD4
:10258800054604E0FEF702FA401B6428D8D8736FAA
:102598009F07F7D48FE71B4DF821286891FAA1F11E
:1025A8002269B1FA81F120F0F8008A4002432A60DA
:1025B8001A077FF54CAF6BE7144A124E1360FEF70B
:1025C800E5F9054604E0FEF7E1F9401B6428B7D8B1
:1025D80033689907F7D4236837E7FEF7D7F9094E28
:1025E800054641F2883704E0FEF7D0F9401BB842AF
:1025F800A6D833689B03F7D4F6E6FEF7C7F9064674
:1026080013E000BF00380240023802400000474291
:1026180060004742800E4742007000407038024018
:10262800FEF7B4F9801B64288AD82B689901F7D47F
:1026380047F6C07696FAA6F64FF44032B6FA86F612
:1026480092FAA2F24FF07061B2FA82F091FAA1F117
:10265800D4E90972D4E9073C5208E46A07FA06F695
:1026680043EA0C03013A82403343B1FA81F104FA98
:1026780001F11343114A124E0B4301216B601160A3
:10268800FEF784F9044605E0FEF780F9001B64288C
:102698003FF656AF33689A01F6D5F6E6FEF776F9B7
:1026A800074E054641F28837336F98077FF5D1AE5C
:1026B800FEF76CF9401BB842F6D941E76000474283
:1026C800003802407D4A136803F00F038B422DE95E
:1026D800F0410C46054609D2CBB21370136803F0DB
:1026E8000F038B4259D00120BDE8F08103689A0797
:1026F80006D5734980688A6822F0F00202438A602E
:10270800DF0728D56A68012A7AD0931E012B6C4B03
:102718001B6840F285809907E5D5694EB36823F0B8
:1027280003031343B360FEF731F96B68012B0746C7
:102738007AD0022B00F08E80032B00F0B58041F296
:10274800883804E0FEF722F9C01B404565D8B36815
:1027580013F00C0FF6D1594BE2B21A701B6803F054
:102768000F03A342BFD12B685A0706D55449E8681E
:102778008A6822F4E05202438A601B0707D5504A50
:102788002969936823F4604343EAC10393600F20E7
:10279800FEF7CAF80020BDE8F08103689F0706D558
:1027A800474980688A6822F0F00202438A60DE079F
:1027B800DAD56A68012A48D0931E012B404B1B6862
:1027C80040D999078FD53E4CA36823F003031343E0
:1027D800A360FEF7DBF86B68012B064648D0022B96
:1027E80054D0032B11D041F2883704E0FEF7CEF81D
:1027F800831BBB4211D8A36813F00C0FF6D1B2E7C4
:102808002F4B1B689E0388D46DE741F28835A36877
:10281800FEF7BCF8801BA842F9D90320BDE8F08177
:1028280098013FF57AAF5EE741F2883804E0FEF799
:10283800ADF8C01B4045F0D8B36803F00C03042B77
:10284800F5D188E79801BED44DE71D4B1B689C0362
:10285800B9D448E741F2883804E0FEF797F8C01B7E
:102868004045DAD8B36803F00C03082BF5D172E7BA
:1028780041F2883704E0FEF789F8801BB842CCD8CB
:10288800A36803F00C03042BF5D16CE741F28837F9
:1028980004E0FEF77BF8801BB842BED8A36803F0BB
:1028A8000C03082BF5D15EE741F28834B368FEF7D4
:1028B8006DF8C01BA042F9D9AFE700BF003C024049
:1028C8000038024070B50D4688B01446F8B9214E5C
:1028D800326B42F001023263326B02F001020346AE
:1028E80001924FF48071019A059307930222039194
:1028F80003231948049203A90693FEF7C5F8B268A2
:1029080022F0EC622A432243B26008B070BD114E37
:102918001248336B43F004033363336B03F004034F
:1029280002934FF400720223029903920493032244
:10293800002303A9059307930692FEF7A5F8B36849
:1029480023F0784343EA050141EAC401B16008B0C5
:1029580070BD00BF0038024000000240000802407D
:10296800014B01221A6070474C004742014B00227C
:102978001A6070474C004742194A936803F00C03E9
:10298800042B2BD0082B27D15168536801F03F0145
:1029980013F4800F536847F6C07292FAA2F0B0FAA7
:1029A80080F003EA020323FA00F314BF0D480E482F
:1029B800B0FBF1F000FB03F0094B4FF440325B68C9
:1029C80092FAA2F2B2FA82F203F44033D34001330E
:1029D8005B00B0FBF3F0704703487047014870474D
:1029E8000038024000127A000024F40008B5FFF70E
:1029F800C3FF084BF0229B6892FAA2F2B2FA82F265
:102A080003F0F0030449D340044ACB5CD84010607B
:102A180008BD00BF003802406043000804000020E1
:102A280008B5FFF7E3FF074B4FF4E0529B6892FAB3
:102A3800A2F2B2FA82F203F4E053D340024AD35C22
:102A4800D84008BD003802406043000808B5FFF7C9
:102A5800CDFF074B4FF460429B6892FAA2F2B2FA9C
:102A680082F203F46043D340024AD35CD84008BDE5
:102A780000380240604300080F22314B02601A6898
:102A8800520310B44ED5052343602D490B6803F05B
:102A98000103C3600B68F82292FAA2F2B2FA82F23A
:102AA80003F0F803D34003610B6F5B0741D505239F
:102AB8008360234A536F03F001034361136813F0E3
:102AC800807F14BF022301238361536803F48003CA
:102AD800C361536803F03F030362536847F6C07449
:102AE80094FAA4F1B1FA81F12340CB4043625368D0
:102AF8004FF4403191FAA1F103F4403303F58033E8
:102B0800B1FA81F15B00CB40836253684FF0706289
:102B180092FAA2F2B2FA82F203F07063D34010BCC8
:102B2800C36270471B6813F4803318BF01234360E6
:102B3800ABE70B6F13F0010318BF01238360B8E7FD
:102B4800003802400D4B0F2202609A6802F003021F
:102B580042609A6802F0F00282609A6802F4E052D9
:102B6800C2609B68DB0810B403F4E053044C0361B3
:102B7800236810BC03F00F030B6070470038024055
:102B8800003C0240704700BF08B5054BDB681B06D8
:102B980000D408BDFFF7F6FF024B80221A7008BD6B
:102BA800003802400E380240002849D070B4D0E9FD
:102BB80001250346D0E903012A435C699D691E6A21
:102BC80002430A43D86919682243022483F835402E
:102BD8002A4302430D681B4C586A32432C40042890
:102BE80042EA04021FD00A604A6922F00702104331
:102BF800154C4861CAB2103AA4FB02400009134CB4
:102C080021F47F71205C586521F003015F2A4FF0A1
:102C180000004FF0010288BF0431D86483F83520E2
:102C280070BC19657047D3E90B40044322439D6A81
:102C38000A60486920F00700284340F00400D7E7FD
:102C4800012070473F8010F0ABAAAAAA7043000881
:102C580000282FD090F83530022B02462AD003687E
:102C68001549D8B2103870B4A1FB00611D68134C27
:102C7800090925F00105665C1D6000212124196001
:102C880059609960D96019615C6123F47F7323F0FE
:102C980003035F2888BF04333F240021B4405665EE
:102CA80013659C60D16482F8341082F835100846A8
:102CB80070BC704701207047ABAAAAAA70430008ED
:102CC80070B490F83440012C1DD004680126022508
:102CD80080F8346080F835502568866825F001054D
:102CE80025602068402E20F48020206063600BBFA0
:102CF800A260A160E160E260236843F00103236001
:102D0800002070BC7047022070BC704770B490F807
:102D18003440012C25D004680126022580F834604F
:102D280080F835502568866825F0010525602068FB
:102D3800402E20F48020206063600BBFA260A16059
:102D4800E160E260236843F01E032360636943F097
:102D580080036361236843F001032360002070BC93
:102D68007047022070BC7047026838B5136823F0BA
:102D7800010313600446FDF709FE054605E0FDF76B
:102D880005FE401BB0F57A7F0BD823681B6813F04B
:102D98000103F4D1012284F8343084F83520184630
:102DA80038BDE26C0323002142F02002E26484F87B
:102DB800341084F83530184638BD00BF2DE9F04F7F
:102DC80083B0046D436D00918246904600293DD141
:102DD80020279F40FDF7DAFDDFF834B1DFF83491A2
:102DE80001900821DAF854E001FA0EFC0BFA0EF211
:102DF80009FA0EF00FE026682368256816EA0C0F1A
:102E080003EA020305EA000523D15BBB002D3BD191
:102E1800B8F1FF3F40D123683B42ECD0009B002B28
:102E280053D13023DAF8002003FA0EF3A3601368B5
:102E3800580302D51368190359D411238AF8353079
:102E480000208AF8340003B0BDE8F08F10279F40B7
:102E5800C0E7DAF84C1041F00101CAF84C10C4F888
:102E680008C033B1DAF84C3043F00203CAF84C30EA
:102E7800A2604DB9042200238AF835208AF834303C
:102E8800012003B0BDE8F08FDAF84C3043F00403BA
:102E9800CAF84C30A060EDE7B8F1000F07D0FDF795
:102EA80075FD019BC01A40454FF008019AD9DAF820
:102EB8004C30032243F020030021CAF84C3010465E
:102EC8008AF835208AF83410DBE71023DAF8002076
:102ED80003FA0EF3A360106810F4802003D0106882
:102EE80010F400200AD131238AF83530C9E7136875
:102EF8001B03A5D521238AF83530A1E7136813F4FD
:102F080000231CBF41238AF835300020B9E700BFF1
:102F180001008000040080002DE9F041D0E914533D
:102F2800082229689A401142044604D001680E68B4
:102F3800760700F183805A4A29689A40114203D0E3
:102F480021684869000663D4564A29689A401142A4
:102F580003D021680868870745D4296810229A4059
:102F6800114203D021680868060727D4296820225F
:102F780002FA03F319421FD022681168CF061BD545
:102F880011684E0378D41168C90503D4116821F07B
:102F980010011160AB60E26CE36BE2641121002266
:102FA80084F8351084F8342033B12046BDE8F04168
:102FB8001847136818036ED4BDE8F0810868400309
:102FC80052D40868C00503D4086820F008000860D7
:102FD8003121AA6084F83510226C002AC6D0204618
:102FE8009047636DC2E70868A66C20F0020008608D
:102FF800AA60E26C04210A430020E26484F83400E9
:1030080084F83510002EA8D02046B047636DA4E799
:103018004869A66C20F080004861AA60E26C04212F
:1030280042F002020020E26484F8340084F835108B
:10303800002E89D02046B047636D85E70E68876CFF
:1030480026F004060E60AA60C26C042142F0010258
:103058000026C26480F8346080F83510002F3FF4F1
:103068006AAFB847636D66E7AA600A6817030BD4AE
:10307800312284F83520AFE7AB6013681D0398D47C
:10308800636C002B91D197E70A681603A4D54122F7
:1030980084F83520A0E7E36B002B86D18CE700BFCE
:1030A800010080000400800090F83500704700BFE0
:1030B800C06C7047830730B547D0541E002A3ED0F5
:1030C800CAB2034601E0013C39D303F8012B9D073E
:1030D800F9D1032C2CD9CDB205EB05250F2C05EB26
:1030E800054535D9A4F1100222F00F0C03F1100E9A
:1030F800E6444FEA121C1A46C2E90055C2E90255D5
:1031080010327245F8D10CF1010214F00C0F03EBE8
:10311800021204F00F0C13D0ACF1040323F00303E4
:103128000433134442F8045B9342FBD10CF00304CC
:103138002CB1C9B21C4403F8011BA342FBD130BD1A
:1031480064461346002CF4D1F9E703461446C0E759
:103158001A46A446E0E700BF70B50F4B0F4DAB42CF
:10316800A3EB050607D0B610002455F8043B01343C
:103178009847A642F9D801F0C3F8094D094B5E1BE0
:10318800AB424FEAA60606D0002455F8043B0134AA
:103198009847A642F9D870BDA4430008A443000884
:1031A800A4430008AC43000808B50021044600F019
:1031B80023F8034B1B6803B19847204601F022F817
:1031C800A0080020002301461A46184600F06CB8F3
:1031D80038B5074D074C2C1BA41005D0013C55F8F9
:1031E800043D9847002CF9D1BDE8384001F08EB86D
:1031F800B0430008AC4300082DE9F04F294F83B0D5
:103208003E6801905EB38B464FF000094FF001080D
:103218007468651E23D4013406EB8404BBF1000FE7
:1032280020D173682268013BAB420CBF7560C4F8BB
:1032380000907AB1D6F88811D6F804A008FA05FCEF
:103248001CEA010F1AD1904771683A68514522D19A
:10325800B24220D1013D6B1CA4F10404DED103B0BD
:10326800BDE8F08FD4F800315B45DAD0013D6A1C27
:10327800A4F10404F6D103B0BDE8F08FD6F88C3180
:10328800D4F880101CEA030F09D10198904771689F
:103298003A685145DCD0002AE1D01646B8E708461E
:1032A8009047D1E7D405002070B4164D2C681CB3A4
:1032B80065681F2D23DC38B9AB1C0135656044F8FF
:1032C8002310002070BC704704EB850C0228CCF852
:1032D8008820D4F888614FF0010202FA05F246EA24
:1032E8000206C4F88861CCF80831E5D1D4F88C31ED
:1032F8001343C4F88C31DFE7034C2C60D8E74FF058
:10330800FF30DFE7D4050020D805002000207047F3
:10331800024A0349034800F00BB900BF140000201B
:10332800893D0008280000200C4B4168994210B5DF
:10333800044601D000F024FDA168094B994202D04F
:10334800204600F01DFDE168064B994204D0204656
:10335800BDE8104000F014BD10BD00BF6807002094
:10336800D007002038080020002070472DE9F843D6
:103378002A4C2B49DFF8AC90DFF8AC802B4FC4F80F
:103388003811002504230822294604F15C00284E40
:10339800E360C4E90055C4E90455A5606566A56104
:1033A800FFF788FE234B63670822294604F1C4000F
:1033B800C4E90749C4E90987C4E91A55C4E91E558F
:1033C8002567C4F8CC50C4F88050E662FFF772FE57
:1033D800194BC4F8DC30294604F16803082204F5C7
:1033E8009670C4F88430C4E92298C4E92476C4E904
:1033F8003455C4E93855C4F8D850C4F83451C4F821
:10340800E850FFF757FE04F1D003C4E93C98C4E93B
:103418003E76C4F8EC30BDE8F88300BF68070020AA
:1034280019330008353E00085D3E00089D3E00083F
:10343800C13E00080900010012000200F8B5254B42
:10344800D3F838310646002B3CD0234FD7E9013456
:10345800013B04D51DE05A1C04F1680419D0B4F9E5
:103468000C50013B002DF6D11C4BE360C4E901551B
:10347800C4E9045565662560A5610822294604F15A
:103488005C00FFF717FEC4E90C55C4E91155204646
:10349800F8BD3D680DB12F46D8E74FF4D6713046D8
:1034A80000F068F8044680B10423C0E900530C30EA
:1034B8002946A0604FF4D0722546FFF7FBFD3C601B
:1034C8002F46C3E7FFF752FFBFE70C23386033608E
:1034D800DDE700BF68070020140000200100FFFF9F
:1034E800436B03B17047044B044AD3F83831426345
:1034F800002BF7D13AE700BF6807002031330008F6
:10350800704700BF704700BF024A0349002000F01F
:103518000FB800BF1400002015330008024A034901
:10352800002000F005B800BF140000207133000827
:103538002DE9F8430746884616464FF00009D6E9B4
:103548000154013D10D4A389012B08D9B4F90E30D8
:1035580001332146384602D0C04749EA0009013DF7
:103568006B1C04F16804EED13668002EE7D148469A
:10357800BDE8F8832DE9F04F01F10B05162D83B056
:10358800064623D8102900F2AF8000F0AFFC1025C2
:1035980018230220C14F3B44A3F108025C689442FF
:1035A80000F025816368E268A16823F00303CA601C
:1035B8002344304691605A6842F001025A6000F094
:1035C80097FC0834204603B0BDE8F08F35F00705B6
:1035D80000F18A80A94200F2878000F087FCB5F5E7
:1035E800FC7FC0F06D816B0A00F08280042B00F232
:1035F8002481AB0903F1390003F1380EC300A74F4A
:103608003B44A3F1080C5C68A44507D10DE0002AEF
:10361800E16880F2E6808C4507D00C46636823F0A9
:1036280003035A1B0F2AF2DD7046DFF874823C69E7
:10363800444500F0C380636823F0030CACEB05033A
:103648000F2B00F34181002BC7E9048880F22C81FD
:10365800BCF5007FD7F804E080F0CF804FEADC01AA
:1036680001314FEA5C1C012303FA0CF357F83120AF
:10367800A2604EEA030E07EBC103083BE360C7F8FC
:1036880004E047F83140D46083104FF0010C0CFA85
:1036980003FCF44532D81CEA0E0F08D120F00300D1
:1036A8004FEA4C0C1CEA0E0F00F10400F8D007EBAF
:1036B800C00AD6468146DEF80C300BE0596821F086
:1036C80003014A1B0F2A1C46DB6800F3C280002A4C
:1036D80080F2D6809E45F1D109F1010919F0030F56
:1036E8000EF1080EE7D118E10C233360002469E7D6
:1036F8004FF4007340204FF03F0E80E7BC686368CA
:1037080023F00309A94503D3A9EB05030F2B58DCC4
:10371800DFF890B1DBF8002004EB09031032082031
:1037280002EB0508009300F073FBD7F80814013189
:10373800024605D008F1FF388044414201EA0808F2
:1037480041463046009200F0D5FBB0F1FF3F009AA9
:10375800824600F0D48004EB0903834200F2CD8056
:10376800DBF804104144CBF80410084602F1FF3C92
:1037780040F0F5801AEA0C0F40F0F180D7F808A065
:10378800C84448F00100CAF80400DBF82C208A423B
:10379800DBF8302038BFCBF82C108A4238BFCBF882
:1037A8003010544620F00308A845A8EB050301D3C0
:1037B8000F2B06DC304600F09BFB97E7D7F804E0B8
:1037C80062E7621943F0010345F001056560304680
:1037D800BA60536000F08CFB0834204603B0BDE8A3
:1037E800F08FA2682344D16030468A60E3E6DC6843
:1037F800A3427FF4D7AE023017E7BCF5206F4FEA3B
:103808005C2273D3142A00F20A8102F15C03DB0004
:103818005B32F918FB580839994203D1E6E09B68F6
:10382800994204D05A6822F003026245F7D8D96851
:10383800C4E902318C60DC6026E7142B62D9542B72
:1038480000F2F6802B0B03F16F0003F16E0EC3003C
:10385800D5E6D4F808C03046661945F0010565601C
:10386800CCF80C30C3F808C042F00103C7E904667D
:10387800C6E902887360625000F03AFB0834A1E69A
:10388800214430464A6842F001024A6054F8082F41
:10389800D3609A6000F02CFB94E600BF480100203A
:1038A80050010020A4080020A4443046DCF804306D
:1038B80043F00103CCF8043000F01AFB083481E629
:1038C800E80805F1080365E6621943F0010145F0CF
:1038D800010565603046C7E90422C2E902885160E3
:1038E80044F80C3000F004FB08346BE64FEA9C12F5
:1038F80002F13903DB0038328BE7BC4228D0BC68C0
:1039080060684FE703F15C0003F15B0EC30076E6E5
:103918005AF80839534540F0D88010F0030F00F1E9
:10392800FF30F5D17B6823EA0C037B604FEA4C0C2F
:103938009C453FF6E3AEBCF1000F04D1DEE64FEA4A
:103948004C0C09F104091CEA030FF8D04846AEE60E
:10395800DBF804004044CBF8040002F1FF3CD7F840
:10396800081401316ED004EB0903AAEB03031844D1
:10397800CBF804001AF00703009341D0C3F1080103
:103988008A44D0440A4408EA0C01521A02EA0C019B
:103998003046019100F0AEFA421C6FD00199A0EBBD
:1039A8000A0000EB0108DBF80420C7F808A048F07B
:1039B80001001144BC42CAF80400CBF804103FF4DB
:1039C800E4AEB9F10F0F40D96268A9F10C0020F0FC
:1039D800070002F0010202436260052322180F2843
:1039E800C2E9013352D8DAF80400CEE692104FF05B
:1039F800010C0CFA02F24EEA020EC7F804E017E7CF
:103A08000AEB080101EA0C01521A02EA0C013046DD
:103A1800019100F06FFA431CC0D10099C3E7542A02
:103A280017D84FEA1C3202F16F03DB006E32F0E662
:103A3800B3F5AA7F17D8EB0B03F1780003F1770EE3
:103A4800C300DCE5C7F808A494E70123CAF80430EA
:103A5800B0E6B2F5AA7F23D84FEADC3202F1780348
:103A6800DB007732D5E640F25452934223D8AB0CB0
:103A780003F17D0003F17C0EC300C0E5009BA3F1B8
:103A880008029044A8EB0A0800218CE704F1080119
:103A9800304600F079F8DBF80410D7F808A0A2E760
:103AA80040F254539A420CD84FEA9C4202F17D03EB
:103AB800DB007C32ADE64FF47E737F204FF07E0E44
:103AC8009DE54FF47E737E22A3E67B682EE700BF58
:103AD8002DE9F84306460820894600F099F9DFF8F1
:103AE8009C800546304600F001FAD8F808305F6837
:103AF80027F00307A7F11104A4EB09042C44B4FB35
:103B0800F5F4013C05FB04F4A54208DC002130462D
:103B180000F0F0F9D8F808303B44984205D0304618
:103B280000F0E6F90020BDE8F8836142304600F075
:103B3800E1F901300FD0124AD8F808303F1B47F09E
:103B480001075F60136830461B1B136000F0D0F953
:103B58000120BDE8F8830021304600F0CBF9D8F801
:103B68000820831A0F2BDADD43F001035360054B5D
:103B780003491B68C01A0860D1E700BF480100204C
:103B8800A80800205005002000297CD0F8B50C4674
:103B9800064600F0ABF954F8043C764FA4F108054A
:103BA80023F001016818D7F808C04268844522F05C
:103BB800030200F08380DB07426000EB020C33D481
:103BC80054F8084CDCF804302D1B2144AC6807F18C
:103BD800080C644503F0010364D0D5F80CE0C4F880
:103BE8000CE0CEF80840002B00F0818041F0010382
:103BF8006B600160B1F5007F22D27868CB080122A2
:103C0800490901338A40024357F833107A6007EBB9
:103C1800C302083AC5E9021247F83350CD6030466E
:103C2800BDE8F84000F064B9DCF80430DB072BD5B8
:103C380041F00103B1F5007F44F8043C0160DCD396
:103C4800B1F5206F4FEA512353D28B0903F13900A4
:103C580003F13802C300F818FB580838984203D11A
:103C680061E09B68984204D05A6822F003028A42B5
:103C7800F7D8D868C5E902308560DD603046BDE810
:103C8800F84000F035B97047114407F1080C836813
:103C980063453FD0C268DA60936041F001036B600E
:103CA8006950A7E7002B5FD10A44D0E90213CB6023
:103CB800996042F001036B60AA50B0E70A44D90743
:103CC80007D454F8083CED1A1A44D5E90213CB601E
:103CD800996042F001036B60274BBD601B689342FB
:103CE8009DD8264B30461968FFF7F2FE97E7114436
:103CF800CDE7142B08D9542B1DD80B0B03F16F00FB
:103D080003F16E02C300A6E703F15C0003F15B0256
:103D1800C300A0E741F00103C7E90455C5E902CC97
:103D28006B6069507BE779689210012404FA02F20B
:103D38000A437A609EE7B3F5AA7F06D8CB0B03F156
:103D4800780003F17702C30085E740F254529342AA
:103D580006D88B0C03F17D0003F17C02C3007AE7DF
:103D68004FF47E737E2276E741F001036B600160B9
:103D780055E700BF4801002054050020A408002092
:103D880070B539B106460C4608B1436B83B3B4F934
:103D98000C3013B90025284670BD2146304600F086
:103DA800CDF8E36A054633B1E16930469847002803
:103DB800B8BF4FF0FF35A3891B061CD4216B41B156
:103DC80004F14003994202D03046FFF7DDFE00239C
:103DD8002363616C21B13046FFF7D6FE002363648C
:103DE800FFF78EFB0023A381FFF78CFB284670BDED
:103DF800FFF776FBCBE721693046FFF7C5FEDDE725
:103E0800024B01461868FFF7BBBF00BF2000002027
:103E1800082802D14FF48050704708B500F05CF9CB
:103E2800162303604FF0FF3008BD00BF10B50C46E5
:103E3800B1F90E1000F056F9002803DB236D034496
:103E4800236510BDA38923F48053A38110BD00BF4F
:103E5800002070472DE9F0410C46B1F90C101F46BF
:103E6800CB05054616460BD421F48051A1813B466B
:103E7800B4F90E1032462846BDE8F04100F020B8EB
:103E8800B4F90E100223002200F042F9B4F90C1024
:103E9800EAE700BF10B50C46B1F90E1000F038F98A
:103EA800B4F90C30421C0EBF23F4805343F4805302
:103EB8002065A38110BD00BFB1F90E1000F02CB829
:103EC80038B50C46084D8446114620461A4600234C
:103ED8002B60644600F08EF9431C00D038BD2B6877
:103EE800002BFBD0236038BDD8080020704700BFE6
:103EF800704700BF38B5074D0022044608462A60BF
:103F080000F06AF9431C00D038BD2B68002BFBD0A9
:103F1800236038BDD808002038B5074D0022044674
:103F280008462A6000F040F9431C00D038BD2B68D1
:103F3800002BFBD0236038BDD8080020B1F90C2035
:103F4800F8B516070C46074649D4496842F4006399
:103F58000029A3815FDDA56A002D3ED0002112F45F
:103F680080523E683960E16961D101233846A8472B
:103F7800451C02466BD0B4F90C30A56AE1695807B4
:103F880005D56368D21A236B0BB1E36BD21A0023F1
:103F98003846A847411C4CD13968B4F90C301D2962
:103FA8003FD82F4ACA40D2073BD52269226023F462
:103FB8000062A281DD044FF00002626001D5002991
:103FC80043D0216B3E6041B104F14003994202D0D5
:103FD8003846FFF7D9FD002323630020F8BD0E699A
:103FE800002EFAD00D680E6092070CBF4B690023B3
:103FF800AD1B8B600CE0D4F824C0E1692B46324637
:104008003846E047B0F1000CA5EB0C05664406DD28
:10401800002DF0DCE1E7E16B00299CDCDDE7B4F979
:104028000C3043F04003A3814FF0FF30F8BD226D00
:10403800A5E7B4F90C302269226023F40062A2815A
:10404800DB044FF000026260BBD52065B9E73B682E
:10405800002B90D01D2B01D0162BE0D13E60BCE781
:104068000100402010B5044682B008B1436B53B13B
:10407800B1F90C0008B902B010BD204602B0BDE885
:104088001040FFF75BBF0191FFF72AFA0199EFE7AC
:10409800A0B138B50C4B1D6804460DB16B6B4BB124
:1040A800B4F90C0000B938BD21462846BDE83840AF
:1040B800FFF744BF2846FFF713FAF1E7034A04491C
:1040C8000448FFF735BA00BF200000201400002084
:1040D8006D40000828000020014B1868704700BF99
:1040E8002000002038B50C46084D8446114620466D
:1040F8001A4600232B60644600F066F8431C00D083
:1041080038BD2B68002BFBD0236038BDD8080020B1
:1041180038B50C46084D8446114620461A460023F9
:104128002B60644600F048F8431C00D038BD2B686B
:10413800002BFBD0236038BDD8080020194B1B6822
:1041480083422ED0416C70B5054681B100268C594A
:104158003CB1214624682846FFF716FD002CF8D10B
:10416800696C0436802EF2D12846FFF70DFDA96B45
:1041780011B12846FFF708FD2C6C34B1214624689C
:104188002846FFF701FD002CF8D1E96C11B128464B
:10419800FFF7FAFC6B6B1BB12846BDE87040184767
:1041A80070BD704720000020024B58221A604FF063
:1041B800FF307047D8080020024B58221A604FF091
:1041C800FF307047D8080020024B58221A604FF081
:1041D800FF307047D8080020044A05491368002BAF
:1041E80008BF0B461844106018467047DC080020CA
:1041F800E0080020024B58221A604FF0FF30704749
:10420800D8080020FEE700BFDFF834D0002103E023
:104218000C4B5B58435004310B480C4B42189A42E4
:10422800F6D30B4A02E0002342F8043B094B9A42BA
:10423800F9D3FCF733F8FEF78FFF00F00FF870475B
:1042480000000220B04300080000002058050020AC
:1042580058050020E0080020FEE70000204A214C15
:10426800136B43F001031363236823F44063236053
:10427800236843F480632360636823F0200363604A
:10428800A36843F44063A360E36823F4406382B007
:10429800002040F67A42E360636943F0200364211A
:1042A80063610190019B934205DC019B01330193FB
:1042B800019B9342F9DD0139F3D1636923F02003AF
:1042C800642163610090009B934205DC009B0133ED
:1042D8000093009B9342F9DD0139F3D1DCE700BF7D
:1042E8000038024000000240024B13B10248FEF7BA
:1042F80069BF704700000000D931000800000000C5
:10430800F8B500BFF8BC08BC9E467047F8B500BFBA
:08431800F8BC08BC9E4670478A
:104320003E410C41114127413641034106411541AF
:104330000F410E41264113412941024119410A41D1
:104340000B41000000000000000000000102030417
:1043500006070809280000000020000020000000D7
:10436000000000000102030401020304060708091B
:1043700000061016000610163E410C41114127415F
:1043800036410341064115410F410E41264113417B
:0C4390002941024119410A410B41000083
:08439C0084BEFF7F0100000058
:0843A400F142000801020008CB
:0443AC00D90100082B
:1043B000000000000024F400E803000000000240B8
:1043C0000008024000000000030000006807002011
:1043D0002800002000000000000000006807002006
:1043E000D007002038080020000000000000000076
:1043F00000000000000000000000000000000000BD
:1044000000000000000000000000000000000000AC
:10441000000000000000000000000000000000009C
:10442000000000000000000000000000000000008C
:10443000000000000000000000000000000000007C
:10444000000000000000000000000000000000006C
:10445000000000000000000000000000000000005C
:10446000000000000000000000000000000000004C
:1044700001000000000000000E33CDAB34126DE6E9
:10448000ECDE05000B000000000000000000000052
:10449000000000000000000000000000000000001C
:1044A000000000000000000000000000000000000C
:1044B00000000000000000000000000000000000FC
:1044C00000000000000000000000000000000000EC
:1044D00000000000000000000000000000000000DC
:1044E00000000000000000000000000000000000CC
:1044F00000000000000000000000000000000000BC
:1045000048010020480100205001002050010020F7
:1045100058010020580100206001002060010020A7
:104520006801002068010020700100207001002057
:104530007801002078010020800100208001002007
:1045400088010020880100209001002090010020B7
:104550009801002098010020A0010020A001002067
:10456000A8010020A8010020B0010020B001002017
:10457000B8010020B8010020C0010020C0010020C7
:10458000C8010020C8010020D0010020D001002077
:10459000D8010020D8010020E0010020E001002027
:1045A000E8010020E8010020F0010020F0010020D7
:1045B000F8010020F8010020000200200002002085
:1045C0000802002008020020100200201002002033
:1045D00018020020180200202002002020020020E3
:1045E0002802002028020020300200203002002093
:1045F0003802002038020020400200204002002043
:1046000048020020480200205002002050020020F2
:1046100058020020580200206002002060020020A2
:104620006802002068020020700200207002002052
:104630007802002078020020800200208002002002
:1046400088020020880200209002002090020020B2
:104650009802002098020020A0020020A002002062
:10466000A8020020A8020020B0020020B002002012
:10467000B8020020B8020020C0020020C0020020C2
:10468000C8020020C8020020D0020020D002002072
:10469000D8020020D8020020E0020020E002002022
:1046A000E8020020E8020020F0020020F0020020D2
:1046B000F8020020F8020020000300200003002080
:1046C000080300200803002010030020100300202E
:1046D00018030020180300202003002020030020DE
:1046E000280300202803002030030020300300208E
:1046F000380300203803002040030020400300203E
:1047000048030020480300205003002050030020ED
:10471000580300205803002060030020600300209D
:10472000680300206803002070030020700300204D
:1047300078030020780300208003002080030020FD
:1047400088030020880300209003002090030020AD
:104750009803002098030020A0030020A00300205D
:10476000A8030020A8030020B0030020B00300200D
:10477000B8030020B8030020C0030020C0030020BD
:10478000C8030020C8030020D0030020D00300206D
:10479000D8030020D8030020E0030020E00300201D
:1047A000E8030020E8030020F0030020F0030020CD
:1047B000F8030020F803002000040020000400207B
:1047C0000804002008040020100400201004002029
:1047D00018040020180400202004002020040020D9
:1047E0002804002028040020300400203004002089
:1047F0003804002038040020400400204004002039
:1048000048040020480400205004002050040020E8
:104810005804002058040020600400206004002098
:104820006804002068040020700400207004002048
:1048300078040020780400208004002080040020F8
:1048400088040020880400209004002090040020A8
:104850009804002098040020A0040020A004002058
:10486000A8040020A8040020B0040020B004002008
:10487000B8040020B8040020C0040020C0040020B8
:10488000C8040020C8040020D0040020D004002068
:10489000D8040020D8040020E0040020E004002018
:1048A000E8040020E8040020F0040020F0040020C8
:1048B000F8040020F8040020000500200005002076
:1048C0000805002008050020100500201005002024
:1048D00018050020180500202005002020050020D4
:1048E0002805002028050020300500203005002084
:1048F0003805002038050020400500204005002034
:08490000FFFFFFFF00000200B1
:04000005080042119C
:00000001FF
